{
  "_format": "hh-sol-artifact-1",
  "contractName": "Group",
  "sourceName": "contracts/Group.sol",
  "abi": [
    {
      "inputs": [
        {
          "internalType": "string",
          "name": "_name",
          "type": "string"
        }
      ],
      "stateMutability": "nonpayable",
      "type": "constructor"
    },
    {
      "anonymous": false,
      "inputs": [
        {
          "indexed": true,
          "internalType": "address",
          "name": "user",
          "type": "address"
        }
      ],
      "name": "JoinedGroup",
      "type": "event"
    },
    {
      "anonymous": false,
      "inputs": [
        {
          "indexed": true,
          "internalType": "address",
          "name": "user",
          "type": "address"
        }
      ],
      "name": "LeftGroup",
      "type": "event"
    },
    {
      "inputs": [],
      "name": "getAllMembers",
      "outputs": [
        {
          "internalType": "address[]",
          "name": "",
          "type": "address[]"
        }
      ],
      "stateMutability": "view",
      "type": "function"
    },
    {
      "inputs": [
        {
          "internalType": "address",
          "name": "",
          "type": "address"
        }
      ],
      "name": "isMember",
      "outputs": [
        {
          "internalType": "bool",
          "name": "",
          "type": "bool"
        }
      ],
      "stateMutability": "view",
      "type": "function"
    },
    {
      "inputs": [
        {
          "internalType": "address",
          "name": "user",
          "type": "address"
        }
      ],
      "name": "isUserMember",
      "outputs": [
        {
          "internalType": "bool",
          "name": "",
          "type": "bool"
        }
      ],
      "stateMutability": "view",
      "type": "function"
    },
    {
      "inputs": [],
      "name": "joinGroup",
      "outputs": [],
      "stateMutability": "nonpayable",
      "type": "function"
    },
    {
      "inputs": [],
      "name": "leaveGroup",
      "outputs": [],
      "stateMutability": "nonpayable",
      "type": "function"
    },
    {
      "inputs": [],
      "name": "name",
      "outputs": [
        {
          "internalType": "string",
          "name": "",
          "type": "string"
        }
      ],
      "stateMutability": "view",
      "type": "function"
    }
  ],
  "bytecode": "0x608060405234801561001057600080fd5b506040516110db3803806110db833981810160405281019061003291906101bd565b80600090816100419190610427565b50506104f9565b6000604051905090565b600080fd5b600080fd5b600080fd5b600080fd5b6000601f19601f8301169050919050565b7f4e487b7100000000000000000000000000000000000000000000000000000000600052604160045260246000fd5b6100af82610066565b810181811067ffffffffffffffff821117156100ce576100cd610077565b5b80604052505050565b60006100e1610048565b90506100ed82826100a6565b919050565b600067ffffffffffffffff82111561010d5761010c610077565b5b61011682610066565b9050602081019050919050565b60005b83811015610141578082015181840152602081019050610126565b60008484015250505050565b600061016061015b846100f2565b6100d7565b90508281526020810184848401111561017c5761017b610061565b5b610187848285610123565b509392505050565b600082601f8301126101a4576101a361005c565b5b81516101b484826020860161014d565b91505092915050565b6000602082840312156101d3576101d2610052565b5b600082015167ffffffffffffffff8111156101f1576101f0610057565b5b6101fd8482850161018f565b91505092915050565b600081519050919050565b7f4e487b7100000000000000000000000000000000000000000000000000000000600052602260045260246000fd5b6000600282049050600182168061025857607f821691505b60208210810361026b5761026a610211565b5b50919050565b60008190508160005260206000209050919050565b60006020601f8301049050919050565b600082821b905092915050565b6000600883026102d37fffffffffffffffffffffffffffffffffffffffffffffffffffffffffffffffff82610296565b6102dd8683610296565b95508019841693508086168417925050509392505050565b6000819050919050565b6000819050919050565b600061032461031f61031a846102f5565b6102ff565b6102f5565b9050919050565b6000819050919050565b61033e83610309565b61035261034a8261032b565b8484546102a3565b825550505050565b600090565b61036761035a565b610372818484610335565b505050565b5b818110156103965761038b60008261035f565b600181019050610378565b5050565b601f8211156103db576103ac81610271565b6103b584610286565b810160208510156103c4578190505b6103d86103d085610286565b830182610377565b50505b505050565b600082821c905092915050565b60006103fe600019846008026103e0565b1980831691505092915050565b600061041783836103ed565b9150826002028217905092915050565b61043082610206565b67ffffffffffffffff81111561044957610448610077565b5b6104538254610240565b61045e82828561039a565b600060209050601f831160018114610491576000841561047f578287015190505b610489858261040b565b8655506104f1565b601f19841661049f86610271565b60005b828110156104c7578489015182556001820191506020850194506020810190506104a2565b868310156104e457848901516104e0601f8916826103ed565b8355505b6001600288020188555050505b505050505050565b610bd3806105086000396000f3fe608060405234801561001057600080fd5b50600436106100625760003560e01c806306fdde03146100675780637c0f6b351461008557806399b1adbf146100a35780639ac79e0a146100d3578063a230c524146100dd578063cb1fb4901461010d575b600080fd5b61006f610117565b60405161007c91906107be565b60405180910390f35b61008d6101a5565b60405161009a91906108d0565b60405180910390f35b6100bd60048036038101906100b89190610923565b610403565b6040516100ca919061096b565b60405180910390f35b6100db610459565b005b6100f760048036038101906100f29190610923565b6105e5565b604051610104919061096b565b60405180910390f35b610115610605565b005b60008054610124906109b5565b80601f0160208091040260200160405190810160405280929190818152602001828054610150906109b5565b801561019d5780601f106101725761010080835404028352916020019161019d565b820191906000526020600020905b81548152906001019060200180831161018057829003601f168201915b505050505081565b60606000805b6002805490508110156102645760016000600283815481106101d0576101cf6109e6565b5b9060005260206000200160009054906101000a900473ffffffffffffffffffffffffffffffffffffffff1673ffffffffffffffffffffffffffffffffffffffff1673ffffffffffffffffffffffffffffffffffffffff16815260200190815260200160002060009054906101000a900460ff161561025757818061025390610a4e565b9250505b80806001019150506101ab565b5060008167ffffffffffffffff81111561028157610280610a96565b5b6040519080825280602002602001820160405280156102af5781602001602082028036833780820191505090505b5090506000805b6002805490508110156103f95760016000600283815481106102db576102da6109e6565b5b9060005260206000200160009054906101000a900473ffffffffffffffffffffffffffffffffffffffff1673ffffffffffffffffffffffffffffffffffffffff1673ffffffffffffffffffffffffffffffffffffffff16815260200190815260200160002060009054906101000a900460ff16156103ec5760028181548110610367576103666109e6565b5b9060005260206000200160009054906101000a900473ffffffffffffffffffffffffffffffffffffffff1683838061039e90610a4e565b9450815181106103b1576103b06109e6565b5b602002602001019073ffffffffffffffffffffffffffffffffffffffff16908173ffffffffffffffffffffffffffffffffffffffff16815250505b80806001019150506102b6565b5081935050505090565b6000600160008373ffffffffffffffffffffffffffffffffffffffff1673ffffffffffffffffffffffffffffffffffffffff16815260200190815260200160002060009054906101000a900460ff169050919050565b600160003373ffffffffffffffffffffffffffffffffffffffff1673ffffffffffffffffffffffffffffffffffffffff16815260200190815260200160002060009054906101000a900460ff16156104e6576040517f08c379a00000000000000000000000000000000000000000000000000000000081526004016104dd90610b11565b60405180910390fd5b60018060003373ffffffffffffffffffffffffffffffffffffffff1673ffffffffffffffffffffffffffffffffffffffff16815260200190815260200160002060006101000a81548160ff0219169083151502179055506002339080600181540180825580915050600190039060005260206000200160009091909190916101000a81548173ffffffffffffffffffffffffffffffffffffffff021916908373ffffffffffffffffffffffffffffffffffffffff1602179055503373ffffffffffffffffffffffffffffffffffffffff167f4ffce5c8359662ccdced3e29f5af038422bfc4d294ad14f6493097c7e171336560405160405180910390a2565b60016020528060005260406000206000915054906101000a900460ff1681565b600160003373ffffffffffffffffffffffffffffffffffffffff1673ffffffffffffffffffffffffffffffffffffffff16815260200190815260200160002060009054906101000a900460ff16610691576040517f08c379a000000000000000000000000000000000000000000000000000000000815260040161068890610b7d565b60405180910390fd5b6000600160003373ffffffffffffffffffffffffffffffffffffffff1673ffffffffffffffffffffffffffffffffffffffff16815260200190815260200160002060006101000a81548160ff0219169083151502179055503373ffffffffffffffffffffffffffffffffffffffff167fb45ec3c4c125a602081b19541c4aafbc984ca703525bd8549f8f1cadee54a7e760405160405180910390a2565b600081519050919050565b600082825260208201905092915050565b60005b8381101561076857808201518184015260208101905061074d565b60008484015250505050565b6000601f19601f8301169050919050565b60006107908261072e565b61079a8185610739565b93506107aa81856020860161074a565b6107b381610774565b840191505092915050565b600060208201905081810360008301526107d88184610785565b905092915050565b600081519050919050565b600082825260208201905092915050565b6000819050602082019050919050565b600073ffffffffffffffffffffffffffffffffffffffff82169050919050565b60006108378261080c565b9050919050565b6108478161082c565b82525050565b6000610859838361083e565b60208301905092915050565b6000602082019050919050565b600061087d826107e0565b61088781856107eb565b9350610892836107fc565b8060005b838110156108c35781516108aa888261084d565b97506108b583610865565b925050600181019050610896565b5085935050505092915050565b600060208201905081810360008301526108ea8184610872565b905092915050565b600080fd5b6109008161082c565b811461090b57600080fd5b50565b60008135905061091d816108f7565b92915050565b600060208284031215610939576109386108f2565b5b60006109478482850161090e565b91505092915050565b60008115159050919050565b61096581610950565b82525050565b6000602082019050610980600083018461095c565b92915050565b7f4e487b7100000000000000000000000000000000000000000000000000000000600052602260045260246000fd5b600060028204905060018216806109cd57607f821691505b6020821081036109e0576109df610986565b5b50919050565b7f4e487b7100000000000000000000000000000000000000000000000000000000600052603260045260246000fd5b7f4e487b7100000000000000000000000000000000000000000000000000000000600052601160045260246000fd5b6000819050919050565b6000610a5982610a44565b91507fffffffffffffffffffffffffffffffffffffffffffffffffffffffffffffffff8203610a8b57610a8a610a15565b5b600182019050919050565b7f4e487b7100000000000000000000000000000000000000000000000000000000600052604160045260246000fd5b7f416c72656164792061206d656d62657200000000000000000000000000000000600082015250565b6000610afb601083610739565b9150610b0682610ac5565b602082019050919050565b60006020820190508181036000830152610b2a81610aee565b9050919050565b7f4e6f742061206d656d6265720000000000000000000000000000000000000000600082015250565b6000610b67600c83610739565b9150610b7282610b31565b602082019050919050565b60006020820190508181036000830152610b9681610b5a565b905091905056fea26469706673582212207c8da8f5357d96a9da505b09fe4bd0f270edf4db94f30ded8feb7e6c6ee9108664736f6c634300081c0033",
  "linkReferences": {},
  "deployedLinkReferences": {}
}