{
  "_format": "hh-sol-artifact-1",
  "contractName": "UserMetadataFactory",
  "sourceName": "contracts/UserMetadataFactory.sol",
  "abi": [
    {
      "anonymous": false,
      "inputs": [
        {
          "indexed": true,
          "internalType": "address",
          "name": "user",
          "type": "address"
        },
        {
          "indexed": false,
          "internalType": "address",
          "name": "metadataContract",
          "type": "address"
        }
      ],
      "name": "UserMetadataCreated",
      "type": "event"
    },
    {
      "inputs": [
        {
          "internalType": "address",
          "name": "user",
          "type": "address"
        }
      ],
      "name": "getUserMetadataContract",
      "outputs": [
        {
          "internalType": "address",
          "name": "",
          "type": "address"
        }
      ],
      "stateMutability": "view",
      "type": "function"
    },
    {
      "inputs": [
        {
          "internalType": "address",
          "name": "user",
          "type": "address"
        }
      ],
      "name": "getUserMetadataJSON",
      "outputs": [
        {
          "internalType": "string",
          "name": "",
          "type": "string"
        }
      ],
      "stateMutability": "view",
      "type": "function"
    },
    {
      "inputs": [
        {
          "internalType": "string",
          "name": "email",
          "type": "string"
        },
        {
          "internalType": "string",
          "name": "name",
          "type": "string"
        },
        {
          "internalType": "string",
          "name": "institution",
          "type": "string"
        }
      ],
      "name": "registerUser",
      "outputs": [],
      "stateMutability": "nonpayable",
      "type": "function"
    },
    {
      "inputs": [
        {
          "internalType": "address",
          "name": "",
          "type": "address"
        }
      ],
      "name": "userMetadataContracts",
      "outputs": [
        {
          "internalType": "address",
          "name": "",
          "type": "address"
        }
      ],
      "stateMutability": "view",
      "type": "function"
    }
  ],
  "bytecode": "0x6080604052348015600f57600080fd5b50611ee08061001f6000396000f3fe608060405234801561001057600080fd5b506004361061004c5760003560e01c8063073b4c9514610051578063a35ea4dc14610081578063d637dcfa146100b1578063ee69c426146100cd575b600080fd5b61006b60048036038101906100669190610543565b6100fd565b604051610078919061057f565b60405180910390f35b61009b60048036038101906100969190610543565b610165565b6040516100a8919061057f565b60405180910390f35b6100cb60048036038101906100c691906106e0565b610198565b005b6100e760048036038101906100e29190610543565b610374565b6040516100f49190610806565b60405180910390f35b60008060008373ffffffffffffffffffffffffffffffffffffffff1673ffffffffffffffffffffffffffffffffffffffff16815260200190815260200160002060009054906101000a900473ffffffffffffffffffffffffffffffffffffffff169050919050565b60006020528060005260406000206000915054906101000a900473ffffffffffffffffffffffffffffffffffffffff1681565b600073ffffffffffffffffffffffffffffffffffffffff166000803373ffffffffffffffffffffffffffffffffffffffff1673ffffffffffffffffffffffffffffffffffffffff16815260200190815260200160002060009054906101000a900473ffffffffffffffffffffffffffffffffffffffff1673ffffffffffffffffffffffffffffffffffffffff1614610265576040517f08c379a000000000000000000000000000000000000000000000000000000000815260040161025c90610874565b60405180910390fd5b600033848484604051610277906104c4565b6102849493929190610894565b604051809103906000f0801580156102a0573d6000803e3d6000fd5b509050806000803373ffffffffffffffffffffffffffffffffffffffff1673ffffffffffffffffffffffffffffffffffffffff16815260200190815260200160002060006101000a81548173ffffffffffffffffffffffffffffffffffffffff021916908373ffffffffffffffffffffffffffffffffffffffff1602179055503373ffffffffffffffffffffffffffffffffffffffff167fb6f19680cffbaef72e9e8c7664c30f56d86dd917d14d3ed104529c7c888e74a182604051610366919061057f565b60405180910390a250505050565b606060008060008473ffffffffffffffffffffffffffffffffffffffff1673ffffffffffffffffffffffffffffffffffffffff16815260200190815260200160002060009054906101000a900473ffffffffffffffffffffffffffffffffffffffff169050600073ffffffffffffffffffffffffffffffffffffffff168173ffffffffffffffffffffffffffffffffffffffff1603610448576040517f08c379a000000000000000000000000000000000000000000000000000000000815260040161043f9061093a565b60405180910390fd5b8073ffffffffffffffffffffffffffffffffffffffff1663db00e6b56040518163ffffffff1660e01b8152600401600060405180830381865afa158015610493573d6000803e3d6000fd5b505050506040513d6000823e3d601f19601f820116820180604052508101906104bc91906109ca565b915050919050565b61149780610a1483390190565b6000604051905090565b600080fd5b600080fd5b600073ffffffffffffffffffffffffffffffffffffffff82169050919050565b6000610510826104e5565b9050919050565b61052081610505565b811461052b57600080fd5b50565b60008135905061053d81610517565b92915050565b600060208284031215610559576105586104db565b5b60006105678482850161052e565b91505092915050565b61057981610505565b82525050565b60006020820190506105946000830184610570565b92915050565b600080fd5b600080fd5b6000601f19601f8301169050919050565b7f4e487b7100000000000000000000000000000000000000000000000000000000600052604160045260246000fd5b6105ed826105a4565b810181811067ffffffffffffffff8211171561060c5761060b6105b5565b5b80604052505050565b600061061f6104d1565b905061062b82826105e4565b919050565b600067ffffffffffffffff82111561064b5761064a6105b5565b5b610654826105a4565b9050602081019050919050565b82818337600083830152505050565b600061068361067e84610630565b610615565b90508281526020810184848401111561069f5761069e61059f565b5b6106aa848285610661565b509392505050565b600082601f8301126106c7576106c661059a565b5b81356106d7848260208601610670565b91505092915050565b6000806000606084860312156106f9576106f86104db565b5b600084013567ffffffffffffffff811115610717576107166104e0565b5b610723868287016106b2565b935050602084013567ffffffffffffffff811115610744576107436104e0565b5b610750868287016106b2565b925050604084013567ffffffffffffffff811115610771576107706104e0565b5b61077d868287016106b2565b9150509250925092565b600081519050919050565b600082825260208201905092915050565b60005b838110156107c15780820151818401526020810190506107a6565b60008484015250505050565b60006107d882610787565b6107e28185610792565b93506107f28185602086016107a3565b6107fb816105a4565b840191505092915050565b6000602082019050818103600083015261082081846107cd565b905092915050565b7f416c726561647920726567697374657265640000000000000000000000000000600082015250565b600061085e601283610792565b915061086982610828565b602082019050919050565b6000602082019050818103600083015261088d81610851565b9050919050565b60006080820190506108a96000830187610570565b81810360208301526108bb81866107cd565b905081810360408301526108cf81856107cd565b905081810360608301526108e381846107cd565b905095945050505050565b7f55736572206e6f74207265676973746572656400000000000000000000000000600082015250565b6000610924601383610792565b915061092f826108ee565b602082019050919050565b6000602082019050818103600083015261095381610917565b9050919050565b600061096d61096884610630565b610615565b9050828152602081018484840111156109895761098861059f565b5b6109948482856107a3565b509392505050565b600082601f8301126109b1576109b061059a565b5b81516109c184826020860161095a565b91505092915050565b6000602082840312156109e0576109df6104db565b5b600082015167ffffffffffffffff8111156109fe576109fd6104e0565b5b610a0a8482850161099c565b9150509291505056fe608060405234801561001057600080fd5b506040516114973803806114978339818101604052810190610032919061027e565b836000806101000a81548173ffffffffffffffffffffffffffffffffffffffff021916908373ffffffffffffffffffffffffffffffffffffffff1602179055508260019081610081919061055a565b508160029081610091919061055a565b5080600390816100a1919061055a565b505050505061062c565b6000604051905090565b600080fd5b600080fd5b600073ffffffffffffffffffffffffffffffffffffffff82169050919050565b60006100ea826100bf565b9050919050565b6100fa816100df565b811461010557600080fd5b50565b600081519050610117816100f1565b92915050565b600080fd5b600080fd5b6000601f19601f8301169050919050565b7f4e487b7100000000000000000000000000000000000000000000000000000000600052604160045260246000fd5b61017082610127565b810181811067ffffffffffffffff8211171561018f5761018e610138565b5b80604052505050565b60006101a26100ab565b90506101ae8282610167565b919050565b600067ffffffffffffffff8211156101ce576101cd610138565b5b6101d782610127565b9050602081019050919050565b60005b838110156102025780820151818401526020810190506101e7565b60008484015250505050565b600061022161021c846101b3565b610198565b90508281526020810184848401111561023d5761023c610122565b5b6102488482856101e4565b509392505050565b600082601f8301126102655761026461011d565b5b815161027584826020860161020e565b91505092915050565b60008060008060808587031215610298576102976100b5565b5b60006102a687828801610108565b945050602085015167ffffffffffffffff8111156102c7576102c66100ba565b5b6102d387828801610250565b935050604085015167ffffffffffffffff8111156102f4576102f36100ba565b5b61030087828801610250565b925050606085015167ffffffffffffffff811115610321576103206100ba565b5b61032d87828801610250565b91505092959194509250565b600081519050919050565b7f4e487b7100000000000000000000000000000000000000000000000000000000600052602260045260246000fd5b6000600282049050600182168061038b57607f821691505b60208210810361039e5761039d610344565b5b50919050565b60008190508160005260206000209050919050565b60006020601f8301049050919050565b600082821b905092915050565b6000600883026104067fffffffffffffffffffffffffffffffffffffffffffffffffffffffffffffffff826103c9565b61041086836103c9565b95508019841693508086168417925050509392505050565b6000819050919050565b6000819050919050565b600061045761045261044d84610428565b610432565b610428565b9050919050565b6000819050919050565b6104718361043c565b61048561047d8261045e565b8484546103d6565b825550505050565b600090565b61049a61048d565b6104a5818484610468565b505050565b5b818110156104c9576104be600082610492565b6001810190506104ab565b5050565b601f82111561050e576104df816103a4565b6104e8846103b9565b810160208510156104f7578190505b61050b610503856103b9565b8301826104aa565b50505b505050565b600082821c905092915050565b600061053160001984600802610513565b1980831691505092915050565b600061054a8383610520565b9150826002028217905092915050565b61056382610339565b67ffffffffffffffff81111561057c5761057b610138565b5b6105868254610373565b6105918282856104cd565b600060209050601f8311600181146105c457600084156105b2578287015190505b6105bc858261053e565b865550610624565b601f1984166105d2866103a4565b60005b828110156105fa578489015182556001820191506020850194506020810190506105d5565b868310156106175784890151610613601f891682610520565b8355505b6001600288020188555050505b505050505050565b610e5c8061063b6000396000f3fe608060405234801561001057600080fd5b50600436106100575760003560e01c806306fdde031461005c578063820e93f51461007a5780638da5cb5b14610098578063d1384eb6146100b6578063db00e6b5146100d4575b600080fd5b6100646100f2565b604051610071919061067f565b60405180910390f35b610082610180565b60405161008f919061067f565b60405180910390f35b6100a061020e565b6040516100ad91906106e2565b60405180910390f35b6100be610232565b6040516100cb919061067f565b60405180910390f35b6100dc6102c0565b6040516100e9919061067f565b60405180910390f35b600280546100ff9061072c565b80601f016020809104026020016040519081016040528092919081815260200182805461012b9061072c565b80156101785780601f1061014d57610100808354040283529160200191610178565b820191906000526020600020905b81548152906001019060200180831161015b57829003601f168201915b505050505081565b6001805461018d9061072c565b80601f01602080910402602001604051908101604052809291908181526020018280546101b99061072c565b80156102065780601f106101db57610100808354040283529160200191610206565b820191906000526020600020905b8154815290600101906020018083116101e957829003601f168201915b505050505081565b60008054906101000a900473ffffffffffffffffffffffffffffffffffffffff1681565b6003805461023f9061072c565b80601f016020809104026020016040519081016040528092919081815260200182805461026b9061072c565b80156102b85780601f1061028d576101008083540402835291602001916102b8565b820191906000526020600020905b81548152906001019060200180831161029b57829003601f168201915b505050505081565b60606102eb60008054906101000a900473ffffffffffffffffffffffffffffffffffffffff16610318565b60016002600360405160200161030494939291906109ad565b604051602081830303815290604052905090565b60606000602a67ffffffffffffffff81111561033757610336610a22565b5b6040519080825280601f01601f1916602001820160405280156103695781602001600182028036833780820191505090505b5090507f3000000000000000000000000000000000000000000000000000000000000000816000815181106103a1576103a0610a51565b5b60200101907effffffffffffffffffffffffffffffffffffffffffffffffffffffffffffff1916908160001a9053507f78000000000000000000000000000000000000000000000000000000000000008160018151811061040557610404610a51565b5b60200101907effffffffffffffffffffffffffffffffffffffffffffffffffffffffffffff1916908160001a90535060005b601481101561059f57600081601361044f9190610ab9565b600861045b9190610aed565b60026104679190610c62565b8573ffffffffffffffffffffffffffffffffffffffff166104889190610cdc565b60f81b9050600060108260f81c61049f9190610d1a565b60f81b905060008160f81c60106104b69190610d4b565b8360f81c6104c49190610d88565b60f81b90506104d2826105a9565b8560028660026104e29190610aed565b6104ec9190610dbd565b815181106104fd576104fc610a51565b5b60200101907effffffffffffffffffffffffffffffffffffffffffffffffffffffffffffff1916908160001a905350610535816105a9565b8560038660026105459190610aed565b61054f9190610dbd565b815181106105605761055f610a51565b5b60200101907effffffffffffffffffffffffffffffffffffffffffffffffffffffffffffff1916908160001a9053505050508080600101915050610437565b5080915050919050565b6000600a8260f81c60ff1610156105d45760308260f81c6105ca9190610df1565b60f81b90506105ea565b60578260f81c6105e49190610df1565b60f81b90505b919050565b600081519050919050565b600082825260208201905092915050565b60005b8381101561062957808201518184015260208101905061060e565b60008484015250505050565b6000601f19601f8301169050919050565b6000610651826105ef565b61065b81856105fa565b935061066b81856020860161060b565b61067481610635565b840191505092915050565b600060208201905081810360008301526106998184610646565b905092915050565b600073ffffffffffffffffffffffffffffffffffffffff82169050919050565b60006106cc826106a1565b9050919050565b6106dc816106c1565b82525050565b60006020820190506106f760008301846106d3565b92915050565b7f4e487b7100000000000000000000000000000000000000000000000000000000600052602260045260246000fd5b6000600282049050600182168061074457607f821691505b602082108103610757576107566106fd565b5b50919050565b600081905092915050565b7f7b2277616c6c6574223a22000000000000000000000000000000000000000000600082015250565b600061079e600b8361075d565b91506107a982610768565b600b82019050919050565b60006107bf826105ef565b6107c9818561075d565b93506107d981856020860161060b565b80840191505092915050565b7f222c22656d61696c223a22000000000000000000000000000000000000000000600082015250565b600061081b600b8361075d565b9150610826826107e5565b600b82019050919050565b60008190508160005260206000209050919050565b600081546108538161072c565b61085d818661075d565b94506001821660008114610878576001811461088d576108c0565b60ff19831686528115158202860193506108c0565b61089685610831565b60005b838110156108b857815481890152600182019150602081019050610899565b838801955050505b50505092915050565b7f222c226e616d65223a2200000000000000000000000000000000000000000000600082015250565b60006108ff600a8361075d565b915061090a826108c9565b600a82019050919050565b7f222c22696e737469747574696f6e223a22000000000000000000000000000000600082015250565b600061094b60118361075d565b915061095682610915565b601182019050919050565b7f227d000000000000000000000000000000000000000000000000000000000000600082015250565b600061099760028361075d565b91506109a282610961565b600282019050919050565b60006109b882610791565b91506109c482876107b4565b91506109cf8261080e565b91506109db8286610846565b91506109e6826108f2565b91506109f28285610846565b91506109fd8261093e565b9150610a098284610846565b9150610a148261098a565b915081905095945050505050565b7f4e487b7100000000000000000000000000000000000000000000000000000000600052604160045260246000fd5b7f4e487b7100000000000000000000000000000000000000000000000000000000600052603260045260246000fd5b6000819050919050565b7f4e487b7100000000000000000000000000000000000000000000000000000000600052601160045260246000fd5b6000610ac482610a80565b9150610acf83610a80565b9250828203905081811115610ae757610ae6610a8a565b5b92915050565b6000610af882610a80565b9150610b0383610a80565b9250828202610b1181610a80565b91508282048414831517610b2857610b27610a8a565b5b5092915050565b60008160011c9050919050565b6000808291508390505b6001851115610b8657808604811115610b6257610b61610a8a565b5b6001851615610b715780820291505b8081029050610b7f85610b2f565b9450610b46565b94509492505050565b600082610b9f5760019050610c5b565b81610bad5760009050610c5b565b8160018114610bc35760028114610bcd57610bfc565b6001915050610c5b565b60ff841115610bdf57610bde610a8a565b5b8360020a915084821115610bf657610bf5610a8a565b5b50610c5b565b5060208310610133831016604e8410600b8410161715610c315782820a905083811115610c2c57610c2b610a8a565b5b610c5b565b610c3e8484846001610b3c565b92509050818404811115610c5557610c54610a8a565b5b81810290505b9392505050565b6000610c6d82610a80565b9150610c7883610a80565b9250610ca57fffffffffffffffffffffffffffffffffffffffffffffffffffffffffffffffff8484610b8f565b905092915050565b7f4e487b7100000000000000000000000000000000000000000000000000000000600052601260045260246000fd5b6000610ce782610a80565b9150610cf283610a80565b925082610d0257610d01610cad565b5b828204905092915050565b600060ff82169050919050565b6000610d2582610d0d565b9150610d3083610d0d565b925082610d4057610d3f610cad565b5b828204905092915050565b6000610d5682610d0d565b9150610d6183610d0d565b9250828202610d6f81610d0d565b9150808214610d8157610d80610a8a565b5b5092915050565b6000610d9382610d0d565b9150610d9e83610d0d565b9250828203905060ff811115610db757610db6610a8a565b5b92915050565b6000610dc882610a80565b9150610dd383610a80565b9250828201905080821115610deb57610dea610a8a565b5b92915050565b6000610dfc82610d0d565b9150610e0783610d0d565b9250828201905060ff811115610e2057610e1f610a8a565b5b9291505056fea26469706673582212207053473f421d303eb42966d5f9689426e86b1b5acae2c7bd817527a7cd33780b64736f6c634300081c0033a26469706673582212204b448f869c3ef57dd16ef3f645d9c6bfe0fbc0201acff6449cde5183a1615c4a64736f6c634300081c0033",
  "linkReferences": {},
  "deployedLinkReferences": {}
}