{
  "_format": "hh-sol-artifact-1",
  "contractName": "FactoryRegistry",
  "sourceName": "contracts/FactoryRegistry.sol",
  "abi": [
    {
      "inputs": [
        {
          "internalType": "string",
          "name": "name",
          "type": "string"
        }
      ],
      "name": "get",
      "outputs": [
        {
          "internalType": "address",
          "name": "",
          "type": "address"
        }
      ],
      "stateMutability": "view",
      "type": "function"
    },
    {
      "inputs": [
        {
          "internalType": "string",
          "name": "name",
          "type": "string"
        },
        {
          "internalType": "address",
          "name": "factory",
          "type": "address"
        }
      ],
      "name": "register",
      "outputs": [],
      "stateMutability": "nonpayable",
      "type": "function"
    }
  ],
  "bytecode": "0x6080604052348015600f57600080fd5b5061022e8061001f6000396000f3fe608060405234801561001057600080fd5b50600436106100365760003560e01c80631e59c5291461003b578063693ec85e14610050575b600080fd5b61004e610049366004610143565b61007f565b005b61006361005e3660046101a6565b6100c6565b6040516001600160a01b03909116815260200160405180910390f35b80600084846040516100929291906101e8565b90815260405190819003602001902080546001600160a01b03929092166001600160a01b0319909216919091179055505050565b60008083836040516100d99291906101e8565b908152604051908190036020019020546001600160a01b0316905092915050565b60008083601f84011261010c57600080fd5b50813567ffffffffffffffff81111561012457600080fd5b60208301915083602082850101111561013c57600080fd5b9250929050565b60008060006040848603121561015857600080fd5b833567ffffffffffffffff81111561016f57600080fd5b61017b868287016100fa565b90945092505060208401356001600160a01b038116811461019b57600080fd5b809150509250925092565b600080602083850312156101b957600080fd5b823567ffffffffffffffff8111156101d057600080fd5b6101dc858286016100fa565b90969095509350505050565b818382376000910190815291905056fea26469706673582212204b0030ff3eea382483ed0e6d3b96930f44cb3660ec7ed812b96068104a24269364736f6c634300081c0033",
  "linkReferences": {},
  "deployedLinkReferences": {}
}