{
  "_format": "hh-sol-artifact-1",
  "contractName": "JSONProject",
  "sourceName": "contracts/JSONProject.sol",
  "abi": [
    {
      "inputs": [
        {
          "internalType": "address",
          "name": "_creator",
          "type": "address"
        },
        {
          "internalType": "string",
          "name": "_projectData",
          "type": "string"
        }
      ],
      "stateMutability": "nonpayable",
      "type": "constructor"
    },
    {
      "anonymous": false,
      "inputs": [
        {
          "indexed": true,
          "internalType": "address",
          "name": "requester",
          "type": "address"
        },
        {
          "indexed": true,
          "internalType": "address",
          "name": "approver",
          "type": "address"
        },
        {
          "indexed": false,
          "internalType": "uint256",
          "name": "timestamp",
          "type": "uint256"
        }
      ],
      "name": "JoinRequestApproved",
      "type": "event"
    },
    {
      "anonymous": false,
      "inputs": [
        {
          "indexed": true,
          "internalType": "address",
          "name": "requester",
          "type": "address"
        },
        {
          "indexed": true,
          "internalType": "address",
          "name": "rejector",
          "type": "address"
        },
        {
          "indexed": false,
          "internalType": "uint256",
          "name": "timestamp",
          "type": "uint256"
        }
      ],
      "name": "JoinRequestRejected",
      "type": "event"
    },
    {
      "anonymous": false,
      "inputs": [
        {
          "indexed": true,
          "internalType": "address",
          "name": "requester",
          "type": "address"
        },
        {
          "indexed": false,
          "internalType": "string",
          "name": "role",
          "type": "string"
        },
        {
          "indexed": false,
          "internalType": "uint256",
          "name": "timestamp",
          "type": "uint256"
        }
      ],
      "name": "JoinRequestSubmitted",
      "type": "event"
    },
    {
      "anonymous": false,
      "inputs": [
        {
          "indexed": true,
          "internalType": "address",
          "name": "creator",
          "type": "address"
        },
        {
          "indexed": false,
          "internalType": "uint256",
          "name": "timestamp",
          "type": "uint256"
        }
      ],
      "name": "ProjectCreated",
      "type": "event"
    },
    {
      "anonymous": false,
      "inputs": [
        {
          "indexed": true,
          "internalType": "address",
          "name": "creator",
          "type": "address"
        },
        {
          "indexed": false,
          "internalType": "uint256",
          "name": "timestamp",
          "type": "uint256"
        }
      ],
      "name": "ProjectDeactivated",
      "type": "event"
    },
    {
      "anonymous": false,
      "inputs": [
        {
          "indexed": true,
          "internalType": "address",
          "name": "creator",
          "type": "address"
        },
        {
          "indexed": false,
          "internalType": "uint256",
          "name": "timestamp",
          "type": "uint256"
        }
      ],
      "name": "ProjectReactivated",
      "type": "event"
    },
    {
      "anonymous": false,
      "inputs": [
        {
          "indexed": true,
          "internalType": "address",
          "name": "updater",
          "type": "address"
        },
        {
          "indexed": false,
          "internalType": "uint256",
          "name": "timestamp",
          "type": "uint256"
        }
      ],
      "name": "ProjectUpdated",
      "type": "event"
    },
    {
      "inputs": [
        {
          "internalType": "address",
          "name": "_requester",
          "type": "address"
        }
      ],
      "name": "approveJoinRequest",
      "outputs": [],
      "stateMutability": "nonpayable",
      "type": "function"
    },
    {
      "inputs": [],
      "name": "createdAt",
      "outputs": [
        {
          "internalType": "uint256",
          "name": "",
          "type": "uint256"
        }
      ],
      "stateMutability": "view",
      "type": "function"
    },
    {
      "inputs": [],
      "name": "creator",
      "outputs": [
        {
          "internalType": "address",
          "name": "",
          "type": "address"
        }
      ],
      "stateMutability": "view",
      "type": "function"
    },
    {
      "inputs": [],
      "name": "deactivateProject",
      "outputs": [],
      "stateMutability": "nonpayable",
      "type": "function"
    },
    {
      "inputs": [],
      "name": "getAllRequesters",
      "outputs": [
        {
          "internalType": "address[]",
          "name": "",
          "type": "address[]"
        }
      ],
      "stateMutability": "view",
      "type": "function"
    },
    {
      "inputs": [],
      "name": "getCreator",
      "outputs": [
        {
          "internalType": "address",
          "name": "",
          "type": "address"
        }
      ],
      "stateMutability": "view",
      "type": "function"
    },
    {
      "inputs": [],
      "name": "getIsActive",
      "outputs": [
        {
          "internalType": "bool",
          "name": "",
          "type": "bool"
        }
      ],
      "stateMutability": "view",
      "type": "function"
    },
    {
      "inputs": [
        {
          "internalType": "address",
          "name": "_requester",
          "type": "address"
        }
      ],
      "name": "getJoinRequest",
      "outputs": [
        {
          "internalType": "address",
          "name": "requester",
          "type": "address"
        },
        {
          "internalType": "string",
          "name": "role",
          "type": "string"
        },
        {
          "internalType": "uint256",
          "name": "timestamp",
          "type": "uint256"
        },
        {
          "internalType": "bool",
          "name": "exists",
          "type": "bool"
        }
      ],
      "stateMutability": "view",
      "type": "function"
    },
    {
      "inputs": [],
      "name": "getProjectData",
      "outputs": [
        {
          "internalType": "string",
          "name": "",
          "type": "string"
        }
      ],
      "stateMutability": "view",
      "type": "function"
    },
    {
      "inputs": [],
      "name": "getProjectStatus",
      "outputs": [
        {
          "internalType": "bool",
          "name": "active",
          "type": "bool"
        },
        {
          "internalType": "uint256",
          "name": "created",
          "type": "uint256"
        },
        {
          "internalType": "uint256",
          "name": "modified",
          "type": "uint256"
        },
        {
          "internalType": "address",
          "name": "projectCreator",
          "type": "address"
        }
      ],
      "stateMutability": "view",
      "type": "function"
    },
    {
      "inputs": [],
      "name": "getTimestamps",
      "outputs": [
        {
          "internalType": "uint256",
          "name": "created",
          "type": "uint256"
        },
        {
          "internalType": "uint256",
          "name": "modified",
          "type": "uint256"
        }
      ],
      "stateMutability": "view",
      "type": "function"
    },
    {
      "inputs": [],
      "name": "isActive",
      "outputs": [
        {
          "internalType": "bool",
          "name": "",
          "type": "bool"
        }
      ],
      "stateMutability": "view",
      "type": "function"
    },
    {
      "inputs": [
        {
          "internalType": "address",
          "name": "",
          "type": "address"
        }
      ],
      "name": "joinRequests",
      "outputs": [
        {
          "internalType": "address",
          "name": "requester",
          "type": "address"
        },
        {
          "internalType": "string",
          "name": "role",
          "type": "string"
        },
        {
          "internalType": "uint256",
          "name": "timestamp",
          "type": "uint256"
        },
        {
          "internalType": "bool",
          "name": "exists",
          "type": "bool"
        }
      ],
      "stateMutability": "view",
      "type": "function"
    },
    {
      "inputs": [],
      "name": "lastModified",
      "outputs": [
        {
          "internalType": "uint256",
          "name": "",
          "type": "uint256"
        }
      ],
      "stateMutability": "view",
      "type": "function"
    },
    {
      "inputs": [],
      "name": "projectData",
      "outputs": [
        {
          "internalType": "string",
          "name": "",
          "type": "string"
        }
      ],
      "stateMutability": "view",
      "type": "function"
    },
    {
      "inputs": [],
      "name": "reactivateProject",
      "outputs": [],
      "stateMutability": "nonpayable",
      "type": "function"
    },
    {
      "inputs": [
        {
          "internalType": "address",
          "name": "_requester",
          "type": "address"
        }
      ],
      "name": "rejectJoinRequest",
      "outputs": [],
      "stateMutability": "nonpayable",
      "type": "function"
    },
    {
      "inputs": [
        {
          "internalType": "uint256",
          "name": "",
          "type": "uint256"
        }
      ],
      "name": "requesters",
      "outputs": [
        {
          "internalType": "address",
          "name": "",
          "type": "address"
        }
      ],
      "stateMutability": "view",
      "type": "function"
    },
    {
      "inputs": [
        {
          "internalType": "string",
          "name": "_role",
          "type": "string"
        }
      ],
      "name": "submitJoinRequest",
      "outputs": [],
      "stateMutability": "nonpayable",
      "type": "function"
    },
    {
      "inputs": [
        {
          "internalType": "string",
          "name": "_newProjectData",
          "type": "string"
        }
      ],
      "name": "updateProjectData",
      "outputs": [],
      "stateMutability": "nonpayable",
      "type": "function"
    }
  ],
  "bytecode": "0x608060405234801561001057600080fd5b5060405161169c38038061169c83398101604081905261002f91610125565b60008151116100845760405162461bcd60e51b815260206004820152601c60248201527f50726f6a65637420646174612063616e6e6f7420626520656d70747900000000604482015260640160405180910390fd5b600080546001600160a01b0319166001600160a01b03841617905560016100ab828261029a565b5042600281905560038190556004805460ff191660011790556040516001600160a01b038416917f20bfd29f3d906f96fc35742fac45a554b19cbd4e21f8c4c1d84cb58fdfc32c899161010091815260200190565b60405180910390a25050610358565b634e487b7160e01b600052604160045260246000fd5b6000806040838503121561013857600080fd5b82516001600160a01b038116811461014f57600080fd5b60208401519092506001600160401b0381111561016b57600080fd5b8301601f8101851361017c57600080fd5b80516001600160401b038111156101955761019561010f565b604051601f8201601f19908116603f011681016001600160401b03811182821017156101c3576101c361010f565b6040528181528282016020018710156101db57600080fd5b60005b828110156101fa576020818501810151838301820152016101de565b506000602083830101528093505050509250929050565b600181811c9082168061022557607f821691505b60208210810361024557634e487b7160e01b600052602260045260246000fd5b50919050565b601f82111561029557806000526020600020601f840160051c810160208510156102725750805b601f840160051c820191505b81811015610292576000815560010161027e565b50505b505050565b81516001600160401b038111156102b3576102b361010f565b6102c7816102c18454610211565b8461024b565b6020601f8211600181146102fb57600083156102e35750848201515b600019600385901b1c1916600184901b178455610292565b600084815260208120601f198516915b8281101561032b578785015182556020948501946001909201910161030b565b50848210156103495786840151600019600387901b60f8161c191681555b50505050600190811b01905550565b611335806103676000396000f3fe608060405234801561001057600080fd5b506004361061012c5760003560e01c80639c0768b3116100ad578063dfb748aa11610071578063dfb748aa14610274578063e7aa3afc14610287578063ef213106146102c2578063f7267cfd146102d5578063fba7cc79146102de57600080fd5b80639c0768b314610232578063b56864791461023a578063bbffd04c1461024d578063c3feda1714610255578063cf09e0d01461025d57600080fd5b806355b31b55116100f457806355b31b55146101c757806359abbfe4146101dc5780635e1a6c17146101f75780637847f1de1461020a57806384e077281461021d57600080fd5b806302d05d3f146101315780630ee2cb101461016157806310218f4d1461017257806322f3e2d414610187578063383e1a5e146101a4575b600080fd5b600054610144906001600160a01b031681565b6040516001600160a01b0390911681526020015b60405180910390f35b6000546001600160a01b0316610144565b610185610180366004610f29565b6102e9565b005b6004546101949060ff1681565b6040519015158152602001610158565b6101b76101b2366004610fe2565b610403565b6040516101589493929190611058565b6101cf610510565b6040516101589190611094565b60025460035460408051928352602083019190915201610158565b6101446102053660046110a7565b6105a2565b610185610218366004610f29565b6105cc565b61022561082c565b60405161015891906110c0565b6101cf6109b0565b610185610248366004610fe2565b610a3e565b610185610b5e565b610185610c22565b61026660025481565b604051908152602001610158565b610185610282366004610fe2565b610ce5565b6004546002546003546000546040805160ff909516151585526020850193909352918301526001600160a01b03166060820152608001610158565b6101b76102d0366004610fe2565b610dfe565b61026660035481565b60045460ff16610194565b6000546001600160a01b0316331461031c5760405162461bcd60e51b81526004016103139061110c565b60405180910390fd5b60045460ff166103665760405162461bcd60e51b815260206004820152601560248201527450726f6a656374206973206e6f742061637469766560581b6044820152606401610313565b60008151116103b75760405162461bcd60e51b815260206004820152601c60248201527f50726f6a65637420646174612063616e6e6f7420626520656d707479000000006044820152606401610313565b60016103c382826111e1565b5042600381905560405190815233907fc1756fd99ac9a2b1b22b5e701ddb022b897a002144d045b77ac35ce46610fef6906020015b60405180910390a250565b6001600160a01b0380821660009081526005602090815260408083208151608081019092528054909416815260018401805493946060948694859485949093929184019161045090611158565b80601f016020809104026020016040519081016040528092919081815260200182805461047c90611158565b80156104c95780601f1061049e576101008083540402835291602001916104c9565b820191906000526020600020905b8154815290600101906020018083116104ac57829003601f168201915b5050509183525050600282015460208083019190915260039092015460ff161515604091820152825191830151908301516060909301519199909850919650945092505050565b60606001805461051f90611158565b80601f016020809104026020016040519081016040528092919081815260200182805461054b90611158565b80156105985780601f1061056d57610100808354040283529160200191610598565b820191906000526020600020905b81548152906001019060200180831161057b57829003601f168201915b5050505050905090565b600681815481106105b257600080fd5b6000918252602090912001546001600160a01b0316905081565b60045460ff166106165760405162461bcd60e51b815260206004820152601560248201527450726f6a656374206973206e6f742061637469766560581b6044820152606401610313565b6000546001600160a01b031633036106835760405162461bcd60e51b815260206004820152602a60248201527f50726f6a6563742063726561746f722063616e6e6f74207375626d6974206a6f6044820152691a5b881c995c5d595cdd60b21b6064820152608401610313565b3360009081526005602052604090206003015460ff16156106e65760405162461bcd60e51b815260206004820152601b60248201527f4a6f696e207265717565737420616c72656164792065786973747300000000006044820152606401610313565b600081511161072e5760405162461bcd60e51b8152602060048201526014602482015273526f6c652063616e6e6f7420626520656d70747960601b6044820152606401610313565b6040805160808101825233808252602080830185815242848601526001606085018190526000938452600590925293909120825181546001600160a01b0319166001600160a01b0390911617815592519192919082019061078f90826111e1565b5060408281015160028301556060909201516003909101805460ff1916911515919091179055600680546001810182556000919091527ff652222313e28459528d920b65115c16c04f3efc82aaedc97be59f3f377c0d3f018054336001600160a01b0319909116811790915590517fe4d6c018abd0178d4bce0856089ef1876318617b97a1d700bb98506598ab0afc906103f890849042906112a0565b60606000805b600654811015610899576005600060068381548110610853576108536112c2565b60009182526020808320909101546001600160a01b0316835282019290925260400190206003015460ff1615610891578161088d816112d8565b9250505b600101610832565b5060008167ffffffffffffffff8111156108b5576108b5610f13565b6040519080825280602002602001820160405280156108de578160200160208202803683370190505b5090506000805b6006548110156109a7576005600060068381548110610906576109066112c2565b60009182526020808320909101546001600160a01b0316835282019290925260400190206003015460ff161561099f5760068181548110610949576109496112c2565b9060005260206000200160009054906101000a90046001600160a01b0316838381518110610979576109796112c2565b6001600160a01b03909216602092830291909101909101528161099b816112d8565b9250505b6001016108e5565b50909392505050565b600180546109bd90611158565b80601f01602080910402602001604051908101604052809291908181526020018280546109e990611158565b8015610a365780601f10610a0b57610100808354040283529160200191610a36565b820191906000526020600020905b815481529060010190602001808311610a1957829003601f168201915b505050505081565b6000546001600160a01b03163314610a685760405162461bcd60e51b81526004016103139061110c565b6001600160a01b03811660009081526005602052604090206003015460ff16610ad35760405162461bcd60e51b815260206004820152601b60248201527f4a6f696e207265717565737420646f6573206e6f7420657869737400000000006044820152606401610313565b6001600160a01b038116600090815260056020526040812080546001600160a01b031916815590610b076001830182610ebd565b5060006002820155600301805460ff1916905560405142815233906001600160a01b038316907f1a69e67d1be897d0ca0cf1517b4d17e345b4272a80bc900f9fe8e96f261ca1db906020015b60405180910390a350565b6000546001600160a01b03163314610b885760405162461bcd60e51b81526004016103139061110c565b60045460ff16610bda5760405162461bcd60e51b815260206004820152601b60248201527f50726f6a65637420697320616c726561647920696e61637469766500000000006044820152606401610313565b6004805460ff1916905542600381905560405190815233907f17064d72ee4a5901e55dfa45024ea8f67cdb4895ba6364ab2f8e7223f642ad36906020015b60405180910390a2565b6000546001600160a01b03163314610c4c5760405162461bcd60e51b81526004016103139061110c565b60045460ff1615610c9f5760405162461bcd60e51b815260206004820152601960248201527f50726f6a65637420697320616c726561647920616374697665000000000000006044820152606401610313565b6004805460ff1916600117905542600381905560405133917fb351ba71ddc1d2bf39667cebde99fb92eb26b9f418d5049ba0200888ba81071591610c1891815260200190565b6000546001600160a01b03163314610d0f5760405162461bcd60e51b81526004016103139061110c565b6001600160a01b03811660009081526005602052604090206003015460ff16610d7a5760405162461bcd60e51b815260206004820152601b60248201527f4a6f696e207265717565737420646f6573206e6f7420657869737400000000006044820152606401610313565b6001600160a01b038116600090815260056020526040812080546001600160a01b031916815590610dae6001830182610ebd565b5060006002820155600301805460ff1916905560405142815233906001600160a01b038316907f423eb00b6a18c3ecfc2170a0e40ef0bad995279070614ba2e4be1b94f67eb88890602001610b53565b600560205260009081526040902080546001820180546001600160a01b039092169291610e2a90611158565b80601f0160208091040260200160405190810160405280929190818152602001828054610e5690611158565b8015610ea35780601f10610e7857610100808354040283529160200191610ea3565b820191906000526020600020905b815481529060010190602001808311610e8657829003601f168201915b50505050600283015460039093015491929160ff16905084565b508054610ec990611158565b6000825580601f10610ed9575050565b601f016020900490600052602060002090810190610ef79190610efa565b50565b5b80821115610f0f5760008155600101610efb565b5090565b634e487b7160e01b600052604160045260246000fd5b600060208284031215610f3b57600080fd5b813567ffffffffffffffff811115610f5257600080fd5b8201601f81018413610f6357600080fd5b803567ffffffffffffffff811115610f7d57610f7d610f13565b604051601f8201601f19908116603f0116810167ffffffffffffffff81118282101715610fac57610fac610f13565b604052818152828201602001861015610fc457600080fd5b81602084016020830137600091810160200191909152949350505050565b600060208284031215610ff457600080fd5b81356001600160a01b038116811461100b57600080fd5b9392505050565b6000815180845260005b818110156110385760208185018101518683018201520161101c565b506000602082860101526020601f19601f83011685010191505092915050565b6001600160a01b038516815260806020820181905260009061107c90830186611012565b60408301949094525090151560609091015292915050565b60208152600061100b6020830184611012565b6000602082840312156110b957600080fd5b5035919050565b602080825282518282018190526000918401906040840190835b818110156111015783516001600160a01b03168352602093840193909201916001016110da565b509095945050505050565b6020808252602c908201527f4f6e6c792070726f6a6563742063726561746f722063616e20706572666f726d60408201526b103a3434b99030b1ba34b7b760a11b606082015260800190565b600181811c9082168061116c57607f821691505b60208210810361118c57634e487b7160e01b600052602260045260246000fd5b50919050565b601f8211156111dc57806000526020600020601f840160051c810160208510156111b95750805b601f840160051c820191505b818110156111d957600081556001016111c5565b50505b505050565b815167ffffffffffffffff8111156111fb576111fb610f13565b61120f816112098454611158565b84611192565b6020601f821160018114611243576000831561122b5750848201515b600019600385901b1c1916600184901b1784556111d9565b600084815260208120601f198516915b828110156112735787850151825560209485019460019092019101611253565b50848210156112915786840151600019600387901b60f8161c191681555b50505050600190811b01905550565b6040815260006112b36040830185611012565b90508260208301529392505050565b634e487b7160e01b600052603260045260246000fd5b6000600182016112f857634e487b7160e01b600052601160045260246000fd5b506001019056fea2646970667358221220bec9471bb23b6e25da9c64e7d34995b3e371c8436ddc9fd588e51486983342ff64736f6c634300081c0033",
  "linkReferences": {},
  "deployedLinkReferences": {}
}