{
  "_format": "hh-sol-artifact-1",
  "contractName": "Project",
  "sourceName": "contracts/Project.sol",
  "abi": [
    {
      "inputs": [
        {
          "internalType": "address",
          "name": "_creator",
          "type": "address"
        },
        {
          "internalType": "string",
          "name": "_objective",
          "type": "string"
        },
        {
          "internalType": "string[]",
          "name": "_availableRoles",
          "type": "string[]"
        },
        {
          "internalType": "string",
          "name": "_ownerRole",
          "type": "string"
        }
      ],
      "stateMutability": "nonpayable",
      "type": "constructor"
    },
    {
      "anonymous": false,
      "inputs": [
        {
          "indexed": true,
          "internalType": "address",
          "name": "member",
          "type": "address"
        },
        {
          "indexed": false,
          "internalType": "string",
          "name": "role",
          "type": "string"
        },
        {
          "indexed": false,
          "internalType": "uint256",
          "name": "timestamp",
          "type": "uint256"
        }
      ],
      "name": "MemberAdded",
      "type": "event"
    },
    {
      "anonymous": false,
      "inputs": [
        {
          "indexed": true,
          "internalType": "address",
          "name": "member",
          "type": "address"
        }
      ],
      "name": "MemberRemoved",
      "type": "event"
    },
    {
      "anonymous": false,
      "inputs": [
        {
          "indexed": true,
          "internalType": "address",
          "name": "member",
          "type": "address"
        },
        {
          "indexed": false,
          "internalType": "string",
          "name": "oldRole",
          "type": "string"
        },
        {
          "indexed": false,
          "internalType": "string",
          "name": "newRole",
          "type": "string"
        }
      ],
      "name": "MemberRoleUpdated",
      "type": "event"
    },
    {
      "anonymous": false,
      "inputs": [
        {
          "indexed": false,
          "internalType": "string",
          "name": "oldObjective",
          "type": "string"
        },
        {
          "indexed": false,
          "internalType": "string",
          "name": "newObjective",
          "type": "string"
        }
      ],
      "name": "ObjectiveUpdated",
      "type": "event"
    },
    {
      "anonymous": false,
      "inputs": [
        {
          "indexed": false,
          "internalType": "uint256",
          "name": "timestamp",
          "type": "uint256"
        }
      ],
      "name": "ProjectFinished",
      "type": "event"
    },
    {
      "anonymous": false,
      "inputs": [
        {
          "indexed": false,
          "internalType": "uint256",
          "name": "timestamp",
          "type": "uint256"
        }
      ],
      "name": "ProjectReactivated",
      "type": "event"
    },
    {
      "inputs": [
        {
          "internalType": "address",
          "name": "_member",
          "type": "address"
        },
        {
          "internalType": "string",
          "name": "_role",
          "type": "string"
        }
      ],
      "name": "addMember",
      "outputs": [],
      "stateMutability": "nonpayable",
      "type": "function"
    },
    {
      "inputs": [
        {
          "internalType": "uint256",
          "name": "",
          "type": "uint256"
        }
      ],
      "name": "availableRoles",
      "outputs": [
        {
          "internalType": "string",
          "name": "",
          "type": "string"
        }
      ],
      "stateMutability": "view",
      "type": "function"
    },
    {
      "inputs": [],
      "name": "createdAt",
      "outputs": [
        {
          "internalType": "uint256",
          "name": "",
          "type": "uint256"
        }
      ],
      "stateMutability": "view",
      "type": "function"
    },
    {
      "inputs": [],
      "name": "creator",
      "outputs": [
        {
          "internalType": "address",
          "name": "",
          "type": "address"
        }
      ],
      "stateMutability": "view",
      "type": "function"
    },
    {
      "inputs": [],
      "name": "finishProject",
      "outputs": [],
      "stateMutability": "nonpayable",
      "type": "function"
    },
    {
      "inputs": [],
      "name": "finished",
      "outputs": [
        {
          "internalType": "bool",
          "name": "",
          "type": "bool"
        }
      ],
      "stateMutability": "view",
      "type": "function"
    },
    {
      "inputs": [],
      "name": "finishedAt",
      "outputs": [
        {
          "internalType": "uint256",
          "name": "",
          "type": "uint256"
        }
      ],
      "stateMutability": "view",
      "type": "function"
    },
    {
      "inputs": [],
      "name": "getActiveMemberCount",
      "outputs": [
        {
          "internalType": "uint256",
          "name": "",
          "type": "uint256"
        }
      ],
      "stateMutability": "view",
      "type": "function"
    },
    {
      "inputs": [],
      "name": "getAllMembers",
      "outputs": [
        {
          "internalType": "address[]",
          "name": "",
          "type": "address[]"
        }
      ],
      "stateMutability": "view",
      "type": "function"
    },
    {
      "inputs": [],
      "name": "getAvailableRoles",
      "outputs": [
        {
          "internalType": "string[]",
          "name": "",
          "type": "string[]"
        }
      ],
      "stateMutability": "view",
      "type": "function"
    },
    {
      "inputs": [],
      "name": "getFinishedAt",
      "outputs": [
        {
          "internalType": "uint256",
          "name": "",
          "type": "uint256"
        }
      ],
      "stateMutability": "view",
      "type": "function"
    },
    {
      "inputs": [
        {
          "internalType": "address",
          "name": "_member",
          "type": "address"
        }
      ],
      "name": "getMember",
      "outputs": [
        {
          "internalType": "address",
          "name": "memberAddress",
          "type": "address"
        },
        {
          "internalType": "string",
          "name": "role",
          "type": "string"
        },
        {
          "internalType": "uint256",
          "name": "joinedAt",
          "type": "uint256"
        },
        {
          "internalType": "bool",
          "name": "isActive",
          "type": "bool"
        }
      ],
      "stateMutability": "view",
      "type": "function"
    },
    {
      "inputs": [
        {
          "internalType": "address",
          "name": "_member",
          "type": "address"
        }
      ],
      "name": "getMemberRole",
      "outputs": [
        {
          "internalType": "string",
          "name": "",
          "type": "string"
        }
      ],
      "stateMutability": "view",
      "type": "function"
    },
    {
      "inputs": [],
      "name": "getName",
      "outputs": [
        {
          "internalType": "string",
          "name": "",
          "type": "string"
        }
      ],
      "stateMutability": "view",
      "type": "function"
    },
    {
      "inputs": [],
      "name": "getOwner",
      "outputs": [
        {
          "internalType": "address",
          "name": "",
          "type": "address"
        }
      ],
      "stateMutability": "view",
      "type": "function"
    },
    {
      "inputs": [],
      "name": "getOwnerRole",
      "outputs": [
        {
          "internalType": "string",
          "name": "",
          "type": "string"
        }
      ],
      "stateMutability": "view",
      "type": "function"
    },
    {
      "inputs": [],
      "name": "getProjectStatus",
      "outputs": [
        {
          "internalType": "bool",
          "name": "projectFinished",
          "type": "bool"
        },
        {
          "internalType": "uint256",
          "name": "finishedTimestamp",
          "type": "uint256"
        },
        {
          "internalType": "uint256",
          "name": "createdTimestamp",
          "type": "uint256"
        }
      ],
      "stateMutability": "view",
      "type": "function"
    },
    {
      "inputs": [],
      "name": "isFinished",
      "outputs": [
        {
          "internalType": "bool",
          "name": "",
          "type": "bool"
        }
      ],
      "stateMutability": "view",
      "type": "function"
    },
    {
      "inputs": [
        {
          "internalType": "address",
          "name": "_address",
          "type": "address"
        }
      ],
      "name": "isMember",
      "outputs": [
        {
          "internalType": "bool",
          "name": "",
          "type": "bool"
        }
      ],
      "stateMutability": "view",
      "type": "function"
    },
    {
      "inputs": [
        {
          "internalType": "uint256",
          "name": "",
          "type": "uint256"
        }
      ],
      "name": "memberAddresses",
      "outputs": [
        {
          "internalType": "address",
          "name": "",
          "type": "address"
        }
      ],
      "stateMutability": "view",
      "type": "function"
    },
    {
      "inputs": [
        {
          "internalType": "address",
          "name": "",
          "type": "address"
        }
      ],
      "name": "members",
      "outputs": [
        {
          "internalType": "address",
          "name": "memberAddress",
          "type": "address"
        },
        {
          "internalType": "string",
          "name": "role",
          "type": "string"
        },
        {
          "internalType": "uint256",
          "name": "joinedAt",
          "type": "uint256"
        },
        {
          "internalType": "bool",
          "name": "isActive",
          "type": "bool"
        }
      ],
      "stateMutability": "view",
      "type": "function"
    },
    {
      "inputs": [],
      "name": "objective",
      "outputs": [
        {
          "internalType": "string",
          "name": "",
          "type": "string"
        }
      ],
      "stateMutability": "view",
      "type": "function"
    },
    {
      "inputs": [],
      "name": "reactivateProject",
      "outputs": [],
      "stateMutability": "nonpayable",
      "type": "function"
    },
    {
      "inputs": [
        {
          "internalType": "address",
          "name": "_member",
          "type": "address"
        }
      ],
      "name": "removeMember",
      "outputs": [],
      "stateMutability": "nonpayable",
      "type": "function"
    },
    {
      "inputs": [
        {
          "internalType": "address",
          "name": "_member",
          "type": "address"
        },
        {
          "internalType": "string",
          "name": "_newRole",
          "type": "string"
        }
      ],
      "name": "updateMemberRole",
      "outputs": [],
      "stateMutability": "nonpayable",
      "type": "function"
    },
    {
      "inputs": [
        {
          "internalType": "string",
          "name": "_newRole",
          "type": "string"
        }
      ],
      "name": "updateMyRole",
      "outputs": [],
      "stateMutability": "nonpayable",
      "type": "function"
    },
    {
      "inputs": [
        {
          "internalType": "string",
          "name": "_newObjective",
          "type": "string"
        }
      ],
      "name": "updateObjective",
      "outputs": [],
      "stateMutability": "nonpayable",
      "type": "function"
    },
    {
      "inputs": [
        {
          "internalType": "string",
          "name": "",
          "type": "string"
        }
      ],
      "name": "validRoles",
      "outputs": [
        {
          "internalType": "bool",
          "name": "",
          "type": "bool"
        }
      ],
      "stateMutability": "view",
      "type": "function"
    }
  ],
  "bytecode": "0x608060405234801561001057600080fd5b50604051613c4e380380613c4e833981810160405281019061003291906105de565b836000806101000a81548173ffffffffffffffffffffffffffffffffffffffff021916908373ffffffffffffffffffffffffffffffffffffffff160217905550826001908161008191906108ba565b50426003819055506000600460006101000a81548160ff021916908315150217905550600060058190555060005b82518110156101655760028382815181106100cd576100cc61098c565b5b602002602001015190806001815401808255809150506001900390600052602060002001600090919091909150908161010691906108ba565b506001600784838151811061011e5761011d61098c565b5b602002602001015160405161013391906109f7565b908152602001604051809103902060006101000a81548160ff02191690831515021790555080806001019150506100af565b5060405180608001604052808573ffffffffffffffffffffffffffffffffffffffff16815260200182815260200142815260200160011515815250600660008673ffffffffffffffffffffffffffffffffffffffff1673ffffffffffffffffffffffffffffffffffffffff16815260200190815260200160002060008201518160000160006101000a81548173ffffffffffffffffffffffffffffffffffffffff021916908373ffffffffffffffffffffffffffffffffffffffff160217905550602082015181600101908161023b91906108ba565b506040820151816002015560608201518160030160006101000a81548160ff0219169083151502179055509050506008849080600181540180825580915050600190039060005260206000200160009091909190916101000a81548173ffffffffffffffffffffffffffffffffffffffff021916908373ffffffffffffffffffffffffffffffffffffffff1602179055508373ffffffffffffffffffffffffffffffffffffffff167fac4f9610b174640b0a902ce555faa384cc9c9d291750f76e476f26f97bd079b48242604051610314929190610a67565b60405180910390a250505050610a97565b6000604051905090565b600080fd5b600080fd5b600073ffffffffffffffffffffffffffffffffffffffff82169050919050565b600061036482610339565b9050919050565b61037481610359565b811461037f57600080fd5b50565b6000815190506103918161036b565b92915050565b600080fd5b600080fd5b6000601f19601f8301169050919050565b7f4e487b7100000000000000000000000000000000000000000000000000000000600052604160045260246000fd5b6103ea826103a1565b810181811067ffffffffffffffff82111715610409576104086103b2565b5b80604052505050565b600061041c610325565b905061042882826103e1565b919050565b600067ffffffffffffffff821115610448576104476103b2565b5b610451826103a1565b9050602081019050919050565b60005b8381101561047c578082015181840152602081019050610461565b60008484015250505050565b600061049b6104968461042d565b610412565b9050828152602081018484840111156104b7576104b661039c565b5b6104c284828561045e565b509392505050565b600082601f8301126104df576104de610397565b5b81516104ef848260208601610488565b91505092915050565b600067ffffffffffffffff821115610513576105126103b2565b5b602082029050602081019050919050565b600080fd5b600061053c610537846104f8565b610412565b9050808382526020820190506020840283018581111561055f5761055e610524565b5b835b818110156105a657805167ffffffffffffffff81111561058457610583610397565b5b80860161059189826104ca565b85526020850194505050602081019050610561565b5050509392505050565b600082601f8301126105c5576105c4610397565b5b81516105d5848260208601610529565b91505092915050565b600080600080608085870312156105f8576105f761032f565b5b600061060687828801610382565b945050602085015167ffffffffffffffff81111561062757610626610334565b5b610633878288016104ca565b935050604085015167ffffffffffffffff81111561065457610653610334565b5b610660878288016105b0565b925050606085015167ffffffffffffffff81111561068157610680610334565b5b61068d878288016104ca565b91505092959194509250565b600081519050919050565b7f4e487b7100000000000000000000000000000000000000000000000000000000600052602260045260246000fd5b600060028204905060018216806106eb57607f821691505b6020821081036106fe576106fd6106a4565b5b50919050565b60008190508160005260206000209050919050565b60006020601f8301049050919050565b600082821b905092915050565b6000600883026107667fffffffffffffffffffffffffffffffffffffffffffffffffffffffffffffffff82610729565b6107708683610729565b95508019841693508086168417925050509392505050565b6000819050919050565b6000819050919050565b60006107b76107b26107ad84610788565b610792565b610788565b9050919050565b6000819050919050565b6107d18361079c565b6107e56107dd826107be565b848454610736565b825550505050565b600090565b6107fa6107ed565b6108058184846107c8565b505050565b5b818110156108295761081e6000826107f2565b60018101905061080b565b5050565b601f82111561086e5761083f81610704565b61084884610719565b81016020851015610857578190505b61086b61086385610719565b83018261080a565b50505b505050565b600082821c905092915050565b600061089160001984600802610873565b1980831691505092915050565b60006108aa8383610880565b9150826002028217905092915050565b6108c382610699565b67ffffffffffffffff8111156108dc576108db6103b2565b5b6108e682546106d3565b6108f182828561082d565b600060209050601f8311600181146109245760008415610912578287015190505b61091c858261089e565b865550610984565b601f19841661093286610704565b60005b8281101561095a57848901518255600182019150602085019450602081019050610935565b868310156109775784890151610973601f891682610880565b8355505b6001600288020188555050505b505050505050565b7f4e487b7100000000000000000000000000000000000000000000000000000000600052603260045260246000fd5b600081905092915050565b60006109d182610699565b6109db81856109bb565b93506109eb81856020860161045e565b80840191505092915050565b6000610a0382846109c6565b915081905092915050565b600082825260208201905092915050565b6000610a2a82610699565b610a348185610a0e565b9350610a4481856020860161045e565b610a4d816103a1565b840191505092915050565b610a6181610788565b82525050565b60006040820190508181036000830152610a818185610a1f565b9050610a906020830184610a58565b9392505050565b6131a880610aa66000396000f3fe608060405234801561001057600080fd5b50600436106101c45760003560e01c806369788c8e116100f9578063bef4876b11610097578063cc4e629911610071578063cc4e6299146104db578063cf09e0d01461050b578063dacb4f8d14610529578063e7aa3afc14610545576101c4565b8063bef4876b14610497578063c127c247146104b5578063c3feda17146104d1576101c4565b8063893d20e8116100d3578063893d20e81461040f578063a230c5241461042d578063b2d6e7401461045d578063be7d4cab14610479576101c4565b806369788c8e146103c95780637b352962146103d35780637c0f6b35146103f1576101c4565b806322faa41f1161016657806347d54bff1161014057806347d54bff1461033f5780635076ef471461035d57806355ff58d41461037b5780636963974914610399576101c4565b806322faa41f146102be57806326ecb087146102dc5780632ada25961461030c576101c4565b80630b1ca49a116101a25780630b1ca49a1461024a57806314f1586a14610266578063155f79111461028457806317d7de7c146102a0576101c4565b806302d05d3f146101c957806306a7c8de146101e757806308ae4b0c14610217575b600080fd5b6101d1610565565b6040516101de919061222d565b60405180910390f35b61020160048036038101906101fc9190612292565b610589565b60405161020e919061234f565b60405180910390f35b610231600480360381019061022c919061239d565b610635565b60405161024194939291906123f4565b60405180910390f35b610264600480360381019061025f919061239d565b61071a565b005b61026e610b3d565b60405161027b919061234f565b60405180910390f35b61029e60048036038101906102999190612575565b610bcb565b005b6102a8610eeb565b6040516102b5919061234f565b60405180910390f35b6102c6610f7d565b6040516102d391906125be565b60405180910390f35b6102f660048036038101906102f19190612575565b610f8a565b60405161030391906125d9565b60405180910390f35b6103266004803603810190610321919061239d565b610fc0565b60405161033694939291906123f4565b60405180910390f35b610347611146565b60405161035491906125be565b60405180910390f35b61036561114c565b6040516103729190612700565b60405180910390f35b610383611225565b604051610390919061234f565b60405180910390f35b6103b360048036038101906103ae919061239d565b611318565b6040516103c0919061234f565b60405180910390f35b6103d161147b565b005b6103db6115b4565b6040516103e891906125d9565b60405180910390f35b6103f96115cb565b60405161040691906127e0565b60405180910390f35b610417611659565b604051610424919061222d565b60405180910390f35b6104476004803603810190610442919061239d565b611682565b60405161045491906125d9565b60405180910390f35b61047760048036038101906104729190612802565b6116db565b005b610481611a29565b60405161048e91906125be565b60405180910390f35b61049f611a33565b6040516104ac91906125d9565b60405180910390f35b6104cf60048036038101906104ca9190612802565b611a46565b005b6104d9611e4a565b005b6104f560048036038101906104f09190612292565b611f83565b604051610502919061222d565b60405180910390f35b610513611fc2565b60405161052091906125be565b60405180910390f35b610543600480360381019061053e9190612575565b611fc8565b005b61054d6121c6565b60405161055c9392919061285e565b60405180910390f35b60008054906101000a900473ffffffffffffffffffffffffffffffffffffffff1681565b6002818154811061059957600080fd5b9060005260206000200160009150905080546105b4906128c4565b80601f01602080910402602001604051908101604052809291908181526020018280546105e0906128c4565b801561062d5780601f106106025761010080835404028352916020019161062d565b820191906000526020600020905b81548152906001019060200180831161061057829003601f168201915b505050505081565b60066020528060005260406000206000915090508060000160009054906101000a900473ffffffffffffffffffffffffffffffffffffffff169080600101805461067e906128c4565b80601f01602080910402602001604051908101604052809291908181526020018280546106aa906128c4565b80156106f75780601f106106cc576101008083540402835291602001916106f7565b820191906000526020600020905b8154815290600101906020018083116106da57829003601f168201915b5050505050908060020154908060030160009054906101000a900460ff16905084565b60008054906101000a900473ffffffffffffffffffffffffffffffffffffffff1673ffffffffffffffffffffffffffffffffffffffff163373ffffffffffffffffffffffffffffffffffffffff16146107a8576040517f08c379a000000000000000000000000000000000000000000000000000000000815260040161079f90612967565b60405180910390fd5b600460009054906101000a900460ff16156107f8576040517f08c379a00000000000000000000000000000000000000000000000000000000081526004016107ef906129d3565b60405180910390fd5b600660008273ffffffffffffffffffffffffffffffffffffffff1673ffffffffffffffffffffffffffffffffffffffff16815260200190815260200160002060030160009054906101000a900460ff16610887576040517f08c379a000000000000000000000000000000000000000000000000000000000815260040161087e90612a3f565b60405180910390fd5b60008054906101000a900473ffffffffffffffffffffffffffffffffffffffff1673ffffffffffffffffffffffffffffffffffffffff168173ffffffffffffffffffffffffffffffffffffffff1603610915576040517f08c379a000000000000000000000000000000000000000000000000000000000815260040161090c90612aab565b60405180910390fd5b6000600660008373ffffffffffffffffffffffffffffffffffffffff1673ffffffffffffffffffffffffffffffffffffffff16815260200190815260200160002060030160006101000a81548160ff02191690831515021790555060005b600880549050811015610af6578173ffffffffffffffffffffffffffffffffffffffff16600882815481106109ab576109aa612acb565b5b9060005260206000200160009054906101000a900473ffffffffffffffffffffffffffffffffffffffff1673ffffffffffffffffffffffffffffffffffffffff1603610ae95760086001600880549050610a059190612b29565b81548110610a1657610a15612acb565b5b9060005260206000200160009054906101000a900473ffffffffffffffffffffffffffffffffffffffff1660088281548110610a5557610a54612acb565b5b9060005260206000200160006101000a81548173ffffffffffffffffffffffffffffffffffffffff021916908373ffffffffffffffffffffffffffffffffffffffff1602179055506008805480610aaf57610aae612b5d565b5b6001900381819060005260206000200160006101000a81549073ffffffffffffffffffffffffffffffffffffffff02191690559055610af6565b8080600101915050610973565b508073ffffffffffffffffffffffffffffffffffffffff167f6e76fb4c77256006d9c38ec7d82b45a8c8f3c27b1d6766fffc42dfb8de68449260405160405180910390a250565b60018054610b4a906128c4565b80601f0160208091040260200160405190810160405280929190818152602001828054610b76906128c4565b8015610bc35780601f10610b9857610100808354040283529160200191610bc3565b820191906000526020600020905b815481529060010190602001808311610ba657829003601f168201915b505050505081565b80600781604051610bdc9190612bc8565b908152602001604051809103902060009054906101000a900460ff16610c37576040517f08c379a0000000000000000000000000000000000000000000000000000000008152600401610c2e90612c2b565b60405180910390fd5b600460009054906101000a900460ff1615610c87576040517f08c379a0000000000000000000000000000000000000000000000000000000008152600401610c7e906129d3565b60405180910390fd5b60008054906101000a900473ffffffffffffffffffffffffffffffffffffffff1673ffffffffffffffffffffffffffffffffffffffff163373ffffffffffffffffffffffffffffffffffffffff1614610d15576040517f08c379a0000000000000000000000000000000000000000000000000000000008152600401610d0c90612cbd565b60405180910390fd5b6000600660008060009054906101000a900473ffffffffffffffffffffffffffffffffffffffff1673ffffffffffffffffffffffffffffffffffffffff1673ffffffffffffffffffffffffffffffffffffffff1681526020019081526020016000206001018054610d85906128c4565b80601f0160208091040260200160405190810160405280929190818152602001828054610db1906128c4565b8015610dfe5780601f10610dd357610100808354040283529160200191610dfe565b820191906000526020600020905b815481529060010190602001808311610de157829003601f168201915b5050505050905082600660008060009054906101000a900473ffffffffffffffffffffffffffffffffffffffff1673ffffffffffffffffffffffffffffffffffffffff1673ffffffffffffffffffffffffffffffffffffffff1681526020019081526020016000206001019081610e759190612e89565b5060008054906101000a900473ffffffffffffffffffffffffffffffffffffffff1673ffffffffffffffffffffffffffffffffffffffff167f2b6b575197263ee88365c8324c9c92e3869de9adbe176c769009afef44d8b0978285604051610ede929190612f5b565b60405180910390a2505050565b606060018054610efa906128c4565b80601f0160208091040260200160405190810160405280929190818152602001828054610f26906128c4565b8015610f735780601f10610f4857610100808354040283529160200191610f73565b820191906000526020600020905b815481529060010190602001808311610f5657829003601f168201915b5050505050905090565b6000600880549050905090565b6007818051602081018201805184825260208301602085012081835280955050505050506000915054906101000a900460ff1681565b600060606000806000600660008773ffffffffffffffffffffffffffffffffffffffff1673ffffffffffffffffffffffffffffffffffffffff1681526020019081526020016000206040518060800160405290816000820160009054906101000a900473ffffffffffffffffffffffffffffffffffffffff1673ffffffffffffffffffffffffffffffffffffffff1673ffffffffffffffffffffffffffffffffffffffff168152602001600182018054611079906128c4565b80601f01602080910402602001604051908101604052809291908181526020018280546110a5906128c4565b80156110f25780601f106110c7576101008083540402835291602001916110f2565b820191906000526020600020905b8154815290600101906020018083116110d557829003601f168201915b50505050508152602001600282015481526020016003820160009054906101000a900460ff161515151581525050905080600001518160200151826040015183606001519450945094509450509193509193565b60055481565b60606002805480602002602001604051908101604052809291908181526020016000905b8282101561121c57838290600052602060002001805461118f906128c4565b80601f01602080910402602001604051908101604052809291908181526020018280546111bb906128c4565b80156112085780601f106111dd57610100808354040283529160200191611208565b820191906000526020600020905b8154815290600101906020018083116111eb57829003601f168201915b505050505081526020019060010190611170565b50505050905090565b6060600660008060009054906101000a900473ffffffffffffffffffffffffffffffffffffffff1673ffffffffffffffffffffffffffffffffffffffff1673ffffffffffffffffffffffffffffffffffffffff1681526020019081526020016000206001018054611295906128c4565b80601f01602080910402602001604051908101604052809291908181526020018280546112c1906128c4565b801561130e5780601f106112e35761010080835404028352916020019161130e565b820191906000526020600020905b8154815290600101906020018083116112f157829003601f168201915b5050505050905090565b6060600660008373ffffffffffffffffffffffffffffffffffffffff1673ffffffffffffffffffffffffffffffffffffffff16815260200190815260200160002060030160009054906101000a900460ff166113a9576040517f08c379a00000000000000000000000000000000000000000000000000000000081526004016113a090612a3f565b60405180910390fd5b600660008373ffffffffffffffffffffffffffffffffffffffff1673ffffffffffffffffffffffffffffffffffffffff16815260200190815260200160002060010180546113f6906128c4565b80601f0160208091040260200160405190810160405280929190818152602001828054611422906128c4565b801561146f5780601f106114445761010080835404028352916020019161146f565b820191906000526020600020905b81548152906001019060200180831161145257829003601f168201915b50505050509050919050565b60008054906101000a900473ffffffffffffffffffffffffffffffffffffffff1673ffffffffffffffffffffffffffffffffffffffff163373ffffffffffffffffffffffffffffffffffffffff1614611509576040517f08c379a000000000000000000000000000000000000000000000000000000000815260040161150090612967565b60405180910390fd5b600460009054906101000a900460ff1615611559576040517f08c379a0000000000000000000000000000000000000000000000000000000008152600401611550906129d3565b60405180910390fd5b6001600460006101000a81548160ff021916908315150217905550426005819055507f5032973ebecb355d37badc06a2e7e34401c2b21eaade274aa03b3730fa18ff8a426040516115aa91906125be565b60405180910390a1565b6000600460009054906101000a900460ff16905090565b6060600880548060200260200160405190810160405280929190818152602001828054801561164f57602002820191906000526020600020905b8160009054906101000a900473ffffffffffffffffffffffffffffffffffffffff1673ffffffffffffffffffffffffffffffffffffffff1681526020019060010190808311611605575b5050505050905090565b60008060009054906101000a900473ffffffffffffffffffffffffffffffffffffffff16905090565b6000600660008373ffffffffffffffffffffffffffffffffffffffff1673ffffffffffffffffffffffffffffffffffffffff16815260200190815260200160002060030160009054906101000a900460ff169050919050565b60008054906101000a900473ffffffffffffffffffffffffffffffffffffffff1673ffffffffffffffffffffffffffffffffffffffff163373ffffffffffffffffffffffffffffffffffffffff1614611769576040517f08c379a000000000000000000000000000000000000000000000000000000000815260040161176090612967565b60405180910390fd5b8060078160405161177a9190612bc8565b908152602001604051809103902060009054906101000a900460ff166117d5576040517f08c379a00000000000000000000000000000000000000000000000000000000081526004016117cc90612c2b565b60405180910390fd5b600460009054906101000a900460ff1615611825576040517f08c379a000000000000000000000000000000000000000000000000000000000815260040161181c906129d3565b60405180910390fd5b600660008473ffffffffffffffffffffffffffffffffffffffff1673ffffffffffffffffffffffffffffffffffffffff16815260200190815260200160002060030160009054906101000a900460ff166118b4576040517f08c379a00000000000000000000000000000000000000000000000000000000081526004016118ab90612a3f565b60405180910390fd5b6000600660008573ffffffffffffffffffffffffffffffffffffffff1673ffffffffffffffffffffffffffffffffffffffff1681526020019081526020016000206001018054611903906128c4565b80601f016020809104026020016040519081016040528092919081815260200182805461192f906128c4565b801561197c5780601f106119515761010080835404028352916020019161197c565b820191906000526020600020905b81548152906001019060200180831161195f57829003601f168201915b5050505050905082600660008673ffffffffffffffffffffffffffffffffffffffff1673ffffffffffffffffffffffffffffffffffffffff16815260200190815260200160002060010190816119d29190612e89565b508373ffffffffffffffffffffffffffffffffffffffff167f2b6b575197263ee88365c8324c9c92e3869de9adbe176c769009afef44d8b0978285604051611a1b929190612f5b565b60405180910390a250505050565b6000600554905090565b600460009054906101000a900460ff1681565b60008054906101000a900473ffffffffffffffffffffffffffffffffffffffff1673ffffffffffffffffffffffffffffffffffffffff163373ffffffffffffffffffffffffffffffffffffffff1614611ad4576040517f08c379a0000000000000000000000000000000000000000000000000000000008152600401611acb90612967565b60405180910390fd5b80600781604051611ae59190612bc8565b908152602001604051809103902060009054906101000a900460ff16611b40576040517f08c379a0000000000000000000000000000000000000000000000000000000008152600401611b3790612c2b565b60405180910390fd5b600460009054906101000a900460ff1615611b90576040517f08c379a0000000000000000000000000000000000000000000000000000000008152600401611b87906129d3565b60405180910390fd5b600073ffffffffffffffffffffffffffffffffffffffff168373ffffffffffffffffffffffffffffffffffffffff1603611bff576040517f08c379a0000000000000000000000000000000000000000000000000000000008152600401611bf690612fde565b60405180910390fd5b600660008473ffffffffffffffffffffffffffffffffffffffff1673ffffffffffffffffffffffffffffffffffffffff16815260200190815260200160002060030160009054906101000a900460ff1615611c8f576040517f08c379a0000000000000000000000000000000000000000000000000000000008152600401611c869061304a565b60405180910390fd5b60405180608001604052808473ffffffffffffffffffffffffffffffffffffffff16815260200183815260200142815260200160011515815250600660008573ffffffffffffffffffffffffffffffffffffffff1673ffffffffffffffffffffffffffffffffffffffff16815260200190815260200160002060008201518160000160006101000a81548173ffffffffffffffffffffffffffffffffffffffff021916908373ffffffffffffffffffffffffffffffffffffffff1602179055506020820151816001019081611d649190612e89565b506040820151816002015560608201518160030160006101000a81548160ff0219169083151502179055509050506008839080600181540180825580915050600190039060005260206000200160009091909190916101000a81548173ffffffffffffffffffffffffffffffffffffffff021916908373ffffffffffffffffffffffffffffffffffffffff1602179055508273ffffffffffffffffffffffffffffffffffffffff167fac4f9610b174640b0a902ce555faa384cc9c9d291750f76e476f26f97bd079b48342604051611e3d92919061306a565b60405180910390a2505050565b60008054906101000a900473ffffffffffffffffffffffffffffffffffffffff1673ffffffffffffffffffffffffffffffffffffffff163373ffffffffffffffffffffffffffffffffffffffff1614611ed8576040517f08c379a0000000000000000000000000000000000000000000000000000000008152600401611ecf90612967565b60405180910390fd5b600460009054906101000a900460ff16611f27576040517f08c379a0000000000000000000000000000000000000000000000000000000008152600401611f1e906130e6565b60405180910390fd5b6000600460006101000a81548160ff02191690831515021790555060006005819055507f9576a19393a9bc6046453e73d876fcb4d8a526e5d536a4e9b9def2a43bda709542604051611f7991906125be565b60405180910390a1565b60088181548110611f9357600080fd5b906000526020600020016000915054906101000a900473ffffffffffffffffffffffffffffffffffffffff1681565b60035481565b60008054906101000a900473ffffffffffffffffffffffffffffffffffffffff1673ffffffffffffffffffffffffffffffffffffffff163373ffffffffffffffffffffffffffffffffffffffff1614612056576040517f08c379a000000000000000000000000000000000000000000000000000000000815260040161204d90612967565b60405180910390fd5b600460009054906101000a900460ff16156120a6576040517f08c379a000000000000000000000000000000000000000000000000000000000815260040161209d906129d3565b60405180910390fd5b60008151116120ea576040517f08c379a00000000000000000000000000000000000000000000000000000000081526004016120e190613152565b60405180910390fd5b6000600180546120f9906128c4565b80601f0160208091040260200160405190810160405280929190818152602001828054612125906128c4565b80156121725780601f1061214757610100808354040283529160200191612172565b820191906000526020600020905b81548152906001019060200180831161215557829003601f168201915b5050505050905081600190816121889190612e89565b507fa41bff8653f795d7a3b8ee4679220a1e32b3975fcb82941ef269b9bd17da381d81836040516121ba929190612f5b565b60405180910390a15050565b6000806000600460009054906101000a900460ff16600554600354925092509250909192565b600073ffffffffffffffffffffffffffffffffffffffff82169050919050565b6000612217826121ec565b9050919050565b6122278161220c565b82525050565b6000602082019050612242600083018461221e565b92915050565b6000604051905090565b600080fd5b600080fd5b6000819050919050565b61226f8161225c565b811461227a57600080fd5b50565b60008135905061228c81612266565b92915050565b6000602082840312156122a8576122a7612252565b5b60006122b68482850161227d565b91505092915050565b600081519050919050565b600082825260208201905092915050565b60005b838110156122f95780820151818401526020810190506122de565b60008484015250505050565b6000601f19601f8301169050919050565b6000612321826122bf565b61232b81856122ca565b935061233b8185602086016122db565b61234481612305565b840191505092915050565b600060208201905081810360008301526123698184612316565b905092915050565b61237a8161220c565b811461238557600080fd5b50565b60008135905061239781612371565b92915050565b6000602082840312156123b3576123b2612252565b5b60006123c184828501612388565b91505092915050565b6123d38161225c565b82525050565b60008115159050919050565b6123ee816123d9565b82525050565b6000608082019050612409600083018761221e565b818103602083015261241b8186612316565b905061242a60408301856123ca565b61243760608301846123e5565b95945050505050565b600080fd5b600080fd5b7f4e487b7100000000000000000000000000000000000000000000000000000000600052604160045260246000fd5b61248282612305565b810181811067ffffffffffffffff821117156124a1576124a061244a565b5b80604052505050565b60006124b4612248565b90506124c08282612479565b919050565b600067ffffffffffffffff8211156124e0576124df61244a565b5b6124e982612305565b9050602081019050919050565b82818337600083830152505050565b6000612518612513846124c5565b6124aa565b90508281526020810184848401111561253457612533612445565b5b61253f8482856124f6565b509392505050565b600082601f83011261255c5761255b612440565b5b813561256c848260208601612505565b91505092915050565b60006020828403121561258b5761258a612252565b5b600082013567ffffffffffffffff8111156125a9576125a8612257565b5b6125b584828501612547565b91505092915050565b60006020820190506125d360008301846123ca565b92915050565b60006020820190506125ee60008301846123e5565b92915050565b600081519050919050565b600082825260208201905092915050565b6000819050602082019050919050565b600082825260208201905092915050565b600061263c826122bf565b6126468185612620565b93506126568185602086016122db565b61265f81612305565b840191505092915050565b60006126768383612631565b905092915050565b6000602082019050919050565b6000612696826125f4565b6126a081856125ff565b9350836020820285016126b285612610565b8060005b858110156126ee57848403895281516126cf858261266a565b94506126da8361267e565b925060208a019950506001810190506126b6565b50829750879550505050505092915050565b6000602082019050818103600083015261271a818461268b565b905092915050565b600081519050919050565b600082825260208201905092915050565b6000819050602082019050919050565b6127578161220c565b82525050565b6000612769838361274e565b60208301905092915050565b6000602082019050919050565b600061278d82612722565b612797818561272d565b93506127a28361273e565b8060005b838110156127d35781516127ba888261275d565b97506127c583612775565b9250506001810190506127a6565b5085935050505092915050565b600060208201905081810360008301526127fa8184612782565b905092915050565b6000806040838503121561281957612818612252565b5b600061282785828601612388565b925050602083013567ffffffffffffffff81111561284857612847612257565b5b61285485828601612547565b9150509250929050565b600060608201905061287360008301866123e5565b61288060208301856123ca565b61288d60408301846123ca565b949350505050565b7f4e487b7100000000000000000000000000000000000000000000000000000000600052602260045260246000fd5b600060028204905060018216806128dc57607f821691505b6020821081036128ef576128ee612895565b5b50919050565b7f4f6e6c792070726f6a6563742063726561746f722063616e20706572666f726d60008201527f207468697320616374696f6e0000000000000000000000000000000000000000602082015250565b6000612951602c836122ca565b915061295c826128f5565b604082019050919050565b6000602082019050818103600083015261298081612944565b9050919050565b7f50726f6a65637420697320616c72656164792066696e69736865640000000000600082015250565b60006129bd601b836122ca565b91506129c882612987565b602082019050919050565b600060208201905081810360008301526129ec816129b0565b9050919050565b7f4d656d62657220646f6573206e6f742065786973740000000000000000000000600082015250565b6000612a296015836122ca565b9150612a34826129f3565b602082019050919050565b60006020820190508181036000830152612a5881612a1c565b9050919050565b7f43616e6e6f742072656d6f76652070726f6a6563742063726561746f72000000600082015250565b6000612a95601d836122ca565b9150612aa082612a5f565b602082019050919050565b60006020820190508181036000830152612ac481612a88565b9050919050565b7f4e487b7100000000000000000000000000000000000000000000000000000000600052603260045260246000fd5b7f4e487b7100000000000000000000000000000000000000000000000000000000600052601160045260246000fd5b6000612b348261225c565b9150612b3f8361225c565b9250828203905081811115612b5757612b56612afa565b5b92915050565b7f4e487b7100000000000000000000000000000000000000000000000000000000600052603160045260246000fd5b600081905092915050565b6000612ba2826122bf565b612bac8185612b8c565b9350612bbc8185602086016122db565b80840191505092915050565b6000612bd48284612b97565b915081905092915050565b7f496e76616c696420726f6c650000000000000000000000000000000000000000600082015250565b6000612c15600c836122ca565b9150612c2082612bdf565b602082019050919050565b60006020820190508181036000830152612c4481612c08565b9050919050565b7f4f6e6c792070726f6a656374206f776e65722063616e2075706461746520746860008201527f656972206f776e20726f6c650000000000000000000000000000000000000000602082015250565b6000612ca7602c836122ca565b9150612cb282612c4b565b604082019050919050565b60006020820190508181036000830152612cd681612c9a565b9050919050565b60008190508160005260206000209050919050565b60006020601f8301049050919050565b600082821b905092915050565b600060088302612d3f7fffffffffffffffffffffffffffffffffffffffffffffffffffffffffffffffff82612d02565b612d498683612d02565b95508019841693508086168417925050509392505050565b6000819050919050565b6000612d86612d81612d7c8461225c565b612d61565b61225c565b9050919050565b6000819050919050565b612da083612d6b565b612db4612dac82612d8d565b848454612d0f565b825550505050565b600090565b612dc9612dbc565b612dd4818484612d97565b505050565b5b81811015612df857612ded600082612dc1565b600181019050612dda565b5050565b601f821115612e3d57612e0e81612cdd565b612e1784612cf2565b81016020851015612e26578190505b612e3a612e3285612cf2565b830182612dd9565b50505b505050565b600082821c905092915050565b6000612e6060001984600802612e42565b1980831691505092915050565b6000612e798383612e4f565b9150826002028217905092915050565b612e92826122bf565b67ffffffffffffffff811115612eab57612eaa61244a565b5b612eb582546128c4565b612ec0828285612dfc565b600060209050601f831160018114612ef35760008415612ee1578287015190505b612eeb8582612e6d565b865550612f53565b601f198416612f0186612cdd565b60005b82811015612f2957848901518255600182019150602085019450602081019050612f04565b86831015612f465784890151612f42601f891682612e4f565b8355505b6001600288020188555050505b505050505050565b60006040820190508181036000830152612f758185612316565b90508181036020830152612f898184612316565b90509392505050565b7f496e76616c6964206d656d626572206164647265737300000000000000000000600082015250565b6000612fc86016836122ca565b9150612fd382612f92565b602082019050919050565b60006020820190508181036000830152612ff781612fbb565b9050919050565b7f4d656d62657220616c7265616479206578697374730000000000000000000000600082015250565b60006130346015836122ca565b915061303f82612ffe565b602082019050919050565b6000602082019050818103600083015261306381613027565b9050919050565b600060408201905081810360008301526130848185612316565b905061309360208301846123ca565b9392505050565b7f50726f6a656374206973206e6f742066696e6973686564000000000000000000600082015250565b60006130d06017836122ca565b91506130db8261309a565b602082019050919050565b600060208201905081810360008301526130ff816130c3565b9050919050565b7f4f626a6563746976652063616e6e6f7420626520656d70747900000000000000600082015250565b600061313c6019836122ca565b915061314782613106565b602082019050919050565b6000602082019050818103600083015261316b8161312f565b905091905056fea26469706673582212208103719ba5f26189c6b69c466a1604f42f55b0560b14d6a477da6a9473d6da8764736f6c634300081c0033",
  "linkReferences": {},
  "deployedLinkReferences": {}
}