{
  "_format": "hh-sol-artifact-1",
  "contractName": "ProjectFactory",
  "sourceName": "contracts/ProjectFactory.sol",
  "abi": [
    {
      "anonymous": false,
      "inputs": [
        {
          "indexed": true,
          "internalType": "address",
          "name": "creator",
          "type": "address"
        },
        {
          "indexed": true,
          "internalType": "address",
          "name": "projectAddress",
          "type": "address"
        },
        {
          "indexed": false,
          "internalType": "string",
          "name": "objective",
          "type": "string"
        },
        {
          "indexed": false,
          "internalType": "uint256",
          "name": "timestamp",
          "type": "uint256"
        }
      ],
      "name": "ProjectCreated",
      "type": "event"
    },
    {
      "inputs": [
        {
          "internalType": "uint256",
          "name": "",
          "type": "uint256"
        }
      ],
      "name": "allProjects",
      "outputs": [
        {
          "internalType": "address",
          "name": "",
          "type": "address"
        }
      ],
      "stateMutability": "view",
      "type": "function"
    },
    {
      "inputs": [
        {
          "internalType": "string",
          "name": "_objective",
          "type": "string"
        },
        {
          "internalType": "string[]",
          "name": "_availableRoles",
          "type": "string[]"
        },
        {
          "internalType": "string",
          "name": "_ownerRole",
          "type": "string"
        }
      ],
      "name": "createProject",
      "outputs": [
        {
          "internalType": "address",
          "name": "",
          "type": "address"
        }
      ],
      "stateMutability": "nonpayable",
      "type": "function"
    },
    {
      "inputs": [],
      "name": "getAllProjects",
      "outputs": [
        {
          "internalType": "address[]",
          "name": "",
          "type": "address[]"
        }
      ],
      "stateMutability": "view",
      "type": "function"
    },
    {
      "inputs": [],
      "name": "getTotalProjects",
      "outputs": [
        {
          "internalType": "uint256",
          "name": "",
          "type": "uint256"
        }
      ],
      "stateMutability": "view",
      "type": "function"
    },
    {
      "inputs": [
        {
          "internalType": "address",
          "name": "_user",
          "type": "address"
        }
      ],
      "name": "getUserProjects",
      "outputs": [
        {
          "internalType": "address[]",
          "name": "",
          "type": "address[]"
        }
      ],
      "stateMutability": "view",
      "type": "function"
    },
    {
      "inputs": [
        {
          "internalType": "address",
          "name": "",
          "type": "address"
        }
      ],
      "name": "isProject",
      "outputs": [
        {
          "internalType": "bool",
          "name": "",
          "type": "bool"
        }
      ],
      "stateMutability": "view",
      "type": "function"
    },
    {
      "inputs": [
        {
          "internalType": "address",
          "name": "",
          "type": "address"
        },
        {
          "internalType": "uint256",
          "name": "",
          "type": "uint256"
        }
      ],
      "name": "userProjects",
      "outputs": [
        {
          "internalType": "address",
          "name": "",
          "type": "address"
        }
      ],
      "stateMutability": "view",
      "type": "function"
    }
  ],
  "bytecode": "0x6080604052348015600f57600080fd5b506134028061001f6000396000f3fe608060405234801561001057600080fd5b506004361061007d5760003560e01c806380d038291161005b57806380d03829146100f8578063812739a21461010d5780639c57bf461461011e578063e32e723c1461013157600080fd5b806305c81408146100825780632fa9c007146100ba57806353b3194c146100e5575b600080fd5b6100a5610090366004610571565b60016020526000908152604090205460ff1681565b60405190151581526020015b60405180910390f35b6100cd6100c8366004610593565b610144565b6040516001600160a01b0390911681526020016100b1565b6100cd6100f33660046105bd565b61017c565b6101006101a6565b6040516100b191906105d6565b6002546040519081526020016100b1565b6100cd61012c3660046106d9565b610208565b61010061013f366004610571565b6104d4565b6000602052816000526040600020818154811061016057600080fd5b6000918252602090912001546001600160a01b03169150829050565b6002818154811061018c57600080fd5b6000918252602090912001546001600160a01b0316905081565b606060028054806020026020016040519081016040528092919081815260200182805480156101fe57602002820191906000526020600020905b81546001600160a01b031681526001909101906020018083116101e0575b5050505050905090565b6000808451116102695760405162461bcd60e51b815260206004820152602160248201527f50726f6a656374206f626a6563746976652063616e6e6f7420626520656d70746044820152607960f81b60648201526084015b60405180910390fd5b60008351116102c45760405162461bcd60e51b815260206004820152602160248201527f4174206c65617374206f6e6520726f6c65206d75737420626520646566696e656044820152601960fa1b6064820152608401610260565b60008251116103155760405162461bcd60e51b815260206004820152601a60248201527f4f776e657220726f6c652063616e6e6f7420626520656d7074790000000000006044820152606401610260565b6000805b845181101561036157838051906020012085828151811061033c5761033c610803565b602002602001015180519060200120036103595760019150610361565b600101610319565b50806103c55760405162461bcd60e51b815260206004820152602d60248201527f4f776e657220726f6c65206d757374206265206f6e65206f662074686520617660448201526c61696c61626c6520726f6c657360981b6064820152608401610260565b6000338686866040516103d790610548565b6103e4949392919061085f565b604051809103906000f080158015610400573d6000803e3d6000fd5b50336000818152602081815260408083208054600181810183559185528385200180546001600160a01b0388166001600160a01b0319918216811790925581865293829052828520805460ff1916831790556002805492830181559094527f405787fa12a823e0f2b7631cc41b3ba8828b3321ca811111fa75cd3aa3bb5ace01805490921683179091555192935083929091907fa5e5114bddd29038323201aff93e58f1457b01d0cdb261d329cc1f21f0fca69f906104c2908b9042906108fb565b60405180910390a39695505050505050565b6001600160a01b0381166000908152602081815260409182902080548351818402810184019094528084526060939283018282801561053c57602002820191906000526020600020905b81546001600160a01b0316815260019091019060200180831161051e575b50505050509050919050565b612aaf8061091e83390190565b80356001600160a01b038116811461056c57600080fd5b919050565b60006020828403121561058357600080fd5b61058c82610555565b9392505050565b600080604083850312156105a657600080fd5b6105af83610555565b946020939093013593505050565b6000602082840312156105cf57600080fd5b5035919050565b602080825282518282018190526000918401906040840190835b818110156106175783516001600160a01b03168352602093840193909201916001016105f0565b509095945050505050565b634e487b7160e01b600052604160045260246000fd5b604051601f8201601f1916810167ffffffffffffffff8111828210171561066157610661610622565b604052919050565b600082601f83011261067a57600080fd5b813567ffffffffffffffff81111561069457610694610622565b6106a7601f8201601f1916602001610638565b8181528460208386010111156106bc57600080fd5b816020850160208301376000918101602001919091529392505050565b6000806000606084860312156106ee57600080fd5b833567ffffffffffffffff81111561070557600080fd5b61071186828701610669565b935050602084013567ffffffffffffffff81111561072e57600080fd5b8401601f8101861361073f57600080fd5b803567ffffffffffffffff81111561075957610759610622565b8060051b61076960208201610638565b9182526020818401810192908101908984111561078557600080fd5b6020850192505b838310156107cc57823567ffffffffffffffff8111156107ab57600080fd5b6107ba8b602083890101610669565b8352506020928301929091019061078c565b95505050506040850135905067ffffffffffffffff8111156107ed57600080fd5b6107f986828701610669565b9150509250925092565b634e487b7160e01b600052603260045260246000fd5b6000815180845260005b8181101561083f57602081850181015186830182015201610823565b506000602082860101526020601f19601f83011685010191505092915050565b6001600160a01b038516815260806020820181905260009061088390830186610819565b828103604084015280855180835260208301915060208160051b8401016020880160005b838110156108d957601f198684030185526108c3838351610819565b60209586019590935091909101906001016108a7565b505085810360608701526108ed8188610819565b9a9950505050505050505050565b60408152600061090e6040830185610819565b9050826020830152939250505056fe608060405234801561001057600080fd5b50604051612aaf380380612aaf83398101604081905261002f916102f9565b600080546001600160a01b0319166001600160a01b038616179055600161005684826104cb565b50426003556004805460ff19169055600060058190555b825181101561010757600283828151811061008a5761008a610589565b602090810291909101810151825460018101845560009384529190922001906100b390826104cb565b50600160078483815181106100ca576100ca610589565b60200260200101516040516100df919061059f565b908152604051908190036020019020805491151560ff1990921691909117905560010161006d565b50604080516080810182526001600160a01b03868116808352602080840186815242858701526001606086018190526000938452600690925294909120835181546001600160a01b03191693169290921782559251919290919082019061016e90826104cb565b5060408281015160028301556060909201516003909101805460ff1916911515919091179055600880546001810182556000919091527ff3f7a9fe364faab93b216da50a3214154f22a0a2b415b23a84c8169e8b636ee30180546001600160a01b0319166001600160a01b03871690811790915590517fac4f9610b174640b0a902ce555faa384cc9c9d291750f76e476f26f97bd079b49061021390849042906105bb565b60405180910390a2505050506105f6565b634e487b7160e01b600052604160045260246000fd5b604051601f8201601f191681016001600160401b038111828210171561026257610262610224565b604052919050565b60005b8381101561028557818101518382015260200161026d565b50506000910152565b600082601f83011261029f57600080fd5b81516001600160401b038111156102b8576102b8610224565b6102cb601f8201601f191660200161023a565b8181528460208386010111156102e057600080fd5b6102f182602083016020870161026a565b949350505050565b6000806000806080858703121561030f57600080fd5b84516001600160a01b038116811461032657600080fd5b60208601519094506001600160401b0381111561034257600080fd5b61034e8782880161028e565b604087015190945090506001600160401b0381111561036c57600080fd5b8501601f8101871361037d57600080fd5b80516001600160401b0381111561039657610396610224565b8060051b6103a66020820161023a565b9182526020818401810192908101908a8411156103c257600080fd5b6020850192505b838310156104085782516001600160401b038111156103e757600080fd5b6103f68c60208389010161028e565b835250602092830192909101906103c9565b60608a0151909650935050506001600160401b03821115905061042a57600080fd5b6104368782880161028e565b91505092959194509250565b600181811c9082168061045657607f821691505b60208210810361047657634e487b7160e01b600052602260045260246000fd5b50919050565b601f8211156104c657806000526020600020601f840160051c810160208510156104a35750805b601f840160051c820191505b818110156104c357600081556001016104af565b50505b505050565b81516001600160401b038111156104e4576104e4610224565b6104f8816104f28454610442565b8461047c565b6020601f82116001811461052c57600083156105145750848201515b600019600385901b1c1916600184901b1784556104c3565b600084815260208120601f198516915b8281101561055c578785015182556020948501946001909201910161053c565b508482101561057a5786840151600019600387901b60f8161c191681555b50505050600190811b01905550565b634e487b7160e01b600052603260045260246000fd5b600082516105b181846020870161026a565b9190910192915050565b60408152600083518060408401526105da81606085016020880161026a565b602083019390935250601f91909101601f191601606001919050565b6124aa806106056000396000f3fe608060405234801561001057600080fd5b50600436106102275760003560e01c80636963974911610130578063be7d4cab116100b8578063cf09e0d01161007c578063cf09e0d0146104bc578063dacb4f8d146104c5578063dfb748aa146104d8578063e7aa3afc146104eb578063ef2131061461051557600080fd5b8063be7d4cab14610479578063bef4876b14610481578063c127c2471461048e578063c3feda17146104a1578063cc4e6299146104a957600080fd5b8063893d20e8116100ff578063893d20e8146103e4578063a230c524146103f5578063b2d6e74014610424578063b568647914610437578063bdc232b81461044a57600080fd5b806369639749146103b657806369788c8e146103c95780637b352962146103d15780637c0f6b35146103dc57600080fd5b806326ecb087116101b3578063472c350f11610182578063472c350f1461036857806347d54bff1461037b5780635076ef471461038457806355ff58d4146103995780635e7a8cf0146103a157600080fd5b806326ecb087146102f15780632ada25961461032f578063383e1a5e146103425780633c652a9a1461035557600080fd5b806314f1586a116101fa57806314f1586a146102b4578063155f7911146102bc57806317d7de7c146102cf578063188c26cc146102d757806322faa41f146102e957600080fd5b806302d05d3f1461022c57806306a7c8de1461025c57806308ae4b0c1461027c5780630b1ca49a1461029f575b600080fd5b60005461023f906001600160a01b031681565b6040516001600160a01b0390911681526020015b60405180910390f35b61026f61026a366004611e7a565b610528565b6040516102539190611ee3565b61028f61028a366004611f19565b6105d4565b6040516102539493929190611f34565b6102b26102ad366004611f19565b610693565b005b61026f6108d9565b6102b26102ca366004612015565b6108e6565b61026f610ad7565b600a545b604051908152602001610253565b6008546102db565b61031f6102ff366004612015565b805160208183018101805160078252928201919093012091525460ff1681565b6040519015158152602001610253565b61028f61033d366004611f19565b610b69565b61028f610350366004611f19565b610c76565b61023f610363366004611e7a565b610cc3565b6102b2610376366004612015565b610ced565b6102db60055481565b61038c610f6d565b6040516102539190612052565b61026f611046565b6103a9611070565b60405161025391906120b7565b61026f6103c4366004611f19565b6110d1565b6102b26111ba565b60045460ff1661031f565b6103a9611256565b6000546001600160a01b031661023f565b61031f610403366004611f19565b6001600160a01b031660009081526006602052604090206003015460ff1690565b6102b2610432366004612103565b6112b6565b6102b2610445366004611f19565b611494565b61031f610458366004611f19565b6001600160a01b031660009081526009602052604090206003015460ff1690565b6005546102db565b60045461031f9060ff1681565b6102b261049c366004612103565b61156b565b6102b26117b6565b61023f6104b7366004611e7a565b611871565b6102db60035481565b6102b26104d3366004612015565b611881565b6102b26104e6366004611f19565b6119fb565b6004546005546003546040805160ff90941615158452602084019290925290820152606001610253565b61028f610523366004611f19565b611d4d565b6002818154811061053857600080fd5b90600052602060002001600091509050805461055390612151565b80601f016020809104026020016040519081016040528092919081815260200182805461057f90612151565b80156105cc5780601f106105a1576101008083540402835291602001916105cc565b820191906000526020600020905b8154815290600101906020018083116105af57829003601f168201915b505050505081565b600660205260009081526040902080546001820180546001600160a01b03909216929161060090612151565b80601f016020809104026020016040519081016040528092919081815260200182805461062c90612151565b80156106795780601f1061064e57610100808354040283529160200191610679565b820191906000526020600020905b81548152906001019060200180831161065c57829003601f168201915b50505050600283015460039093015491929160ff16905084565b6000546001600160a01b031633146106c65760405162461bcd60e51b81526004016106bd9061218b565b60405180910390fd5b60045460ff16156106e95760405162461bcd60e51b81526004016106bd906121d7565b6001600160a01b03811660009081526006602052604090206003015460ff166107245760405162461bcd60e51b81526004016106bd9061220e565b6000546001600160a01b03908116908216036107825760405162461bcd60e51b815260206004820152601d60248201527f43616e6e6f742072656d6f76652070726f6a6563742063726561746f7200000060448201526064016106bd565b6001600160a01b0381166000908152600660205260408120600301805460ff191690555b6008548110156108a157816001600160a01b0316600882815481106107cd576107cd61223d565b6000918252602090912001546001600160a01b03160361089957600880546107f790600190612253565b815481106108075761080761223d565b600091825260209091200154600880546001600160a01b0390921691839081106108335761083361223d565b9060005260206000200160006101000a8154816001600160a01b0302191690836001600160a01b0316021790555060088054806108725761087261227a565b600082815260209020810160001990810180546001600160a01b03191690550190556108a1565b6001016107a6565b506040516001600160a01b038216907f6e76fb4c77256006d9c38ec7d82b45a8c8f3c27b1d6766fffc42dfb8de68449290600090a250565b6001805461055390612151565b806007816040516108f79190612290565b9081526040519081900360200190205460ff166109265760405162461bcd60e51b81526004016106bd906122ac565b60045460ff16156109495760405162461bcd60e51b81526004016106bd906121d7565b6000546001600160a01b031633146109b85760405162461bcd60e51b815260206004820152602c60248201527f4f6e6c792070726f6a656374206f776e65722063616e2075706461746520746860448201526b656972206f776e20726f6c6560a01b60648201526084016106bd565b600080546001600160a01b0316815260066020526040812060010180546109de90612151565b80601f0160208091040260200160405190810160405280929190818152602001828054610a0a90612151565b8015610a575780601f10610a2c57610100808354040283529160200191610a57565b820191906000526020600020905b815481529060010190602001808311610a3a57829003601f168201915b5050600080546001600160a01b0316815260066020526040902093945050506001919091019050610a888482612321565b506000546040516001600160a01b03909116907f2b6b575197263ee88365c8324c9c92e3869de9adbe176c769009afef44d8b09790610aca90849087906123e0565b60405180910390a2505050565b606060018054610ae690612151565b80601f0160208091040260200160405190810160405280929190818152602001828054610b1290612151565b8015610b5f5780601f10610b3457610100808354040283529160200191610b5f565b820191906000526020600020905b815481529060010190602001808311610b4257829003601f168201915b5050505050905090565b6001600160a01b03808216600090815260066020908152604080832081516080810190925280549094168152600184018054939460609486948594859490939291840191610bb690612151565b80601f0160208091040260200160405190810160405280929190818152602001828054610be290612151565b8015610c2f5780601f10610c0457610100808354040283529160200191610c2f565b820191906000526020600020905b815481529060010190602001808311610c1257829003601f168201915b5050509183525050600282015460208083019190915260039092015460ff161515604091820152825191830151908301516060909301519199909850919650945092505050565b6001600160a01b03808216600090815260096020908152604080832081516080810190925280549094168152600184018054939460609486948594859490939291840191610bb690612151565b600a8181548110610cd357600080fd5b6000918252602090912001546001600160a01b0316905081565b80600781604051610cfe9190612290565b9081526040519081900360200190205460ff16610d2d5760405162461bcd60e51b81526004016106bd906122ac565b60045460ff1615610d505760405162461bcd60e51b81526004016106bd906121d7565b6000546001600160a01b03163303610daa5760405162461bcd60e51b815260206004820152601b60248201527f43726561746f7220697320616c72656164792061206d656d626572000000000060448201526064016106bd565b3360009081526006602052604090206003015460ff1615610e005760405162461bcd60e51b815260206004820152601060248201526f20b63932b0b23c90309036b2b6b132b960811b60448201526064016106bd565b3360009081526009602052604090206003015460ff1615610e635760405162461bcd60e51b815260206004820152601c60248201527f4a6f696e207265717565737420616c72656164792070656e64696e670000000060448201526064016106bd565b6040805160808101825233808252602080830186815242848601526001606085018190526000938452600990925293909120825181546001600160a01b0319166001600160a01b03909116178155925191929190820190610ec49082612321565b5060408281015160028301556060909201516003909101805460ff1916911515919091179055600a80546001810182556000919091527fc65a7bb8d6351c1cf70c95a316cc6a92839c986682d98bc35f958f4883f9d2a8018054336001600160a01b0319909116811790915590517fe4d6c018abd0178d4bce0856089ef1876318617b97a1d700bb98506598ab0afc90610f61908590429061240e565b60405180910390a25050565b60606002805480602002602001604051908101604052809291908181526020016000905b8282101561103d578382906000526020600020018054610fb090612151565b80601f0160208091040260200160405190810160405280929190818152602001828054610fdc90612151565b80156110295780601f10610ffe57610100808354040283529160200191611029565b820191906000526020600020905b81548152906001019060200180831161100c57829003601f168201915b505050505081526020019060010190610f91565b50505050905090565b600080546001600160a01b03168152600660205260409020600101805460609190610ae690612151565b6060600a805480602002602001604051908101604052809291908181526020018280548015610b5f57602002820191906000526020600020905b81546001600160a01b031681526001909101906020018083116110aa575050505050905090565b6001600160a01b03811660009081526006602052604090206003015460609060ff1661110f5760405162461bcd60e51b81526004016106bd9061220e565b6001600160a01b0382166000908152600660205260409020600101805461113590612151565b80601f016020809104026020016040519081016040528092919081815260200182805461116190612151565b80156111ae5780601f10611183576101008083540402835291602001916111ae565b820191906000526020600020905b81548152906001019060200180831161119157829003601f168201915b50505050509050919050565b6000546001600160a01b031633146111e45760405162461bcd60e51b81526004016106bd9061218b565b60045460ff16156112075760405162461bcd60e51b81526004016106bd906121d7565b6004805460ff191660011790554260058190556040517f5032973ebecb355d37badc06a2e7e34401c2b21eaade274aa03b3730fa18ff8a9161124c9190815260200190565b60405180910390a1565b60606008805480602002602001604051908101604052809291908181526020018280548015610b5f576020028201919060005260206000209081546001600160a01b031681526001909101906020018083116110aa575050505050905090565b6000546001600160a01b031633146112e05760405162461bcd60e51b81526004016106bd9061218b565b806007816040516112f19190612290565b9081526040519081900360200190205460ff166113205760405162461bcd60e51b81526004016106bd906122ac565b60045460ff16156113435760405162461bcd60e51b81526004016106bd906121d7565b6001600160a01b03831660009081526006602052604090206003015460ff1661137e5760405162461bcd60e51b81526004016106bd9061220e565b6001600160a01b038316600090815260066020526040812060010180546113a490612151565b80601f01602080910402602001604051908101604052809291908181526020018280546113d090612151565b801561141d5780601f106113f25761010080835404028352916020019161141d565b820191906000526020600020905b81548152906001019060200180831161140057829003601f168201915b505050506001600160a01b03861660009081526006602052604090209192505060010161144a8482612321565b50836001600160a01b03167f2b6b575197263ee88365c8324c9c92e3869de9adbe176c769009afef44d8b09782856040516114869291906123e0565b60405180910390a250505050565b6000546001600160a01b031633146114be5760405162461bcd60e51b81526004016106bd9061218b565b6001600160a01b03811660009081526009602052604090206003015460ff166114f95760405162461bcd60e51b81526004016106bd90612430565b6001600160a01b0381166000908152600960205260409020600301805460ff1916905561152581611d79565b806001600160a01b03167f18ed9b1d82e034b0d16f7b1b054bcb78c348bb222503d3939bda21c0304439ae4260405161156091815260200190565b60405180910390a250565b6000546001600160a01b031633146115955760405162461bcd60e51b81526004016106bd9061218b565b806007816040516115a69190612290565b9081526040519081900360200190205460ff166115d55760405162461bcd60e51b81526004016106bd906122ac565b60045460ff16156115f85760405162461bcd60e51b81526004016106bd906121d7565b6001600160a01b0383166116475760405162461bcd60e51b8152602060048201526016602482015275496e76616c6964206d656d626572206164647265737360501b60448201526064016106bd565b6001600160a01b03831660009081526006602052604090206003015460ff16156116ab5760405162461bcd60e51b81526020600482015260156024820152744d656d62657220616c72656164792065786973747360581b60448201526064016106bd565b604080516080810182526001600160a01b03858116808352602080840187815242858701526001606086018190526000938452600690925294909120835181546001600160a01b0319169316929092178255925191929091908201906117119082612321565b5060408281015160028301556060909201516003909101805460ff1916911515919091179055600880546001810182556000919091527ff3f7a9fe364faab93b216da50a3214154f22a0a2b415b23a84c8169e8b636ee30180546001600160a01b0319166001600160a01b03861690811790915590517fac4f9610b174640b0a902ce555faa384cc9c9d291750f76e476f26f97bd079b490610aca908590429061240e565b6000546001600160a01b031633146117e05760405162461bcd60e51b81526004016106bd9061218b565b60045460ff166118325760405162461bcd60e51b815260206004820152601760248201527f50726f6a656374206973206e6f742066696e697368656400000000000000000060448201526064016106bd565b6004805460ff1916905560006005556040514281527f9576a19393a9bc6046453e73d876fcb4d8a526e5d536a4e9b9def2a43bda70959060200161124c565b60088181548110610cd357600080fd5b6000546001600160a01b031633146118ab5760405162461bcd60e51b81526004016106bd9061218b565b60045460ff16156118ce5760405162461bcd60e51b81526004016106bd906121d7565b600081511161191f5760405162461bcd60e51b815260206004820152601960248201527f4f626a6563746976652063616e6e6f7420626520656d7074790000000000000060448201526064016106bd565b60006001805461192e90612151565b80601f016020809104026020016040519081016040528092919081815260200182805461195a90612151565b80156119a75780601f1061197c576101008083540402835291602001916119a7565b820191906000526020600020905b81548152906001019060200180831161198a57829003601f168201915b5050505050905081600190816119bd9190612321565b507fa41bff8653f795d7a3b8ee4679220a1e32b3975fcb82941ef269b9bd17da381d81836040516119ef9291906123e0565b60405180910390a15050565b6000546001600160a01b03163314611a255760405162461bcd60e51b81526004016106bd9061218b565b60045460ff1615611a485760405162461bcd60e51b81526004016106bd906121d7565b6001600160a01b03811660009081526009602052604090206003015460ff16611a835760405162461bcd60e51b81526004016106bd90612430565b6001600160a01b03811660009081526006602052604090206003015460ff1615611aef5760405162461bcd60e51b815260206004820152601860248201527f5573657220697320616c72656164792061206d656d626572000000000000000060448201526064016106bd565b6001600160a01b03808216600090815260096020908152604080832081516080810190925280549094168152600184018054939491939192840191611b3390612151565b80601f0160208091040260200160405190810160405280929190818152602001828054611b5f90612151565b8015611bac5780601f10611b8157610100808354040283529160200191611bac565b820191906000526020600020905b815481529060010190602001808311611b8f57829003601f168201915b5050509183525050600282015460208083019190915260039092015460ff16151560409182015280516080810182526001600160a01b0386811680835285850151838601908152428486015260016060850181905260009283526006909652939020825181546001600160a01b03191692169190911781559151939450929091820190611c399082612321565b5060408281015160028301556060909201516003918201805491151560ff1992831617905560088054600181019091557ff3f7a9fe364faab93b216da50a3214154f22a0a2b415b23a84c8169e8b636ee30180546001600160a01b0387166001600160a01b0319909116811790915560009081526009602052929092200180549091169055611cc782611d79565b816001600160a01b03167f2c3efd81f5e8701b646cfce4c64341fcec3b0025a3219b9bec0c8cbcfebd077e826020015142604051611d0692919061240e565b60405180910390a2816001600160a01b03167fac4f9610b174640b0a902ce555faa384cc9c9d291750f76e476f26f97bd079b4826020015142604051610f6192919061240e565b600960205260009081526040902080546001820180546001600160a01b03909216929161060090612151565b60005b600a54811015611e7657816001600160a01b0316600a8281548110611da357611da361223d565b6000918252602090912001546001600160a01b031603611e6e57600a8054611dcd90600190612253565b81548110611ddd57611ddd61223d565b600091825260209091200154600a80546001600160a01b039092169183908110611e0957611e0961223d565b9060005260206000200160006101000a8154816001600160a01b0302191690836001600160a01b03160217905550600a805480611e4857611e4861227a565b600082815260209020810160001990810180546001600160a01b03191690550190555050565b600101611d7c565b5050565b600060208284031215611e8c57600080fd5b5035919050565b60005b83811015611eae578181015183820152602001611e96565b50506000910152565b60008151808452611ecf816020860160208601611e93565b601f01601f19169290920160200192915050565b602081526000611ef66020830184611eb7565b9392505050565b80356001600160a01b0381168114611f1457600080fd5b919050565b600060208284031215611f2b57600080fd5b611ef682611efd565b6001600160a01b0385168152608060208201819052600090611f5890830186611eb7565b60408301949094525090151560609091015292915050565b634e487b7160e01b600052604160045260246000fd5b600082601f830112611f9757600080fd5b813567ffffffffffffffff811115611fb157611fb1611f70565b604051601f8201601f19908116603f0116810167ffffffffffffffff81118282101715611fe057611fe0611f70565b604052818152838201602001851015611ff857600080fd5b816020850160208301376000918101602001919091529392505050565b60006020828403121561202757600080fd5b813567ffffffffffffffff81111561203e57600080fd5b61204a84828501611f86565b949350505050565b6000602082016020835280845180835260408501915060408160051b86010192506020860160005b828110156120ab57603f19878603018452612096858351611eb7565b9450602093840193919091019060010161207a565b50929695505050505050565b602080825282518282018190526000918401906040840190835b818110156120f85783516001600160a01b03168352602093840193909201916001016120d1565b509095945050505050565b6000806040838503121561211657600080fd5b61211f83611efd565b9150602083013567ffffffffffffffff81111561213b57600080fd5b61214785828601611f86565b9150509250929050565b600181811c9082168061216557607f821691505b60208210810361218557634e487b7160e01b600052602260045260246000fd5b50919050565b6020808252602c908201527f4f6e6c792070726f6a6563742063726561746f722063616e20706572666f726d60408201526b103a3434b99030b1ba34b7b760a11b606082015260800190565b6020808252601b908201527f50726f6a65637420697320616c72656164792066696e69736865640000000000604082015260600190565b60208082526015908201527413595b58995c88191bd95cc81b9bdd08195e1a5cdd605a1b604082015260600190565b634e487b7160e01b600052603260045260246000fd5b8181038181111561227457634e487b7160e01b600052601160045260246000fd5b92915050565b634e487b7160e01b600052603160045260246000fd5b600082516122a2818460208701611e93565b9190910192915050565b6020808252600c908201526b496e76616c696420726f6c6560a01b604082015260600190565b601f82111561231c57806000526020600020601f840160051c810160208510156122f95750805b601f840160051c820191505b818110156123195760008155600101612305565b50505b505050565b815167ffffffffffffffff81111561233b5761233b611f70565b61234f816123498454612151565b846122d2565b6020601f821160018114612383576000831561236b5750848201515b600019600385901b1c1916600184901b178455612319565b600084815260208120601f198516915b828110156123b35787850151825560209485019460019092019101612393565b50848210156123d15786840151600019600387901b60f8161c191681555b50505050600190811b01905550565b6040815260006123f36040830185611eb7565b82810360208401526124058185611eb7565b95945050505050565b6040815260006124216040830185611eb7565b90508260208301529392505050565b60208082526024908201527f4e6f2070656e64696e6720726571756573742066726f6d2074686973206164646040820152637265737360e01b60608201526080019056fea2646970667358221220a68d1c3b86b10e7d3eb74c7d091708b17366c819de20f2176e254c5268b84d8f64736f6c634300081c0033a2646970667358221220254e113e2194ebd76c57042810463bd58422ba2934cf51c9f83c74270208083e64736f6c634300081c0033",
  "linkReferences": {},
  "deployedLinkReferences": {}
}