{
  "_format": "hh-sol-artifact-1",
  "contractName": "ProjectFactory",
  "sourceName": "contracts/ProjectFactory.sol",
  "abi": [
    {
      "inputs": [],
      "stateMutability": "nonpayable",
      "type": "constructor"
    },
    {
      "anonymous": false,
      "inputs": [
        {
          "indexed": true,
          "internalType": "address",
          "name": "creator",
          "type": "address"
        },
        {
          "indexed": true,
          "internalType": "address",
          "name": "projectAddress",
          "type": "address"
        },
        {
          "indexed": false,
          "internalType": "string",
          "name": "objective",
          "type": "string"
        },
        {
          "indexed": false,
          "internalType": "uint256",
          "name": "templateId",
          "type": "uint256"
        },
        {
          "indexed": false,
          "internalType": "uint256",
          "name": "timestamp",
          "type": "uint256"
        }
      ],
      "name": "ProjectCreated",
      "type": "event"
    },
    {
      "anonymous": false,
      "inputs": [
        {
          "indexed": true,
          "internalType": "uint256",
          "name": "templateId",
          "type": "uint256"
        },
        {
          "indexed": false,
          "internalType": "string",
          "name": "name",
          "type": "string"
        },
        {
          "indexed": false,
          "internalType": "string",
          "name": "description",
          "type": "string"
        },
        {
          "indexed": false,
          "internalType": "uint256",
          "name": "timestamp",
          "type": "uint256"
        }
      ],
      "name": "TemplateCreated",
      "type": "event"
    },
    {
      "inputs": [
        {
          "internalType": "uint256",
          "name": "",
          "type": "uint256"
        }
      ],
      "name": "allProjects",
      "outputs": [
        {
          "internalType": "address",
          "name": "",
          "type": "address"
        }
      ],
      "stateMutability": "view",
      "type": "function"
    },
    {
      "inputs": [
        {
          "internalType": "string",
          "name": "_objective",
          "type": "string"
        },
        {
          "internalType": "string[]",
          "name": "_availableRoles",
          "type": "string[]"
        },
        {
          "internalType": "string",
          "name": "_ownerRole",
          "type": "string"
        }
      ],
      "name": "createProject",
      "outputs": [
        {
          "internalType": "address",
          "name": "",
          "type": "address"
        }
      ],
      "stateMutability": "nonpayable",
      "type": "function"
    },
    {
      "inputs": [
        {
          "internalType": "uint256",
          "name": "_templateId",
          "type": "uint256"
        },
        {
          "internalType": "string",
          "name": "_objective",
          "type": "string"
        },
        {
          "internalType": "string",
          "name": "_ownerRole",
          "type": "string"
        }
      ],
      "name": "createProjectFromTemplate",
      "outputs": [
        {
          "internalType": "address",
          "name": "",
          "type": "address"
        }
      ],
      "stateMutability": "nonpayable",
      "type": "function"
    },
    {
      "inputs": [
        {
          "internalType": "string",
          "name": "_name",
          "type": "string"
        },
        {
          "internalType": "string",
          "name": "_description",
          "type": "string"
        },
        {
          "internalType": "string[]",
          "name": "_availableRoles",
          "type": "string[]"
        },
        {
          "internalType": "string",
          "name": "_defaultOwnerRole",
          "type": "string"
        }
      ],
      "name": "createTemplate",
      "outputs": [
        {
          "internalType": "uint256",
          "name": "",
          "type": "uint256"
        }
      ],
      "stateMutability": "nonpayable",
      "type": "function"
    },
    {
      "inputs": [
        {
          "internalType": "uint256",
          "name": "_templateId",
          "type": "uint256"
        }
      ],
      "name": "deactivateTemplate",
      "outputs": [],
      "stateMutability": "nonpayable",
      "type": "function"
    },
    {
      "inputs": [],
      "name": "getAllProjects",
      "outputs": [
        {
          "internalType": "address[]",
          "name": "",
          "type": "address[]"
        }
      ],
      "stateMutability": "view",
      "type": "function"
    },
    {
      "inputs": [],
      "name": "getAllTemplates",
      "outputs": [
        {
          "internalType": "uint256[]",
          "name": "ids",
          "type": "uint256[]"
        },
        {
          "internalType": "string[]",
          "name": "names",
          "type": "string[]"
        },
        {
          "internalType": "string[]",
          "name": "descriptions",
          "type": "string[]"
        },
        {
          "internalType": "bool[]",
          "name": "isActiveList",
          "type": "bool[]"
        }
      ],
      "stateMutability": "view",
      "type": "function"
    },
    {
      "inputs": [
        {
          "internalType": "uint256",
          "name": "_templateId",
          "type": "uint256"
        }
      ],
      "name": "getProjectsByTemplate",
      "outputs": [
        {
          "internalType": "address[]",
          "name": "",
          "type": "address[]"
        }
      ],
      "stateMutability": "view",
      "type": "function"
    },
    {
      "inputs": [
        {
          "internalType": "uint256",
          "name": "_templateId",
          "type": "uint256"
        }
      ],
      "name": "getTemplate",
      "outputs": [
        {
          "internalType": "string",
          "name": "name",
          "type": "string"
        },
        {
          "internalType": "string",
          "name": "description",
          "type": "string"
        },
        {
          "internalType": "string[]",
          "name": "availableRoles",
          "type": "string[]"
        },
        {
          "internalType": "string",
          "name": "defaultOwnerRole",
          "type": "string"
        },
        {
          "internalType": "bool",
          "name": "isActive",
          "type": "bool"
        }
      ],
      "stateMutability": "view",
      "type": "function"
    },
    {
      "inputs": [],
      "name": "getTemplateCount",
      "outputs": [
        {
          "internalType": "uint256",
          "name": "",
          "type": "uint256"
        }
      ],
      "stateMutability": "view",
      "type": "function"
    },
    {
      "inputs": [],
      "name": "getTotalProjects",
      "outputs": [
        {
          "internalType": "uint256",
          "name": "",
          "type": "uint256"
        }
      ],
      "stateMutability": "view",
      "type": "function"
    },
    {
      "inputs": [
        {
          "internalType": "address",
          "name": "_user",
          "type": "address"
        }
      ],
      "name": "getUserProjects",
      "outputs": [
        {
          "internalType": "address[]",
          "name": "",
          "type": "address[]"
        }
      ],
      "stateMutability": "view",
      "type": "function"
    },
    {
      "inputs": [
        {
          "internalType": "address",
          "name": "",
          "type": "address"
        }
      ],
      "name": "isProject",
      "outputs": [
        {
          "internalType": "bool",
          "name": "",
          "type": "bool"
        }
      ],
      "stateMutability": "view",
      "type": "function"
    },
    {
      "inputs": [
        {
          "internalType": "uint256",
          "name": "",
          "type": "uint256"
        },
        {
          "internalType": "uint256",
          "name": "",
          "type": "uint256"
        }
      ],
      "name": "templateProjects",
      "outputs": [
        {
          "internalType": "address",
          "name": "",
          "type": "address"
        }
      ],
      "stateMutability": "view",
      "type": "function"
    },
    {
      "inputs": [
        {
          "internalType": "uint256",
          "name": "",
          "type": "uint256"
        }
      ],
      "name": "templates",
      "outputs": [
        {
          "internalType": "string",
          "name": "name",
          "type": "string"
        },
        {
          "internalType": "string",
          "name": "description",
          "type": "string"
        },
        {
          "internalType": "string",
          "name": "defaultOwnerRole",
          "type": "string"
        },
        {
          "internalType": "bool",
          "name": "isActive",
          "type": "bool"
        }
      ],
      "stateMutability": "view",
      "type": "function"
    },
    {
      "inputs": [
        {
          "internalType": "address",
          "name": "",
          "type": "address"
        },
        {
          "internalType": "uint256",
          "name": "",
          "type": "uint256"
        }
      ],
      "name": "userProjects",
      "outputs": [
        {
          "internalType": "address",
          "name": "",
          "type": "address"
        }
      ],
      "stateMutability": "view",
      "type": "function"
    }
  ],
  "bytecode": "0x608060405234801561001057600080fd5b5060408051600280825260608201909252600091816020015b60608152602001906001900390816100295790505090506040518060400160405280600a8152602001692230ba309027bbb732b960b11b81525081600081518110610076576100766104a3565b60200260200101819052506040518060400160405280600b81526020016a26b7b232b61027bbb732b960a91b815250816001815181106100b8576100b86104a3565b602002602001018190525061013360405180604001604052806012815260200171466564657261746564204c6561726e696e6760701b8152506040518060800160405280604581526020016154816045913960408051808201909152600b81526a26b7b232b61027bbb732b960a91b60208201528490610139565b506106a3565b600084511161018f5760405162461bcd60e51b815260206004820152601d60248201527f54656d706c617465206e616d652063616e6e6f7420626520656d70747900000060448201526064015b60405180910390fd5b60008251116101ea5760405162461bcd60e51b815260206004820152602160248201527f4174206c65617374206f6e6520726f6c65206d75737420626520646566696e656044820152601960fa1b6064820152608401610186565b6000805b8351811015610236578280519060200120848281518110610211576102116104a3565b6020026020010151805190602001200361022e5760019150610236565b6001016101ee565b50806102aa5760405162461bcd60e51b815260206004820152603560248201527f44656661756c74206f776e657220726f6c65206d757374206265206f6e65206f60448201527f662074686520617661696c61626c6520726f6c657300000000000000000000006064820152608401610186565b6040805160a08101825286815260208101869052908101849052606081018390526001608082018190526000805491820181558052815160059091027f290decd9548b62a8d60345a988386fc84ba6bc95484008f6362f93160ef3e563019081906103159082610542565b506020820151600182019061032a9082610542565b50604082015180516103469160028401916020909101906103c8565b506060820151600382019061035b9082610542565b50608091909101516004909101805460ff191691151591909117905560005461038690600190610600565b7f2d28503a05a824e6724624b7735b66ec868459d0d7b315ee265ec995b88793928686426040516103b99392919061066d565b60405180910390a25050505050565b82805482825590600052602060002090810192821561040e579160200282015b8281111561040e57825182906103fe9082610542565b50916020019190600101906103e8565b5061041a92915061041e565b5090565b8082111561041a576000610432828261043b565b5060010161041e565b508054610447906104b9565b6000825580601f10610457575050565b601f0160209004906000526020600020908101906104759190610478565b50565b5b8082111561041a5760008155600101610479565b634e487b7160e01b600052604160045260246000fd5b634e487b7160e01b600052603260045260246000fd5b600181811c908216806104cd57607f821691505b6020821081036104ed57634e487b7160e01b600052602260045260246000fd5b50919050565b601f82111561053d57806000526020600020601f840160051c8101602085101561051a5750805b601f840160051c820191505b8181101561053a5760008155600101610526565b50505b505050565b81516001600160401b0381111561055b5761055b61048d565b61056f8161056984546104b9565b846104f3565b6020601f8211600181146105a3576000831561058b5750848201515b600019600385901b1c1916600184901b17845561053a565b600084815260208120601f198516915b828110156105d357878501518255602094850194600190920191016105b3565b50848210156105f15786840151600019600387901b60f8161c191681555b50505050600190811b01905550565b8181038181111561062157634e487b7160e01b600052601160045260246000fd5b92915050565b6000815180845260005b8181101561064d57602081850181015186830182015201610631565b506000602082860101526020601f19601f83011685010191505092915050565b6060815260006106806060830186610627565b82810360208401526106928186610627565b915050826040830152949350505050565b614dcf806106b26000396000f3fe608060405234801561001057600080fd5b50600436106101005760003560e01c806380d0382911610097578063bc52565211610066578063bc52565214610234578063d6969c7a14610257578063e32e723c1461026a578063ee5ab24c1461027d57600080fd5b806380d03829146101ec578063812739a2146102015780638e46a300146102095780639c57bf461461022157600080fd5b80633f1881b7116100d35780633f1881b7146101a15780634b01fe8f146101b45780635016959a146101c757806353b3194c146101d957600080fd5b806305c81408146101055780631d1a689e1461013d5780632fa9c0071461015257806331543cf41461017d575b600080fd5b610128610113366004611968565b60036020526000908152604090205460ff1681565b60405190151581526020015b60405180910390f35b61015061014b36600461198a565b610290565b005b6101656101603660046119a3565b6102f3565b6040516001600160a01b039091168152602001610134565b61019061018b36600461198a565b61032b565b604051610134959493929190611a6f565b6101656101af366004611b86565b61064b565b6101656101c2366004611bf6565b610cda565b6000545b604051908152602001610134565b6101656101e736600461198a565b610cf6565b6101f4610d20565b6040516101349190611c18565b6004546101cb565b610211610d82565b6040516101349493929190611c64565b61016561022f366004611db6565b6110d4565b61024761024236600461198a565b61132f565b6040516101349493929190611e15565b6101cb610265366004611e62565b61150a565b6101f4610278366004611968565b611530565b6101f461028b36600461198a565b6115a6565b60005481106102ba5760405162461bcd60e51b81526004016102b190611f1e565b60405180910390fd5b60008082815481106102ce576102ce611f55565b60009182526020909120600590910201600401805460ff191691151591909117905550565b6002602052816000526040600020818154811061030f57600080fd5b6000918252602090912001546001600160a01b03169150829050565b6060806060806000808054905086106103565760405162461bcd60e51b81526004016102b190611f1e565b600080878154811061036a5761036a611f55565b90600052602060002090600502016040518060a001604052908160008201805461039390611f6b565b80601f01602080910402602001604051908101604052809291908181526020018280546103bf90611f6b565b801561040c5780601f106103e15761010080835404028352916020019161040c565b820191906000526020600020905b8154815290600101906020018083116103ef57829003601f168201915b5050505050815260200160018201805461042590611f6b565b80601f016020809104026020016040519081016040528092919081815260200182805461045190611f6b565b801561049e5780601f106104735761010080835404028352916020019161049e565b820191906000526020600020905b81548152906001019060200180831161048157829003601f168201915b5050505050815260200160028201805480602002602001604051908101604052809291908181526020016000905b828210156105785783829060005260206000200180546104eb90611f6b565b80601f016020809104026020016040519081016040528092919081815260200182805461051790611f6b565b80156105645780601f1061053957610100808354040283529160200191610564565b820191906000526020600020905b81548152906001019060200180831161054757829003601f168201915b5050505050815260200190600101906104cc565b50505050815260200160038201805461059090611f6b565b80601f01602080910402602001604051908101604052809291908181526020018280546105bc90611f6b565b80156106095780601f106105de57610100808354040283529160200191610609565b820191906000526020600020905b8154815290600101906020018083116105ec57829003601f168201915b50505091835250506004919091015460ff16151560209182015281519082015160408301516060840151608090940151929b919a509850919650945092505050565b60008054841061066d5760405162461bcd60e51b81526004016102b190611f1e565b6000848154811061068057610680611f55565b600091825260209091206004600590920201015460ff166106dc5760405162461bcd60e51b815260206004820152601660248201527554656d706c617465206973206e6f742061637469766560501b60448201526064016102b1565b60008351116106fd5760405162461bcd60e51b81526004016102b190611fa5565b600080858154811061071157610711611f55565b90600052602060002090600502016040518060a001604052908160008201805461073a90611f6b565b80601f016020809104026020016040519081016040528092919081815260200182805461076690611f6b565b80156107b35780601f10610788576101008083540402835291602001916107b3565b820191906000526020600020905b81548152906001019060200180831161079657829003601f168201915b505050505081526020016001820180546107cc90611f6b565b80601f01602080910402602001604051908101604052809291908181526020018280546107f890611f6b565b80156108455780601f1061081a57610100808354040283529160200191610845565b820191906000526020600020905b81548152906001019060200180831161082857829003601f168201915b5050505050815260200160028201805480602002602001604051908101604052809291908181526020016000905b8282101561091f57838290600052602060002001805461089290611f6b565b80601f01602080910402602001604051908101604052809291908181526020018280546108be90611f6b565b801561090b5780601f106108e05761010080835404028352916020019161090b565b820191906000526020600020905b8154815290600101906020018083116108ee57829003601f168201915b505050505081526020019060010190610873565b50505050815260200160038201805461093790611f6b565b80601f016020809104026020016040519081016040528092919081815260200182805461096390611f6b565b80156109b05780601f10610985576101008083540402835291602001916109b0565b820191906000526020600020905b81548152906001019060200180831161099357829003601f168201915b50505091835250506004919091015460ff16151560209091015290506000805b826040015151811015610a20578480519060200120836040015182815181106109fb576109fb611f55565b60200260200101518051906020012003610a185760019150610a20565b6001016109d0565b5080610a945760405162461bcd60e51b815260206004820152603860248201527f4f776e657220726f6c65206d757374206265206f6e65206f662074686520746560448201527f6d706c617465277320617661696c61626c6520726f6c6573000000000000000060648201526084016102b1565b60003386846040015187604051610aaa9061187a565b610ab79493929190611fe6565b604051809103906000f080158015610ad3573d6000803e3d6000fd5b50604051630129176760e31b81526004810189905290915081906001600160a01b03821690630948bb3890602401600060405180830381600087803b158015610b1b57600080fd5b505af1158015610b2f573d6000803e3d6000fd5b5050505060026000336001600160a01b03166001600160a01b03168152602001908152602001600020819080600181540180825580915050600190039060005260206000200160009091909190916101000a8154816001600160a01b0302191690836001600160a01b03160217905550600160036000836001600160a01b03166001600160a01b0316815260200190815260200160002060006101000a81548160ff0219169083151502179055506004819080600181540180825580915050600190039060005260206000200160009091909190916101000a8154816001600160a01b0302191690836001600160a01b0316021790555060016000898152602001908152602001600020819080600181540180825580915050600190039060005260206000200160009091909190916101000a8154816001600160a01b0302191690836001600160a01b03160217905550806001600160a01b0316336001600160a01b03167ff474a44bbf67e28a60e1e8977a0d7bdf30896d6b88b7c83710a32ad527611994898b42604051610cc79392919061203b565b60405180910390a3979650505050505050565b6001602052816000526040600020818154811061030f57600080fd5b60048181548110610d0657600080fd5b6000918252602090912001546001600160a01b0316905081565b60606004805480602002602001604051908101604052809291908181526020018280548015610d7857602002820191906000526020600020905b81546001600160a01b03168152600190910190602001808311610d5a575b5050505050905090565b600054606090819081908190806001600160401b03811115610da657610da6611ad1565b604051908082528060200260200182016040528015610dcf578160200160208202803683370190505b509450806001600160401b03811115610dea57610dea611ad1565b604051908082528060200260200182016040528015610e1d57816020015b6060815260200190600190039081610e085790505b509350806001600160401b03811115610e3857610e38611ad1565b604051908082528060200260200182016040528015610e6b57816020015b6060815260200190600190039081610e565790505b509250806001600160401b03811115610e8657610e86611ad1565b604051908082528060200260200182016040528015610eaf578160200160208202803683370190505b50915060005b818110156110cc5780868281518110610ed057610ed0611f55565b60200260200101818152505060008181548110610eef57610eef611f55565b90600052602060002090600502016000018054610f0b90611f6b565b80601f0160208091040260200160405190810160405280929190818152602001828054610f3790611f6b565b8015610f845780601f10610f5957610100808354040283529160200191610f84565b820191906000526020600020905b815481529060010190602001808311610f6757829003601f168201915b5050505050858281518110610f9b57610f9b611f55565b602002602001018190525060008181548110610fb957610fb9611f55565b90600052602060002090600502016001018054610fd590611f6b565b80601f016020809104026020016040519081016040528092919081815260200182805461100190611f6b565b801561104e5780601f106110235761010080835404028352916020019161104e565b820191906000526020600020905b81548152906001019060200180831161103157829003601f168201915b505050505084828151811061106557611065611f55565b60200260200101819052506000818154811061108357611083611f55565b906000526020600020906005020160040160009054906101000a900460ff168382815181106110b4576110b4611f55565b91151560209283029190910190910152600101610eb5565b505090919293565b6000808451116110f65760405162461bcd60e51b81526004016102b190611fa5565b60008351116111175760405162461bcd60e51b81526004016102b190612060565b60008251116111685760405162461bcd60e51b815260206004820152601a60248201527f4f776e657220726f6c652063616e6e6f7420626520656d70747900000000000060448201526064016102b1565b6000805b84518110156111b457838051906020012085828151811061118f5761118f611f55565b602002602001015180519060200120036111ac57600191506111b4565b60010161116c565b50806112185760405162461bcd60e51b815260206004820152602d60248201527f4f776e657220726f6c65206d757374206265206f6e65206f662074686520617660448201526c61696c61626c6520726f6c657360981b60648201526084016102b1565b60003386868660405161122a9061187a565b6112379493929190611fe6565b604051809103906000f080158015611253573d6000803e3d6000fd5b503360008181526002602090815260408083208054600181810183559185528385200180546001600160a01b0388166001600160a01b031991821681179092558186526003909452828520805460ff1916831790556004805492830181559094527f8a35acfbc15ff81a39ae7d344fd709f28e8600b4aa8c65c6b64bfe7fe36bd19b01805490921683179091555192935083929091907ff474a44bbf67e28a60e1e8977a0d7bdf30896d6b88b7c83710a32ad5276119949061131d908b90620f423f90429061203b565b60405180910390a39695505050505050565b6000818154811061133f57600080fd5b906000526020600020906005020160009150905080600001805461136290611f6b565b80601f016020809104026020016040519081016040528092919081815260200182805461138e90611f6b565b80156113db5780601f106113b0576101008083540402835291602001916113db565b820191906000526020600020905b8154815290600101906020018083116113be57829003601f168201915b5050505050908060010180546113f090611f6b565b80601f016020809104026020016040519081016040528092919081815260200182805461141c90611f6b565b80156114695780601f1061143e57610100808354040283529160200191611469565b820191906000526020600020905b81548152906001019060200180831161144c57829003601f168201915b50505050509080600301805461147e90611f6b565b80601f01602080910402602001604051908101604052809291908181526020018280546114aa90611f6b565b80156114f75780601f106114cc576101008083540402835291602001916114f7565b820191906000526020600020905b8154815290600101906020018083116114da57829003601f168201915b5050506004909301549192505060ff1684565b600061151885858585611632565b600054611527906001906120a1565b95945050505050565b6001600160a01b03811660009081526002602090815260409182902080548351818402810184019094528084526060939283018282801561159a57602002820191906000526020600020905b81546001600160a01b0316815260019091019060200180831161157c575b50505050509050919050565b60005460609082106115ca5760405162461bcd60e51b81526004016102b190611f1e565b6000828152600160209081526040918290208054835181840281018401909452808452909183018282801561159a576020028201919060005260206000209081546001600160a01b0316815260019091019060200180831161157c5750505050509050919050565b60008451116116835760405162461bcd60e51b815260206004820152601d60248201527f54656d706c617465206e616d652063616e6e6f7420626520656d70747900000060448201526064016102b1565b60008251116116a45760405162461bcd60e51b81526004016102b190612060565b6000805b83518110156116f05782805190602001208482815181106116cb576116cb611f55565b602002602001015180519060200120036116e857600191506116f0565b6001016116a8565b508061175c5760405162461bcd60e51b815260206004820152603560248201527f44656661756c74206f776e657220726f6c65206d757374206265206f6e65206f604482015274662074686520617661696c61626c6520726f6c657360581b60648201526084016102b1565b6040805160a08101825286815260208101869052908101849052606081018390526001608082018190526000805491820181558052815160059091027f290decd9548b62a8d60345a988386fc84ba6bc95484008f6362f93160ef3e563019081906117c79082612117565b50602082015160018201906117dc9082612117565b50604082015180516117f8916002840191602090910190611887565b506060820151600382019061180d9082612117565b50608091909101516004909101805460ff1916911515919091179055600054611838906001906120a1565b7f2d28503a05a824e6724624b7735b66ec868459d0d7b315ee265ec995b887939286864260405161186b939291906121d5565b60405180910390a25050505050565b612b8e8061220c83390190565b8280548282559060005260206000209081019282156118cd579160200282015b828111156118cd57825182906118bd9082612117565b50916020019190600101906118a7565b506118d99291506118dd565b5090565b808211156118d95760006118f182826118fa565b506001016118dd565b50805461190690611f6b565b6000825580601f10611916575050565b601f0160209004906000526020600020908101906119349190611937565b50565b5b808211156118d95760008155600101611938565b80356001600160a01b038116811461196357600080fd5b919050565b60006020828403121561197a57600080fd5b6119838261194c565b9392505050565b60006020828403121561199c57600080fd5b5035919050565b600080604083850312156119b657600080fd5b6119bf8361194c565b946020939093013593505050565b6000815180845260005b818110156119f3576020818501810151868301820152016119d7565b506000602082860101526020601f19601f83011685010191505092915050565b600082825180855260208501945060208160051b8301016020850160005b83811015611a6357601f19858403018852611a4d8383516119cd565b6020988901989093509190910190600101611a31565b50909695505050505050565b60a081526000611a8260a08301886119cd565b8281036020840152611a9481886119cd565b90508281036040840152611aa88187611a13565b90508281036060840152611abc81866119cd565b91505082151560808301529695505050505050565b634e487b7160e01b600052604160045260246000fd5b604051601f8201601f191681016001600160401b0381118282101715611b0f57611b0f611ad1565b604052919050565b600082601f830112611b2857600080fd5b81356001600160401b03811115611b4157611b41611ad1565b611b54601f8201601f1916602001611ae7565b818152846020838601011115611b6957600080fd5b816020850160208301376000918101602001919091529392505050565b600080600060608486031215611b9b57600080fd5b8335925060208401356001600160401b03811115611bb857600080fd5b611bc486828701611b17565b92505060408401356001600160401b03811115611be057600080fd5b611bec86828701611b17565b9150509250925092565b60008060408385031215611c0957600080fd5b50508035926020909101359150565b602080825282518282018190526000918401906040840190835b81811015611c595783516001600160a01b0316835260209384019390920191600101611c32565b509095945050505050565b60808082528551908201819052600090602087019060a0840190835b81811015611c9e578351835260209384019390920191600101611c80565b50508381036020850152611cb28188611a13565b9150508281036040840152611cc78186611a13565b83810360608501528451808252602080870193509091019060005b81811015611d025783511515835260209384019390920191600101611ce2565b509098975050505050505050565b600082601f830112611d2157600080fd5b81356001600160401b03811115611d3a57611d3a611ad1565b8060051b611d4a60208201611ae7565b91825260208185018101929081019086841115611d6657600080fd5b6020860192505b83831015611dac5782356001600160401b03811115611d8b57600080fd5b611d9a886020838a0101611b17565b83525060209283019290910190611d6d565b9695505050505050565b600080600060608486031215611dcb57600080fd5b83356001600160401b03811115611de157600080fd5b611ded86828701611b17565b93505060208401356001600160401b03811115611e0957600080fd5b611bc486828701611d10565b608081526000611e2860808301876119cd565b8281036020840152611e3a81876119cd565b90508281036040840152611e4e81866119cd565b915050821515606083015295945050505050565b60008060008060808587031215611e7857600080fd5b84356001600160401b03811115611e8e57600080fd5b611e9a87828801611b17565b94505060208501356001600160401b03811115611eb657600080fd5b611ec287828801611b17565b93505060408501356001600160401b03811115611ede57600080fd5b611eea87828801611d10565b92505060608501356001600160401b03811115611f0657600080fd5b611f1287828801611b17565b91505092959194509250565b60208082526017908201527f54656d706c61746520646f6573206e6f74206578697374000000000000000000604082015260600190565b634e487b7160e01b600052603260045260246000fd5b600181811c90821680611f7f57607f821691505b602082108103611f9f57634e487b7160e01b600052602260045260246000fd5b50919050565b60208082526021908201527f50726f6a656374206f626a6563746976652063616e6e6f7420626520656d70746040820152607960f81b606082015260800190565b6001600160a01b038516815260806020820181905260009061200a908301866119cd565b828103604084015261201c8186611a13565b9050828103606084015261203081856119cd565b979650505050505050565b60608152600061204e60608301866119cd565b60208301949094525060400152919050565b60208082526021908201527f4174206c65617374206f6e6520726f6c65206d75737420626520646566696e656040820152601960fa1b606082015260800190565b818103818111156120c257634e487b7160e01b600052601160045260246000fd5b92915050565b601f82111561211257806000526020600020601f840160051c810160208510156120ef5750805b601f840160051c820191505b8181101561210f57600081556001016120fb565b50505b505050565b81516001600160401b0381111561213057612130611ad1565b6121448161213e8454611f6b565b846120c8565b6020601f82116001811461217857600083156121605750848201515b600019600385901b1c1916600184901b17845561210f565b600084815260208120601f198516915b828110156121a85787850151825560209485019460019092019101612188565b50848210156121c65786840151600019600387901b60f8161c191681555b50505050600190811b01905550565b6060815260006121e860608301866119cd565b82810360208401526121fa81866119cd565b91505082604083015294935050505056fe608060405234801561001057600080fd5b50604051612b8e380380612b8e83398101604081905261002f91610300565b600080546001600160a01b0319166001600160a01b038616179055600161005684826104d2565b5042600355620f423f6004556005805460ff19169055600060068190555b825181101561010e57600283828151811061009157610091610590565b602090810291909101810151825460018101845560009384529190922001906100ba90826104d2565b50600160088483815181106100d1576100d1610590565b60200260200101516040516100e691906105a6565b908152604051908190036020019020805491151560ff19909216919091179055600101610074565b50604080516080810182526001600160a01b03868116808352602080840186815242858701526001606086018190526000938452600790925294909120835181546001600160a01b03191693169290921782559251919290919082019061017590826104d2565b5060408281015160028301556060909201516003909101805460ff1916911515919091179055600980546001810182556000919091527f6e1540171b6c0c960b71a7020d9f60077f6af931a8bbf590da0223dacf75c7af0180546001600160a01b0319166001600160a01b03871690811790915590517fac4f9610b174640b0a902ce555faa384cc9c9d291750f76e476f26f97bd079b49061021a90849042906105c2565b60405180910390a2505050506105fd565b634e487b7160e01b600052604160045260246000fd5b604051601f8201601f191681016001600160401b03811182821017156102695761026961022b565b604052919050565b60005b8381101561028c578181015183820152602001610274565b50506000910152565b600082601f8301126102a657600080fd5b81516001600160401b038111156102bf576102bf61022b565b6102d2601f8201601f1916602001610241565b8181528460208386010111156102e757600080fd5b6102f8826020830160208701610271565b949350505050565b6000806000806080858703121561031657600080fd5b84516001600160a01b038116811461032d57600080fd5b60208601519094506001600160401b0381111561034957600080fd5b61035587828801610295565b604087015190945090506001600160401b0381111561037357600080fd5b8501601f8101871361038457600080fd5b80516001600160401b0381111561039d5761039d61022b565b8060051b6103ad60208201610241565b9182526020818401810192908101908a8411156103c957600080fd5b6020850192505b8383101561040f5782516001600160401b038111156103ee57600080fd5b6103fd8c602083890101610295565b835250602092830192909101906103d0565b60608a0151909650935050506001600160401b03821115905061043157600080fd5b61043d87828801610295565b91505092959194509250565b600181811c9082168061045d57607f821691505b60208210810361047d57634e487b7160e01b600052602260045260246000fd5b50919050565b601f8211156104cd57806000526020600020601f840160051c810160208510156104aa5750805b601f840160051c820191505b818110156104ca57600081556001016104b6565b50505b505050565b81516001600160401b038111156104eb576104eb61022b565b6104ff816104f98454610449565b84610483565b6020601f821160018114610533576000831561051b5750848201515b600019600385901b1c1916600184901b1784556104ca565b600084815260208120601f198516915b828110156105635787850151825560209485019460019092019101610543565b50848210156105815786840151600019600387901b60f8161c191681555b50505050600190811b01905550565b634e487b7160e01b600052603260045260246000fd5b600082516105b8818460208701610271565b9190910192915050565b60408152600083518060408401526105e1816060850160208801610271565b602083019390935250601f91909101601f191601606001919050565b6125828061060c6000396000f3fe608060405234801561001057600080fd5b50600436106102485760003560e01c806369788c8e1161013b578063be7d4cab116100b8578063cf09e0d01161007c578063cf09e0d014610501578063dacb4f8d1461050a578063dfb748aa1461051d578063e7aa3afc14610530578063ef2131061461055a57600080fd5b8063be7d4cab146104be578063bef4876b146104c6578063c127c247146104d3578063c3feda17146104e6578063cc4e6299146104ee57600080fd5b80639c5d9673116100ff5780639c5d967314610432578063a230c5241461043a578063b2d6e74014610469578063b56864791461047c578063bdc232b81461048f57600080fd5b806369788c8e146103fd5780637aa77f29146104055780637b3529621461040e5780637c0f6b3514610419578063893d20e81461042157600080fd5b806326ecb087116101c957806347d54bff1161018d57806347d54bff146103af5780635076ef47146103b857806355ff58d4146103cd5780635e7a8cf0146103d557806369639749146103ea57600080fd5b806326ecb087146103255780632ada259614610363578063383e1a5e146103765780633c652a9a14610389578063472c350f1461039c57600080fd5b806314f1586a1161021057806314f1586a146102e8578063155f7911146102f057806317d7de7c14610303578063188c26cc1461030b57806322faa41f1461031d57600080fd5b806302d05d3f1461024d57806306a7c8de1461027d57806308ae4b0c1461029d5780630948bb38146102c05780630b1ca49a146102d5575b600080fd5b600054610260906001600160a01b031681565b6040516001600160a01b0390911681526020015b60405180910390f35b61029061028b366004611f52565b61056d565b6040516102749190611fbb565b6102b06102ab366004611ff1565b610619565b604051610274949392919061200c565b6102d36102ce366004611f52565b6106d8565b005b6102d36102e3366004611ff1565b610774565b6102906109b1565b6102d36102fe3660046120ed565b6109be565b610290610baf565b600b545b604051908152602001610274565b60095461030f565b6103536103333660046120ed565b805160208183018101805160088252928201919093012091525460ff1681565b6040519015158152602001610274565b6102b0610371366004611ff1565b610c41565b6102b0610384366004611ff1565b610d4e565b610260610397366004611f52565b610d9b565b6102d36103aa3660046120ed565b610dc5565b61030f60065481565b6103c0611045565b604051610274919061212a565b61029061111e565b6103dd611148565b604051610274919061218f565b6102906103f8366004611ff1565b6111a9565b6102d3611292565b61030f60045481565b60055460ff16610353565b6103dd61132e565b6000546001600160a01b0316610260565b60045461030f565b610353610448366004611ff1565b6001600160a01b031660009081526007602052604090206003015460ff1690565b6102d36104773660046121db565b61138e565b6102d361048a366004611ff1565b61156c565b61035361049d366004611ff1565b6001600160a01b03166000908152600a602052604090206003015460ff1690565b60065461030f565b6005546103539060ff1681565b6102d36104e13660046121db565b611643565b6102d361188e565b6102606104fc366004611f52565b611949565b61030f60035481565b6102d36105183660046120ed565b611959565b6102d361052b366004611ff1565b611ad3565b6005546006546003546040805160ff90941615158452602084019290925290820152606001610274565b6102b0610568366004611ff1565b611e25565b6002818154811061057d57600080fd5b90600052602060002001600091509050805461059890612229565b80601f01602080910402602001604051908101604052809291908181526020018280546105c490612229565b80156106115780601f106105e657610100808354040283529160200191610611565b820191906000526020600020905b8154815290600101906020018083116105f457829003601f168201915b505050505081565b600760205260009081526040902080546001820180546001600160a01b03909216929161064590612229565b80601f016020809104026020016040519081016040528092919081815260200182805461067190612229565b80156106be5780601f10610693576101008083540402835291602001916106be565b820191906000526020600020905b8154815290600101906020018083116106a157829003601f168201915b50505050600283015460039093015491929160ff16905084565b600454620f423f146107315760405162461bcd60e51b815260206004820152601760248201527f54656d706c61746520494420616c72656164792073657400000000000000000060448201526064015b60405180910390fd5b3361076f5760405162461bcd60e51b815260206004820152600e60248201526d24b73b30b634b21031b0b63632b960911b6044820152606401610728565b600455565b6000546001600160a01b0316331461079e5760405162461bcd60e51b815260040161072890612263565b60055460ff16156107c15760405162461bcd60e51b8152600401610728906122af565b6001600160a01b03811660009081526007602052604090206003015460ff166107fc5760405162461bcd60e51b8152600401610728906122e6565b6000546001600160a01b039081169082160361085a5760405162461bcd60e51b815260206004820152601d60248201527f43616e6e6f742072656d6f76652070726f6a6563742063726561746f720000006044820152606401610728565b6001600160a01b0381166000908152600760205260408120600301805460ff191690555b60095481101561097957816001600160a01b0316600982815481106108a5576108a5612315565b6000918252602090912001546001600160a01b03160361097157600980546108cf9060019061232b565b815481106108df576108df612315565b600091825260209091200154600980546001600160a01b03909216918390811061090b5761090b612315565b9060005260206000200160006101000a8154816001600160a01b0302191690836001600160a01b03160217905550600980548061094a5761094a612352565b600082815260209020810160001990810180546001600160a01b0319169055019055610979565b60010161087e565b506040516001600160a01b038216907f6e76fb4c77256006d9c38ec7d82b45a8c8f3c27b1d6766fffc42dfb8de68449290600090a250565b6001805461059890612229565b806008816040516109cf9190612368565b9081526040519081900360200190205460ff166109fe5760405162461bcd60e51b815260040161072890612384565b60055460ff1615610a215760405162461bcd60e51b8152600401610728906122af565b6000546001600160a01b03163314610a905760405162461bcd60e51b815260206004820152602c60248201527f4f6e6c792070726f6a656374206f776e65722063616e2075706461746520746860448201526b656972206f776e20726f6c6560a01b6064820152608401610728565b600080546001600160a01b031681526007602052604081206001018054610ab690612229565b80601f0160208091040260200160405190810160405280929190818152602001828054610ae290612229565b8015610b2f5780601f10610b0457610100808354040283529160200191610b2f565b820191906000526020600020905b815481529060010190602001808311610b1257829003601f168201915b5050600080546001600160a01b0316815260076020526040902093945050506001919091019050610b6084826123f9565b506000546040516001600160a01b03909116907f2b6b575197263ee88365c8324c9c92e3869de9adbe176c769009afef44d8b09790610ba290849087906124b8565b60405180910390a2505050565b606060018054610bbe90612229565b80601f0160208091040260200160405190810160405280929190818152602001828054610bea90612229565b8015610c375780601f10610c0c57610100808354040283529160200191610c37565b820191906000526020600020905b815481529060010190602001808311610c1a57829003601f168201915b5050505050905090565b6001600160a01b03808216600090815260076020908152604080832081516080810190925280549094168152600184018054939460609486948594859490939291840191610c8e90612229565b80601f0160208091040260200160405190810160405280929190818152602001828054610cba90612229565b8015610d075780601f10610cdc57610100808354040283529160200191610d07565b820191906000526020600020905b815481529060010190602001808311610cea57829003601f168201915b5050509183525050600282015460208083019190915260039092015460ff161515604091820152825191830151908301516060909301519199909850919650945092505050565b6001600160a01b038082166000908152600a6020908152604080832081516080810190925280549094168152600184018054939460609486948594859490939291840191610c8e90612229565b600b8181548110610dab57600080fd5b6000918252602090912001546001600160a01b0316905081565b80600881604051610dd69190612368565b9081526040519081900360200190205460ff16610e055760405162461bcd60e51b815260040161072890612384565b60055460ff1615610e285760405162461bcd60e51b8152600401610728906122af565b6000546001600160a01b03163303610e825760405162461bcd60e51b815260206004820152601b60248201527f43726561746f7220697320616c72656164792061206d656d62657200000000006044820152606401610728565b3360009081526007602052604090206003015460ff1615610ed85760405162461bcd60e51b815260206004820152601060248201526f20b63932b0b23c90309036b2b6b132b960811b6044820152606401610728565b336000908152600a602052604090206003015460ff1615610f3b5760405162461bcd60e51b815260206004820152601c60248201527f4a6f696e207265717565737420616c72656164792070656e64696e67000000006044820152606401610728565b6040805160808101825233808252602080830186815242848601526001606085018190526000938452600a90925293909120825181546001600160a01b0319166001600160a01b03909116178155925191929190820190610f9c90826123f9565b5060408281015160028301556060909201516003909101805460ff1916911515919091179055600b80546001810182556000919091527f0175b7a638427703f0dbe7bb9bbf987a2551717b34e79f33b5b1008d1fa01db9018054336001600160a01b0319909116811790915590517fe4d6c018abd0178d4bce0856089ef1876318617b97a1d700bb98506598ab0afc9061103990859042906124e6565b60405180910390a25050565b60606002805480602002602001604051908101604052809291908181526020016000905b8282101561111557838290600052602060002001805461108890612229565b80601f01602080910402602001604051908101604052809291908181526020018280546110b490612229565b80156111015780601f106110d657610100808354040283529160200191611101565b820191906000526020600020905b8154815290600101906020018083116110e457829003601f168201915b505050505081526020019060010190611069565b50505050905090565b600080546001600160a01b03168152600760205260409020600101805460609190610bbe90612229565b6060600b805480602002602001604051908101604052809291908181526020018280548015610c3757602002820191906000526020600020905b81546001600160a01b03168152600190910190602001808311611182575050505050905090565b6001600160a01b03811660009081526007602052604090206003015460609060ff166111e75760405162461bcd60e51b8152600401610728906122e6565b6001600160a01b0382166000908152600760205260409020600101805461120d90612229565b80601f016020809104026020016040519081016040528092919081815260200182805461123990612229565b80156112865780601f1061125b57610100808354040283529160200191611286565b820191906000526020600020905b81548152906001019060200180831161126957829003601f168201915b50505050509050919050565b6000546001600160a01b031633146112bc5760405162461bcd60e51b815260040161072890612263565b60055460ff16156112df5760405162461bcd60e51b8152600401610728906122af565b6005805460ff191660011790554260068190556040517f5032973ebecb355d37badc06a2e7e34401c2b21eaade274aa03b3730fa18ff8a916113249190815260200190565b60405180910390a1565b60606009805480602002602001604051908101604052809291908181526020018280548015610c37576020028201919060005260206000209081546001600160a01b03168152600190910190602001808311611182575050505050905090565b6000546001600160a01b031633146113b85760405162461bcd60e51b815260040161072890612263565b806008816040516113c99190612368565b9081526040519081900360200190205460ff166113f85760405162461bcd60e51b815260040161072890612384565b60055460ff161561141b5760405162461bcd60e51b8152600401610728906122af565b6001600160a01b03831660009081526007602052604090206003015460ff166114565760405162461bcd60e51b8152600401610728906122e6565b6001600160a01b0383166000908152600760205260408120600101805461147c90612229565b80601f01602080910402602001604051908101604052809291908181526020018280546114a890612229565b80156114f55780601f106114ca576101008083540402835291602001916114f5565b820191906000526020600020905b8154815290600101906020018083116114d857829003601f168201915b505050506001600160a01b03861660009081526007602052604090209192505060010161152284826123f9565b50836001600160a01b03167f2b6b575197263ee88365c8324c9c92e3869de9adbe176c769009afef44d8b097828560405161155e9291906124b8565b60405180910390a250505050565b6000546001600160a01b031633146115965760405162461bcd60e51b815260040161072890612263565b6001600160a01b0381166000908152600a602052604090206003015460ff166115d15760405162461bcd60e51b815260040161072890612508565b6001600160a01b0381166000908152600a60205260409020600301805460ff191690556115fd81611e51565b806001600160a01b03167f18ed9b1d82e034b0d16f7b1b054bcb78c348bb222503d3939bda21c0304439ae4260405161163891815260200190565b60405180910390a250565b6000546001600160a01b0316331461166d5760405162461bcd60e51b815260040161072890612263565b8060088160405161167e9190612368565b9081526040519081900360200190205460ff166116ad5760405162461bcd60e51b815260040161072890612384565b60055460ff16156116d05760405162461bcd60e51b8152600401610728906122af565b6001600160a01b03831661171f5760405162461bcd60e51b8152602060048201526016602482015275496e76616c6964206d656d626572206164647265737360501b6044820152606401610728565b6001600160a01b03831660009081526007602052604090206003015460ff16156117835760405162461bcd60e51b81526020600482015260156024820152744d656d62657220616c72656164792065786973747360581b6044820152606401610728565b604080516080810182526001600160a01b03858116808352602080840187815242858701526001606086018190526000938452600790925294909120835181546001600160a01b0319169316929092178255925191929091908201906117e990826123f9565b5060408281015160028301556060909201516003909101805460ff1916911515919091179055600980546001810182556000919091527f6e1540171b6c0c960b71a7020d9f60077f6af931a8bbf590da0223dacf75c7af0180546001600160a01b0319166001600160a01b03861690811790915590517fac4f9610b174640b0a902ce555faa384cc9c9d291750f76e476f26f97bd079b490610ba290859042906124e6565b6000546001600160a01b031633146118b85760405162461bcd60e51b815260040161072890612263565b60055460ff1661190a5760405162461bcd60e51b815260206004820152601760248201527f50726f6a656374206973206e6f742066696e69736865640000000000000000006044820152606401610728565b6005805460ff1916905560006006556040514281527f9576a19393a9bc6046453e73d876fcb4d8a526e5d536a4e9b9def2a43bda709590602001611324565b60098181548110610dab57600080fd5b6000546001600160a01b031633146119835760405162461bcd60e51b815260040161072890612263565b60055460ff16156119a65760405162461bcd60e51b8152600401610728906122af565b60008151116119f75760405162461bcd60e51b815260206004820152601960248201527f4f626a6563746976652063616e6e6f7420626520656d707479000000000000006044820152606401610728565b600060018054611a0690612229565b80601f0160208091040260200160405190810160405280929190818152602001828054611a3290612229565b8015611a7f5780601f10611a5457610100808354040283529160200191611a7f565b820191906000526020600020905b815481529060010190602001808311611a6257829003601f168201915b505050505090508160019081611a9591906123f9565b507fa41bff8653f795d7a3b8ee4679220a1e32b3975fcb82941ef269b9bd17da381d8183604051611ac79291906124b8565b60405180910390a15050565b6000546001600160a01b03163314611afd5760405162461bcd60e51b815260040161072890612263565b60055460ff1615611b205760405162461bcd60e51b8152600401610728906122af565b6001600160a01b0381166000908152600a602052604090206003015460ff16611b5b5760405162461bcd60e51b815260040161072890612508565b6001600160a01b03811660009081526007602052604090206003015460ff1615611bc75760405162461bcd60e51b815260206004820152601860248201527f5573657220697320616c72656164792061206d656d62657200000000000000006044820152606401610728565b6001600160a01b038082166000908152600a6020908152604080832081516080810190925280549094168152600184018054939491939192840191611c0b90612229565b80601f0160208091040260200160405190810160405280929190818152602001828054611c3790612229565b8015611c845780601f10611c5957610100808354040283529160200191611c84565b820191906000526020600020905b815481529060010190602001808311611c6757829003601f168201915b5050509183525050600282015460208083019190915260039092015460ff16151560409182015280516080810182526001600160a01b0386811680835285850151838601908152428486015260016060850181905260009283526007909652939020825181546001600160a01b03191692169190911781559151939450929091820190611d1190826123f9565b5060408281015160028301556060909201516003918201805491151560ff1992831617905560098054600181019091557f6e1540171b6c0c960b71a7020d9f60077f6af931a8bbf590da0223dacf75c7af0180546001600160a01b0387166001600160a01b031990911681179091556000908152600a602052929092200180549091169055611d9f82611e51565b816001600160a01b03167f2c3efd81f5e8701b646cfce4c64341fcec3b0025a3219b9bec0c8cbcfebd077e826020015142604051611dde9291906124e6565b60405180910390a2816001600160a01b03167fac4f9610b174640b0a902ce555faa384cc9c9d291750f76e476f26f97bd079b48260200151426040516110399291906124e6565b600a60205260009081526040902080546001820180546001600160a01b03909216929161064590612229565b60005b600b54811015611f4e57816001600160a01b0316600b8281548110611e7b57611e7b612315565b6000918252602090912001546001600160a01b031603611f4657600b8054611ea59060019061232b565b81548110611eb557611eb5612315565b600091825260209091200154600b80546001600160a01b039092169183908110611ee157611ee1612315565b9060005260206000200160006101000a8154816001600160a01b0302191690836001600160a01b03160217905550600b805480611f2057611f20612352565b600082815260209020810160001990810180546001600160a01b03191690550190555050565b600101611e54565b5050565b600060208284031215611f6457600080fd5b5035919050565b60005b83811015611f86578181015183820152602001611f6e565b50506000910152565b60008151808452611fa7816020860160208601611f6b565b601f01601f19169290920160200192915050565b602081526000611fce6020830184611f8f565b9392505050565b80356001600160a01b0381168114611fec57600080fd5b919050565b60006020828403121561200357600080fd5b611fce82611fd5565b6001600160a01b038516815260806020820181905260009061203090830186611f8f565b60408301949094525090151560609091015292915050565b634e487b7160e01b600052604160045260246000fd5b600082601f83011261206f57600080fd5b813567ffffffffffffffff81111561208957612089612048565b604051601f8201601f19908116603f0116810167ffffffffffffffff811182821017156120b8576120b8612048565b6040528181528382016020018510156120d057600080fd5b816020850160208301376000918101602001919091529392505050565b6000602082840312156120ff57600080fd5b813567ffffffffffffffff81111561211657600080fd5b6121228482850161205e565b949350505050565b6000602082016020835280845180835260408501915060408160051b86010192506020860160005b8281101561218357603f1987860301845261216e858351611f8f565b94506020938401939190910190600101612152565b50929695505050505050565b602080825282518282018190526000918401906040840190835b818110156121d05783516001600160a01b03168352602093840193909201916001016121a9565b509095945050505050565b600080604083850312156121ee57600080fd5b6121f783611fd5565b9150602083013567ffffffffffffffff81111561221357600080fd5b61221f8582860161205e565b9150509250929050565b600181811c9082168061223d57607f821691505b60208210810361225d57634e487b7160e01b600052602260045260246000fd5b50919050565b6020808252602c908201527f4f6e6c792070726f6a6563742063726561746f722063616e20706572666f726d60408201526b103a3434b99030b1ba34b7b760a11b606082015260800190565b6020808252601b908201527f50726f6a65637420697320616c72656164792066696e69736865640000000000604082015260600190565b60208082526015908201527413595b58995c88191bd95cc81b9bdd08195e1a5cdd605a1b604082015260600190565b634e487b7160e01b600052603260045260246000fd5b8181038181111561234c57634e487b7160e01b600052601160045260246000fd5b92915050565b634e487b7160e01b600052603160045260246000fd5b6000825161237a818460208701611f6b565b9190910192915050565b6020808252600c908201526b496e76616c696420726f6c6560a01b604082015260600190565b601f8211156123f457806000526020600020601f840160051c810160208510156123d15750805b601f840160051c820191505b818110156123f157600081556001016123dd565b50505b505050565b815167ffffffffffffffff81111561241357612413612048565b612427816124218454612229565b846123aa565b6020601f82116001811461245b57600083156124435750848201515b600019600385901b1c1916600184901b1784556123f1565b600084815260208120601f198516915b8281101561248b578785015182556020948501946001909201910161246b565b50848210156124a95786840151600019600387901b60f8161c191681555b50505050600190811b01905550565b6040815260006124cb6040830185611f8f565b82810360208401526124dd8185611f8f565b95945050505050565b6040815260006124f96040830185611f8f565b90508260208301529392505050565b60208082526024908201527f4e6f2070656e64696e6720726571756573742066726f6d2074686973206164646040820152637265737360e01b60608201526080019056fea2646970667358221220bdae4aaa161022387170271f6b54f9a103b119e7ecbf72d25219ad963d03671264736f6c634300081c0033a26469706673582212209c681f6650248210255bafcc4ec4a21fdd39c56e1e20e65610e52e5aeeb482fe64736f6c634300081c0033436f6c6c61626f726174697665206d616368696e65206c6561726e696e672070726f6a65637420776865726520646174612072656d61696e73206469737472696275746564",
  "linkReferences": {},
  "deployedLinkReferences": {}
}