{
  "_format": "hh-sol-artifact-1",
  "contractName": "Project",
  "sourceName": "contracts/Project.sol",
  "abi": [
    {
      "inputs": [
        {
          "internalType": "address",
          "name": "_creator",
          "type": "address"
        },
        {
          "internalType": "string",
          "name": "_objective",
          "type": "string"
        },
        {
          "internalType": "string[]",
          "name": "_availableRoles",
          "type": "string[]"
        },
        {
          "internalType": "string",
          "name": "_ownerRole",
          "type": "string"
        }
      ],
      "stateMutability": "nonpayable",
      "type": "constructor"
    },
    {
      "anonymous": false,
      "inputs": [
        {
          "indexed": true,
          "internalType": "address",
          "name": "requester",
          "type": "address"
        },
        {
          "indexed": false,
          "internalType": "string",
          "name": "role",
          "type": "string"
        },
        {
          "indexed": false,
          "internalType": "uint256",
          "name": "timestamp",
          "type": "uint256"
        }
      ],
      "name": "JoinRequestApproved",
      "type": "event"
    },
    {
      "anonymous": false,
      "inputs": [
        {
          "indexed": true,
          "internalType": "address",
          "name": "requester",
          "type": "address"
        },
        {
          "indexed": false,
          "internalType": "uint256",
          "name": "timestamp",
          "type": "uint256"
        }
      ],
      "name": "JoinRequestRejected",
      "type": "event"
    },
    {
      "anonymous": false,
      "inputs": [
        {
          "indexed": true,
          "internalType": "address",
          "name": "requester",
          "type": "address"
        },
        {
          "indexed": false,
          "internalType": "string",
          "name": "requestedRole",
          "type": "string"
        },
        {
          "indexed": false,
          "internalType": "uint256",
          "name": "timestamp",
          "type": "uint256"
        }
      ],
      "name": "JoinRequestSubmitted",
      "type": "event"
    },
    {
      "anonymous": false,
      "inputs": [
        {
          "indexed": true,
          "internalType": "address",
          "name": "member",
          "type": "address"
        },
        {
          "indexed": false,
          "internalType": "string",
          "name": "role",
          "type": "string"
        },
        {
          "indexed": false,
          "internalType": "uint256",
          "name": "timestamp",
          "type": "uint256"
        }
      ],
      "name": "MemberAdded",
      "type": "event"
    },
    {
      "anonymous": false,
      "inputs": [
        {
          "indexed": true,
          "internalType": "address",
          "name": "member",
          "type": "address"
        }
      ],
      "name": "MemberRemoved",
      "type": "event"
    },
    {
      "anonymous": false,
      "inputs": [
        {
          "indexed": true,
          "internalType": "address",
          "name": "member",
          "type": "address"
        },
        {
          "indexed": false,
          "internalType": "string",
          "name": "oldRole",
          "type": "string"
        },
        {
          "indexed": false,
          "internalType": "string",
          "name": "newRole",
          "type": "string"
        }
      ],
      "name": "MemberRoleUpdated",
      "type": "event"
    },
    {
      "anonymous": false,
      "inputs": [
        {
          "indexed": false,
          "internalType": "string",
          "name": "oldObjective",
          "type": "string"
        },
        {
          "indexed": false,
          "internalType": "string",
          "name": "newObjective",
          "type": "string"
        }
      ],
      "name": "ObjectiveUpdated",
      "type": "event"
    },
    {
      "anonymous": false,
      "inputs": [
        {
          "indexed": false,
          "internalType": "uint256",
          "name": "timestamp",
          "type": "uint256"
        }
      ],
      "name": "ProjectFinished",
      "type": "event"
    },
    {
      "anonymous": false,
      "inputs": [
        {
          "indexed": false,
          "internalType": "uint256",
          "name": "timestamp",
          "type": "uint256"
        }
      ],
      "name": "ProjectReactivated",
      "type": "event"
    },
    {
      "inputs": [
        {
          "internalType": "address",
          "name": "_member",
          "type": "address"
        },
        {
          "internalType": "string",
          "name": "_role",
          "type": "string"
        }
      ],
      "name": "addMember",
      "outputs": [],
      "stateMutability": "nonpayable",
      "type": "function"
    },
    {
      "inputs": [
        {
          "internalType": "address",
          "name": "_requester",
          "type": "address"
        }
      ],
      "name": "approveJoinRequest",
      "outputs": [],
      "stateMutability": "nonpayable",
      "type": "function"
    },
    {
      "inputs": [
        {
          "internalType": "uint256",
          "name": "",
          "type": "uint256"
        }
      ],
      "name": "availableRoles",
      "outputs": [
        {
          "internalType": "string",
          "name": "",
          "type": "string"
        }
      ],
      "stateMutability": "view",
      "type": "function"
    },
    {
      "inputs": [],
      "name": "createdAt",
      "outputs": [
        {
          "internalType": "uint256",
          "name": "",
          "type": "uint256"
        }
      ],
      "stateMutability": "view",
      "type": "function"
    },
    {
      "inputs": [],
      "name": "creator",
      "outputs": [
        {
          "internalType": "address",
          "name": "",
          "type": "address"
        }
      ],
      "stateMutability": "view",
      "type": "function"
    },
    {
      "inputs": [],
      "name": "finishProject",
      "outputs": [],
      "stateMutability": "nonpayable",
      "type": "function"
    },
    {
      "inputs": [],
      "name": "finished",
      "outputs": [
        {
          "internalType": "bool",
          "name": "",
          "type": "bool"
        }
      ],
      "stateMutability": "view",
      "type": "function"
    },
    {
      "inputs": [],
      "name": "finishedAt",
      "outputs": [
        {
          "internalType": "uint256",
          "name": "",
          "type": "uint256"
        }
      ],
      "stateMutability": "view",
      "type": "function"
    },
    {
      "inputs": [],
      "name": "getActiveMemberCount",
      "outputs": [
        {
          "internalType": "uint256",
          "name": "",
          "type": "uint256"
        }
      ],
      "stateMutability": "view",
      "type": "function"
    },
    {
      "inputs": [],
      "name": "getAllMembers",
      "outputs": [
        {
          "internalType": "address[]",
          "name": "",
          "type": "address[]"
        }
      ],
      "stateMutability": "view",
      "type": "function"
    },
    {
      "inputs": [],
      "name": "getAvailableRoles",
      "outputs": [
        {
          "internalType": "string[]",
          "name": "",
          "type": "string[]"
        }
      ],
      "stateMutability": "view",
      "type": "function"
    },
    {
      "inputs": [],
      "name": "getFinishedAt",
      "outputs": [
        {
          "internalType": "uint256",
          "name": "",
          "type": "uint256"
        }
      ],
      "stateMutability": "view",
      "type": "function"
    },
    {
      "inputs": [
        {
          "internalType": "address",
          "name": "_requester",
          "type": "address"
        }
      ],
      "name": "getJoinRequest",
      "outputs": [
        {
          "internalType": "address",
          "name": "requester",
          "type": "address"
        },
        {
          "internalType": "string",
          "name": "requestedRole",
          "type": "string"
        },
        {
          "internalType": "uint256",
          "name": "requestedAt",
          "type": "uint256"
        },
        {
          "internalType": "bool",
          "name": "isPending",
          "type": "bool"
        }
      ],
      "stateMutability": "view",
      "type": "function"
    },
    {
      "inputs": [
        {
          "internalType": "address",
          "name": "_member",
          "type": "address"
        }
      ],
      "name": "getMember",
      "outputs": [
        {
          "internalType": "address",
          "name": "memberAddress",
          "type": "address"
        },
        {
          "internalType": "string",
          "name": "role",
          "type": "string"
        },
        {
          "internalType": "uint256",
          "name": "joinedAt",
          "type": "uint256"
        },
        {
          "internalType": "bool",
          "name": "isActive",
          "type": "bool"
        }
      ],
      "stateMutability": "view",
      "type": "function"
    },
    {
      "inputs": [
        {
          "internalType": "address",
          "name": "_member",
          "type": "address"
        }
      ],
      "name": "getMemberRole",
      "outputs": [
        {
          "internalType": "string",
          "name": "",
          "type": "string"
        }
      ],
      "stateMutability": "view",
      "type": "function"
    },
    {
      "inputs": [],
      "name": "getName",
      "outputs": [
        {
          "internalType": "string",
          "name": "",
          "type": "string"
        }
      ],
      "stateMutability": "view",
      "type": "function"
    },
    {
      "inputs": [],
      "name": "getOwner",
      "outputs": [
        {
          "internalType": "address",
          "name": "",
          "type": "address"
        }
      ],
      "stateMutability": "view",
      "type": "function"
    },
    {
      "inputs": [],
      "name": "getOwnerRole",
      "outputs": [
        {
          "internalType": "string",
          "name": "",
          "type": "string"
        }
      ],
      "stateMutability": "view",
      "type": "function"
    },
    {
      "inputs": [],
      "name": "getPendingJoinRequests",
      "outputs": [
        {
          "internalType": "address[]",
          "name": "",
          "type": "address[]"
        }
      ],
      "stateMutability": "view",
      "type": "function"
    },
    {
      "inputs": [],
      "name": "getPendingRequestsCount",
      "outputs": [
        {
          "internalType": "uint256",
          "name": "",
          "type": "uint256"
        }
      ],
      "stateMutability": "view",
      "type": "function"
    },
    {
      "inputs": [],
      "name": "getProjectStatus",
      "outputs": [
        {
          "internalType": "bool",
          "name": "projectFinished",
          "type": "bool"
        },
        {
          "internalType": "uint256",
          "name": "finishedTimestamp",
          "type": "uint256"
        },
        {
          "internalType": "uint256",
          "name": "createdTimestamp",
          "type": "uint256"
        }
      ],
      "stateMutability": "view",
      "type": "function"
    },
    {
      "inputs": [],
      "name": "getTemplateId",
      "outputs": [
        {
          "internalType": "uint256",
          "name": "",
          "type": "uint256"
        }
      ],
      "stateMutability": "view",
      "type": "function"
    },
    {
      "inputs": [
        {
          "internalType": "address",
          "name": "_address",
          "type": "address"
        }
      ],
      "name": "hasPendingJoinRequest",
      "outputs": [
        {
          "internalType": "bool",
          "name": "",
          "type": "bool"
        }
      ],
      "stateMutability": "view",
      "type": "function"
    },
    {
      "inputs": [],
      "name": "isFinished",
      "outputs": [
        {
          "internalType": "bool",
          "name": "",
          "type": "bool"
        }
      ],
      "stateMutability": "view",
      "type": "function"
    },
    {
      "inputs": [
        {
          "internalType": "address",
          "name": "_address",
          "type": "address"
        }
      ],
      "name": "isMember",
      "outputs": [
        {
          "internalType": "bool",
          "name": "",
          "type": "bool"
        }
      ],
      "stateMutability": "view",
      "type": "function"
    },
    {
      "inputs": [
        {
          "internalType": "address",
          "name": "",
          "type": "address"
        }
      ],
      "name": "joinRequests",
      "outputs": [
        {
          "internalType": "address",
          "name": "requester",
          "type": "address"
        },
        {
          "internalType": "string",
          "name": "requestedRole",
          "type": "string"
        },
        {
          "internalType": "uint256",
          "name": "requestedAt",
          "type": "uint256"
        },
        {
          "internalType": "bool",
          "name": "isPending",
          "type": "bool"
        }
      ],
      "stateMutability": "view",
      "type": "function"
    },
    {
      "inputs": [
        {
          "internalType": "uint256",
          "name": "",
          "type": "uint256"
        }
      ],
      "name": "memberAddresses",
      "outputs": [
        {
          "internalType": "address",
          "name": "",
          "type": "address"
        }
      ],
      "stateMutability": "view",
      "type": "function"
    },
    {
      "inputs": [
        {
          "internalType": "address",
          "name": "",
          "type": "address"
        }
      ],
      "name": "members",
      "outputs": [
        {
          "internalType": "address",
          "name": "memberAddress",
          "type": "address"
        },
        {
          "internalType": "string",
          "name": "role",
          "type": "string"
        },
        {
          "internalType": "uint256",
          "name": "joinedAt",
          "type": "uint256"
        },
        {
          "internalType": "bool",
          "name": "isActive",
          "type": "bool"
        }
      ],
      "stateMutability": "view",
      "type": "function"
    },
    {
      "inputs": [],
      "name": "objective",
      "outputs": [
        {
          "internalType": "string",
          "name": "",
          "type": "string"
        }
      ],
      "stateMutability": "view",
      "type": "function"
    },
    {
      "inputs": [
        {
          "internalType": "uint256",
          "name": "",
          "type": "uint256"
        }
      ],
      "name": "pendingRequests",
      "outputs": [
        {
          "internalType": "address",
          "name": "",
          "type": "address"
        }
      ],
      "stateMutability": "view",
      "type": "function"
    },
    {
      "inputs": [],
      "name": "reactivateProject",
      "outputs": [],
      "stateMutability": "nonpayable",
      "type": "function"
    },
    {
      "inputs": [
        {
          "internalType": "address",
          "name": "_requester",
          "type": "address"
        }
      ],
      "name": "rejectJoinRequest",
      "outputs": [],
      "stateMutability": "nonpayable",
      "type": "function"
    },
    {
      "inputs": [
        {
          "internalType": "address",
          "name": "_member",
          "type": "address"
        }
      ],
      "name": "removeMember",
      "outputs": [],
      "stateMutability": "nonpayable",
      "type": "function"
    },
    {
      "inputs": [
        {
          "internalType": "string",
          "name": "_requestedRole",
          "type": "string"
        }
      ],
      "name": "requestToJoin",
      "outputs": [],
      "stateMutability": "nonpayable",
      "type": "function"
    },
    {
      "inputs": [
        {
          "internalType": "uint256",
          "name": "_templateId",
          "type": "uint256"
        }
      ],
      "name": "setTemplateId",
      "outputs": [],
      "stateMutability": "nonpayable",
      "type": "function"
    },
    {
      "inputs": [],
      "name": "templateId",
      "outputs": [
        {
          "internalType": "uint256",
          "name": "",
          "type": "uint256"
        }
      ],
      "stateMutability": "view",
      "type": "function"
    },
    {
      "inputs": [
        {
          "internalType": "address",
          "name": "_member",
          "type": "address"
        },
        {
          "internalType": "string",
          "name": "_newRole",
          "type": "string"
        }
      ],
      "name": "updateMemberRole",
      "outputs": [],
      "stateMutability": "nonpayable",
      "type": "function"
    },
    {
      "inputs": [
        {
          "internalType": "string",
          "name": "_newRole",
          "type": "string"
        }
      ],
      "name": "updateMyRole",
      "outputs": [],
      "stateMutability": "nonpayable",
      "type": "function"
    },
    {
      "inputs": [
        {
          "internalType": "string",
          "name": "_newObjective",
          "type": "string"
        }
      ],
      "name": "updateObjective",
      "outputs": [],
      "stateMutability": "nonpayable",
      "type": "function"
    },
    {
      "inputs": [
        {
          "internalType": "string",
          "name": "",
          "type": "string"
        }
      ],
      "name": "validRoles",
      "outputs": [
        {
          "internalType": "bool",
          "name": "",
          "type": "bool"
        }
      ],
      "stateMutability": "view",
      "type": "function"
    }
  ],
  "bytecode": "0x608060405234801561001057600080fd5b50604051612b8e380380612b8e83398101604081905261002f91610300565b600080546001600160a01b0319166001600160a01b038616179055600161005684826104d2565b5042600355620f423f6004556005805460ff19169055600060068190555b825181101561010e57600283828151811061009157610091610590565b602090810291909101810151825460018101845560009384529190922001906100ba90826104d2565b50600160088483815181106100d1576100d1610590565b60200260200101516040516100e691906105a6565b908152604051908190036020019020805491151560ff19909216919091179055600101610074565b50604080516080810182526001600160a01b03868116808352602080840186815242858701526001606086018190526000938452600790925294909120835181546001600160a01b03191693169290921782559251919290919082019061017590826104d2565b5060408281015160028301556060909201516003909101805460ff1916911515919091179055600980546001810182556000919091527f6e1540171b6c0c960b71a7020d9f60077f6af931a8bbf590da0223dacf75c7af0180546001600160a01b0319166001600160a01b03871690811790915590517fac4f9610b174640b0a902ce555faa384cc9c9d291750f76e476f26f97bd079b49061021a90849042906105c2565b60405180910390a2505050506105fd565b634e487b7160e01b600052604160045260246000fd5b604051601f8201601f191681016001600160401b03811182821017156102695761026961022b565b604052919050565b60005b8381101561028c578181015183820152602001610274565b50506000910152565b600082601f8301126102a657600080fd5b81516001600160401b038111156102bf576102bf61022b565b6102d2601f8201601f1916602001610241565b8181528460208386010111156102e757600080fd5b6102f8826020830160208701610271565b949350505050565b6000806000806080858703121561031657600080fd5b84516001600160a01b038116811461032d57600080fd5b60208601519094506001600160401b0381111561034957600080fd5b61035587828801610295565b604087015190945090506001600160401b0381111561037357600080fd5b8501601f8101871361038457600080fd5b80516001600160401b0381111561039d5761039d61022b565b8060051b6103ad60208201610241565b9182526020818401810192908101908a8411156103c957600080fd5b6020850192505b8383101561040f5782516001600160401b038111156103ee57600080fd5b6103fd8c602083890101610295565b835250602092830192909101906103d0565b60608a0151909650935050506001600160401b03821115905061043157600080fd5b61043d87828801610295565b91505092959194509250565b600181811c9082168061045d57607f821691505b60208210810361047d57634e487b7160e01b600052602260045260246000fd5b50919050565b601f8211156104cd57806000526020600020601f840160051c810160208510156104aa5750805b601f840160051c820191505b818110156104ca57600081556001016104b6565b50505b505050565b81516001600160401b038111156104eb576104eb61022b565b6104ff816104f98454610449565b84610483565b6020601f821160018114610533576000831561051b5750848201515b600019600385901b1c1916600184901b1784556104ca565b600084815260208120601f198516915b828110156105635787850151825560209485019460019092019101610543565b50848210156105815786840151600019600387901b60f8161c191681555b50505050600190811b01905550565b634e487b7160e01b600052603260045260246000fd5b600082516105b8818460208701610271565b9190910192915050565b60408152600083518060408401526105e1816060850160208801610271565b602083019390935250601f91909101601f191601606001919050565b6125828061060c6000396000f3fe608060405234801561001057600080fd5b50600436106102485760003560e01c806369788c8e1161013b578063be7d4cab116100b8578063cf09e0d01161007c578063cf09e0d014610501578063dacb4f8d1461050a578063dfb748aa1461051d578063e7aa3afc14610530578063ef2131061461055a57600080fd5b8063be7d4cab146104be578063bef4876b146104c6578063c127c247146104d3578063c3feda17146104e6578063cc4e6299146104ee57600080fd5b80639c5d9673116100ff5780639c5d967314610432578063a230c5241461043a578063b2d6e74014610469578063b56864791461047c578063bdc232b81461048f57600080fd5b806369788c8e146103fd5780637aa77f29146104055780637b3529621461040e5780637c0f6b3514610419578063893d20e81461042157600080fd5b806326ecb087116101c957806347d54bff1161018d57806347d54bff146103af5780635076ef47146103b857806355ff58d4146103cd5780635e7a8cf0146103d557806369639749146103ea57600080fd5b806326ecb087146103255780632ada259614610363578063383e1a5e146103765780633c652a9a14610389578063472c350f1461039c57600080fd5b806314f1586a1161021057806314f1586a146102e8578063155f7911146102f057806317d7de7c14610303578063188c26cc1461030b57806322faa41f1461031d57600080fd5b806302d05d3f1461024d57806306a7c8de1461027d57806308ae4b0c1461029d5780630948bb38146102c05780630b1ca49a146102d5575b600080fd5b600054610260906001600160a01b031681565b6040516001600160a01b0390911681526020015b60405180910390f35b61029061028b366004611f52565b61056d565b6040516102749190611fbb565b6102b06102ab366004611ff1565b610619565b604051610274949392919061200c565b6102d36102ce366004611f52565b6106d8565b005b6102d36102e3366004611ff1565b610774565b6102906109b1565b6102d36102fe3660046120ed565b6109be565b610290610baf565b600b545b604051908152602001610274565b60095461030f565b6103536103333660046120ed565b805160208183018101805160088252928201919093012091525460ff1681565b6040519015158152602001610274565b6102b0610371366004611ff1565b610c41565b6102b0610384366004611ff1565b610d4e565b610260610397366004611f52565b610d9b565b6102d36103aa3660046120ed565b610dc5565b61030f60065481565b6103c0611045565b604051610274919061212a565b61029061111e565b6103dd611148565b604051610274919061218f565b6102906103f8366004611ff1565b6111a9565b6102d3611292565b61030f60045481565b60055460ff16610353565b6103dd61132e565b6000546001600160a01b0316610260565b60045461030f565b610353610448366004611ff1565b6001600160a01b031660009081526007602052604090206003015460ff1690565b6102d36104773660046121db565b61138e565b6102d361048a366004611ff1565b61156c565b61035361049d366004611ff1565b6001600160a01b03166000908152600a602052604090206003015460ff1690565b60065461030f565b6005546103539060ff1681565b6102d36104e13660046121db565b611643565b6102d361188e565b6102606104fc366004611f52565b611949565b61030f60035481565b6102d36105183660046120ed565b611959565b6102d361052b366004611ff1565b611ad3565b6005546006546003546040805160ff90941615158452602084019290925290820152606001610274565b6102b0610568366004611ff1565b611e25565b6002818154811061057d57600080fd5b90600052602060002001600091509050805461059890612229565b80601f01602080910402602001604051908101604052809291908181526020018280546105c490612229565b80156106115780601f106105e657610100808354040283529160200191610611565b820191906000526020600020905b8154815290600101906020018083116105f457829003601f168201915b505050505081565b600760205260009081526040902080546001820180546001600160a01b03909216929161064590612229565b80601f016020809104026020016040519081016040528092919081815260200182805461067190612229565b80156106be5780601f10610693576101008083540402835291602001916106be565b820191906000526020600020905b8154815290600101906020018083116106a157829003601f168201915b50505050600283015460039093015491929160ff16905084565b600454620f423f146107315760405162461bcd60e51b815260206004820152601760248201527f54656d706c61746520494420616c72656164792073657400000000000000000060448201526064015b60405180910390fd5b3361076f5760405162461bcd60e51b815260206004820152600e60248201526d24b73b30b634b21031b0b63632b960911b6044820152606401610728565b600455565b6000546001600160a01b0316331461079e5760405162461bcd60e51b815260040161072890612263565b60055460ff16156107c15760405162461bcd60e51b8152600401610728906122af565b6001600160a01b03811660009081526007602052604090206003015460ff166107fc5760405162461bcd60e51b8152600401610728906122e6565b6000546001600160a01b039081169082160361085a5760405162461bcd60e51b815260206004820152601d60248201527f43616e6e6f742072656d6f76652070726f6a6563742063726561746f720000006044820152606401610728565b6001600160a01b0381166000908152600760205260408120600301805460ff191690555b60095481101561097957816001600160a01b0316600982815481106108a5576108a5612315565b6000918252602090912001546001600160a01b03160361097157600980546108cf9060019061232b565b815481106108df576108df612315565b600091825260209091200154600980546001600160a01b03909216918390811061090b5761090b612315565b9060005260206000200160006101000a8154816001600160a01b0302191690836001600160a01b03160217905550600980548061094a5761094a612352565b600082815260209020810160001990810180546001600160a01b0319169055019055610979565b60010161087e565b506040516001600160a01b038216907f6e76fb4c77256006d9c38ec7d82b45a8c8f3c27b1d6766fffc42dfb8de68449290600090a250565b6001805461059890612229565b806008816040516109cf9190612368565b9081526040519081900360200190205460ff166109fe5760405162461bcd60e51b815260040161072890612384565b60055460ff1615610a215760405162461bcd60e51b8152600401610728906122af565b6000546001600160a01b03163314610a905760405162461bcd60e51b815260206004820152602c60248201527f4f6e6c792070726f6a656374206f776e65722063616e2075706461746520746860448201526b656972206f776e20726f6c6560a01b6064820152608401610728565b600080546001600160a01b031681526007602052604081206001018054610ab690612229565b80601f0160208091040260200160405190810160405280929190818152602001828054610ae290612229565b8015610b2f5780601f10610b0457610100808354040283529160200191610b2f565b820191906000526020600020905b815481529060010190602001808311610b1257829003601f168201915b5050600080546001600160a01b0316815260076020526040902093945050506001919091019050610b6084826123f9565b506000546040516001600160a01b03909116907f2b6b575197263ee88365c8324c9c92e3869de9adbe176c769009afef44d8b09790610ba290849087906124b8565b60405180910390a2505050565b606060018054610bbe90612229565b80601f0160208091040260200160405190810160405280929190818152602001828054610bea90612229565b8015610c375780601f10610c0c57610100808354040283529160200191610c37565b820191906000526020600020905b815481529060010190602001808311610c1a57829003601f168201915b5050505050905090565b6001600160a01b03808216600090815260076020908152604080832081516080810190925280549094168152600184018054939460609486948594859490939291840191610c8e90612229565b80601f0160208091040260200160405190810160405280929190818152602001828054610cba90612229565b8015610d075780601f10610cdc57610100808354040283529160200191610d07565b820191906000526020600020905b815481529060010190602001808311610cea57829003601f168201915b5050509183525050600282015460208083019190915260039092015460ff161515604091820152825191830151908301516060909301519199909850919650945092505050565b6001600160a01b038082166000908152600a6020908152604080832081516080810190925280549094168152600184018054939460609486948594859490939291840191610c8e90612229565b600b8181548110610dab57600080fd5b6000918252602090912001546001600160a01b0316905081565b80600881604051610dd69190612368565b9081526040519081900360200190205460ff16610e055760405162461bcd60e51b815260040161072890612384565b60055460ff1615610e285760405162461bcd60e51b8152600401610728906122af565b6000546001600160a01b03163303610e825760405162461bcd60e51b815260206004820152601b60248201527f43726561746f7220697320616c72656164792061206d656d62657200000000006044820152606401610728565b3360009081526007602052604090206003015460ff1615610ed85760405162461bcd60e51b815260206004820152601060248201526f20b63932b0b23c90309036b2b6b132b960811b6044820152606401610728565b336000908152600a602052604090206003015460ff1615610f3b5760405162461bcd60e51b815260206004820152601c60248201527f4a6f696e207265717565737420616c72656164792070656e64696e67000000006044820152606401610728565b6040805160808101825233808252602080830186815242848601526001606085018190526000938452600a90925293909120825181546001600160a01b0319166001600160a01b03909116178155925191929190820190610f9c90826123f9565b5060408281015160028301556060909201516003909101805460ff1916911515919091179055600b80546001810182556000919091527f0175b7a638427703f0dbe7bb9bbf987a2551717b34e79f33b5b1008d1fa01db9018054336001600160a01b0319909116811790915590517fe4d6c018abd0178d4bce0856089ef1876318617b97a1d700bb98506598ab0afc9061103990859042906124e6565b60405180910390a25050565b60606002805480602002602001604051908101604052809291908181526020016000905b8282101561111557838290600052602060002001805461108890612229565b80601f01602080910402602001604051908101604052809291908181526020018280546110b490612229565b80156111015780601f106110d657610100808354040283529160200191611101565b820191906000526020600020905b8154815290600101906020018083116110e457829003601f168201915b505050505081526020019060010190611069565b50505050905090565b600080546001600160a01b03168152600760205260409020600101805460609190610bbe90612229565b6060600b805480602002602001604051908101604052809291908181526020018280548015610c3757602002820191906000526020600020905b81546001600160a01b03168152600190910190602001808311611182575050505050905090565b6001600160a01b03811660009081526007602052604090206003015460609060ff166111e75760405162461bcd60e51b8152600401610728906122e6565b6001600160a01b0382166000908152600760205260409020600101805461120d90612229565b80601f016020809104026020016040519081016040528092919081815260200182805461123990612229565b80156112865780601f1061125b57610100808354040283529160200191611286565b820191906000526020600020905b81548152906001019060200180831161126957829003601f168201915b50505050509050919050565b6000546001600160a01b031633146112bc5760405162461bcd60e51b815260040161072890612263565b60055460ff16156112df5760405162461bcd60e51b8152600401610728906122af565b6005805460ff191660011790554260068190556040517f5032973ebecb355d37badc06a2e7e34401c2b21eaade274aa03b3730fa18ff8a916113249190815260200190565b60405180910390a1565b60606009805480602002602001604051908101604052809291908181526020018280548015610c37576020028201919060005260206000209081546001600160a01b03168152600190910190602001808311611182575050505050905090565b6000546001600160a01b031633146113b85760405162461bcd60e51b815260040161072890612263565b806008816040516113c99190612368565b9081526040519081900360200190205460ff166113f85760405162461bcd60e51b815260040161072890612384565b60055460ff161561141b5760405162461bcd60e51b8152600401610728906122af565b6001600160a01b03831660009081526007602052604090206003015460ff166114565760405162461bcd60e51b8152600401610728906122e6565b6001600160a01b0383166000908152600760205260408120600101805461147c90612229565b80601f01602080910402602001604051908101604052809291908181526020018280546114a890612229565b80156114f55780601f106114ca576101008083540402835291602001916114f5565b820191906000526020600020905b8154815290600101906020018083116114d857829003601f168201915b505050506001600160a01b03861660009081526007602052604090209192505060010161152284826123f9565b50836001600160a01b03167f2b6b575197263ee88365c8324c9c92e3869de9adbe176c769009afef44d8b097828560405161155e9291906124b8565b60405180910390a250505050565b6000546001600160a01b031633146115965760405162461bcd60e51b815260040161072890612263565b6001600160a01b0381166000908152600a602052604090206003015460ff166115d15760405162461bcd60e51b815260040161072890612508565b6001600160a01b0381166000908152600a60205260409020600301805460ff191690556115fd81611e51565b806001600160a01b03167f18ed9b1d82e034b0d16f7b1b054bcb78c348bb222503d3939bda21c0304439ae4260405161163891815260200190565b60405180910390a250565b6000546001600160a01b0316331461166d5760405162461bcd60e51b815260040161072890612263565b8060088160405161167e9190612368565b9081526040519081900360200190205460ff166116ad5760405162461bcd60e51b815260040161072890612384565b60055460ff16156116d05760405162461bcd60e51b8152600401610728906122af565b6001600160a01b03831661171f5760405162461bcd60e51b8152602060048201526016602482015275496e76616c6964206d656d626572206164647265737360501b6044820152606401610728565b6001600160a01b03831660009081526007602052604090206003015460ff16156117835760405162461bcd60e51b81526020600482015260156024820152744d656d62657220616c72656164792065786973747360581b6044820152606401610728565b604080516080810182526001600160a01b03858116808352602080840187815242858701526001606086018190526000938452600790925294909120835181546001600160a01b0319169316929092178255925191929091908201906117e990826123f9565b5060408281015160028301556060909201516003909101805460ff1916911515919091179055600980546001810182556000919091527f6e1540171b6c0c960b71a7020d9f60077f6af931a8bbf590da0223dacf75c7af0180546001600160a01b0319166001600160a01b03861690811790915590517fac4f9610b174640b0a902ce555faa384cc9c9d291750f76e476f26f97bd079b490610ba290859042906124e6565b6000546001600160a01b031633146118b85760405162461bcd60e51b815260040161072890612263565b60055460ff1661190a5760405162461bcd60e51b815260206004820152601760248201527f50726f6a656374206973206e6f742066696e69736865640000000000000000006044820152606401610728565b6005805460ff1916905560006006556040514281527f9576a19393a9bc6046453e73d876fcb4d8a526e5d536a4e9b9def2a43bda709590602001611324565b60098181548110610dab57600080fd5b6000546001600160a01b031633146119835760405162461bcd60e51b815260040161072890612263565b60055460ff16156119a65760405162461bcd60e51b8152600401610728906122af565b60008151116119f75760405162461bcd60e51b815260206004820152601960248201527f4f626a6563746976652063616e6e6f7420626520656d707479000000000000006044820152606401610728565b600060018054611a0690612229565b80601f0160208091040260200160405190810160405280929190818152602001828054611a3290612229565b8015611a7f5780601f10611a5457610100808354040283529160200191611a7f565b820191906000526020600020905b815481529060010190602001808311611a6257829003601f168201915b505050505090508160019081611a9591906123f9565b507fa41bff8653f795d7a3b8ee4679220a1e32b3975fcb82941ef269b9bd17da381d8183604051611ac79291906124b8565b60405180910390a15050565b6000546001600160a01b03163314611afd5760405162461bcd60e51b815260040161072890612263565b60055460ff1615611b205760405162461bcd60e51b8152600401610728906122af565b6001600160a01b0381166000908152600a602052604090206003015460ff16611b5b5760405162461bcd60e51b815260040161072890612508565b6001600160a01b03811660009081526007602052604090206003015460ff1615611bc75760405162461bcd60e51b815260206004820152601860248201527f5573657220697320616c72656164792061206d656d62657200000000000000006044820152606401610728565b6001600160a01b038082166000908152600a6020908152604080832081516080810190925280549094168152600184018054939491939192840191611c0b90612229565b80601f0160208091040260200160405190810160405280929190818152602001828054611c3790612229565b8015611c845780601f10611c5957610100808354040283529160200191611c84565b820191906000526020600020905b815481529060010190602001808311611c6757829003601f168201915b5050509183525050600282015460208083019190915260039092015460ff16151560409182015280516080810182526001600160a01b0386811680835285850151838601908152428486015260016060850181905260009283526007909652939020825181546001600160a01b03191692169190911781559151939450929091820190611d1190826123f9565b5060408281015160028301556060909201516003918201805491151560ff1992831617905560098054600181019091557f6e1540171b6c0c960b71a7020d9f60077f6af931a8bbf590da0223dacf75c7af0180546001600160a01b0387166001600160a01b031990911681179091556000908152600a602052929092200180549091169055611d9f82611e51565b816001600160a01b03167f2c3efd81f5e8701b646cfce4c64341fcec3b0025a3219b9bec0c8cbcfebd077e826020015142604051611dde9291906124e6565b60405180910390a2816001600160a01b03167fac4f9610b174640b0a902ce555faa384cc9c9d291750f76e476f26f97bd079b48260200151426040516110399291906124e6565b600a60205260009081526040902080546001820180546001600160a01b03909216929161064590612229565b60005b600b54811015611f4e57816001600160a01b0316600b8281548110611e7b57611e7b612315565b6000918252602090912001546001600160a01b031603611f4657600b8054611ea59060019061232b565b81548110611eb557611eb5612315565b600091825260209091200154600b80546001600160a01b039092169183908110611ee157611ee1612315565b9060005260206000200160006101000a8154816001600160a01b0302191690836001600160a01b03160217905550600b805480611f2057611f20612352565b600082815260209020810160001990810180546001600160a01b03191690550190555050565b600101611e54565b5050565b600060208284031215611f6457600080fd5b5035919050565b60005b83811015611f86578181015183820152602001611f6e565b50506000910152565b60008151808452611fa7816020860160208601611f6b565b601f01601f19169290920160200192915050565b602081526000611fce6020830184611f8f565b9392505050565b80356001600160a01b0381168114611fec57600080fd5b919050565b60006020828403121561200357600080fd5b611fce82611fd5565b6001600160a01b038516815260806020820181905260009061203090830186611f8f565b60408301949094525090151560609091015292915050565b634e487b7160e01b600052604160045260246000fd5b600082601f83011261206f57600080fd5b813567ffffffffffffffff81111561208957612089612048565b604051601f8201601f19908116603f0116810167ffffffffffffffff811182821017156120b8576120b8612048565b6040528181528382016020018510156120d057600080fd5b816020850160208301376000918101602001919091529392505050565b6000602082840312156120ff57600080fd5b813567ffffffffffffffff81111561211657600080fd5b6121228482850161205e565b949350505050565b6000602082016020835280845180835260408501915060408160051b86010192506020860160005b8281101561218357603f1987860301845261216e858351611f8f565b94506020938401939190910190600101612152565b50929695505050505050565b602080825282518282018190526000918401906040840190835b818110156121d05783516001600160a01b03168352602093840193909201916001016121a9565b509095945050505050565b600080604083850312156121ee57600080fd5b6121f783611fd5565b9150602083013567ffffffffffffffff81111561221357600080fd5b61221f8582860161205e565b9150509250929050565b600181811c9082168061223d57607f821691505b60208210810361225d57634e487b7160e01b600052602260045260246000fd5b50919050565b6020808252602c908201527f4f6e6c792070726f6a6563742063726561746f722063616e20706572666f726d60408201526b103a3434b99030b1ba34b7b760a11b606082015260800190565b6020808252601b908201527f50726f6a65637420697320616c72656164792066696e69736865640000000000604082015260600190565b60208082526015908201527413595b58995c88191bd95cc81b9bdd08195e1a5cdd605a1b604082015260600190565b634e487b7160e01b600052603260045260246000fd5b8181038181111561234c57634e487b7160e01b600052601160045260246000fd5b92915050565b634e487b7160e01b600052603160045260246000fd5b6000825161237a818460208701611f6b565b9190910192915050565b6020808252600c908201526b496e76616c696420726f6c6560a01b604082015260600190565b601f8211156123f457806000526020600020601f840160051c810160208510156123d15750805b601f840160051c820191505b818110156123f157600081556001016123dd565b50505b505050565b815167ffffffffffffffff81111561241357612413612048565b612427816124218454612229565b846123aa565b6020601f82116001811461245b57600083156124435750848201515b600019600385901b1c1916600184901b1784556123f1565b600084815260208120601f198516915b8281101561248b578785015182556020948501946001909201910161246b565b50848210156124a95786840151600019600387901b60f8161c191681555b50505050600190811b01905550565b6040815260006124cb6040830185611f8f565b82810360208401526124dd8185611f8f565b95945050505050565b6040815260006124f96040830185611f8f565b90508260208301529392505050565b60208082526024908201527f4e6f2070656e64696e6720726571756573742066726f6d2074686973206164646040820152637265737360e01b60608201526080019056fea2646970667358221220bdae4aaa161022387170271f6b54f9a103b119e7ecbf72d25219ad963d03671264736f6c634300081c0033",
  "linkReferences": {},
  "deployedLinkReferences": {}
}